{
  "contractName": "ERC4907_RentableService",
  "abi": [
    {
      "inputs": [],
      "stateMutability": "nonpayable",
      "type": "constructor"
    },
    {
      "anonymous": false,
      "inputs": [
        {
          "indexed": true,
          "internalType": "address",
          "name": "owner",
          "type": "address"
        },
        {
          "indexed": true,
          "internalType": "address",
          "name": "approved",
          "type": "address"
        },
        {
          "indexed": true,
          "internalType": "uint256",
          "name": "tokenId",
          "type": "uint256"
        }
      ],
      "name": "Approval",
      "type": "event"
    },
    {
      "anonymous": false,
      "inputs": [
        {
          "indexed": true,
          "internalType": "address",
          "name": "owner",
          "type": "address"
        },
        {
          "indexed": true,
          "internalType": "address",
          "name": "operator",
          "type": "address"
        },
        {
          "indexed": false,
          "internalType": "bool",
          "name": "approved",
          "type": "bool"
        }
      ],
      "name": "ApprovalForAll",
      "type": "event"
    },
    {
      "anonymous": false,
      "inputs": [
        {
          "indexed": true,
          "internalType": "address",
          "name": "from",
          "type": "address"
        },
        {
          "indexed": true,
          "internalType": "address",
          "name": "to",
          "type": "address"
        },
        {
          "indexed": true,
          "internalType": "uint256",
          "name": "tokenId",
          "type": "uint256"
        }
      ],
      "name": "Transfer",
      "type": "event"
    },
    {
      "anonymous": false,
      "inputs": [
        {
          "indexed": true,
          "internalType": "uint256",
          "name": "tokenId",
          "type": "uint256"
        },
        {
          "indexed": true,
          "internalType": "address",
          "name": "user",
          "type": "address"
        },
        {
          "indexed": false,
          "internalType": "uint64",
          "name": "expires",
          "type": "uint64"
        }
      ],
      "name": "UpdateUser",
      "type": "event"
    },
    {
      "inputs": [
        {
          "internalType": "address",
          "name": "to",
          "type": "address"
        },
        {
          "internalType": "uint256",
          "name": "tokenId",
          "type": "uint256"
        }
      ],
      "name": "approve",
      "outputs": [],
      "stateMutability": "nonpayable",
      "type": "function"
    },
    {
      "inputs": [
        {
          "internalType": "address",
          "name": "owner",
          "type": "address"
        }
      ],
      "name": "balanceOf",
      "outputs": [
        {
          "internalType": "uint256",
          "name": "",
          "type": "uint256"
        }
      ],
      "stateMutability": "view",
      "type": "function"
    },
    {
      "inputs": [
        {
          "internalType": "uint256",
          "name": "tokenId",
          "type": "uint256"
        }
      ],
      "name": "getApproved",
      "outputs": [
        {
          "internalType": "address",
          "name": "",
          "type": "address"
        }
      ],
      "stateMutability": "view",
      "type": "function"
    },
    {
      "inputs": [
        {
          "internalType": "address",
          "name": "owner",
          "type": "address"
        },
        {
          "internalType": "address",
          "name": "operator",
          "type": "address"
        }
      ],
      "name": "isApprovedForAll",
      "outputs": [
        {
          "internalType": "bool",
          "name": "",
          "type": "bool"
        }
      ],
      "stateMutability": "view",
      "type": "function"
    },
    {
      "inputs": [],
      "name": "name",
      "outputs": [
        {
          "internalType": "string",
          "name": "",
          "type": "string"
        }
      ],
      "stateMutability": "view",
      "type": "function"
    },
    {
      "inputs": [
        {
          "internalType": "uint256",
          "name": "tokenId",
          "type": "uint256"
        }
      ],
      "name": "ownerOf",
      "outputs": [
        {
          "internalType": "address",
          "name": "",
          "type": "address"
        }
      ],
      "stateMutability": "view",
      "type": "function"
    },
    {
      "inputs": [
        {
          "internalType": "address",
          "name": "from",
          "type": "address"
        },
        {
          "internalType": "address",
          "name": "to",
          "type": "address"
        },
        {
          "internalType": "uint256",
          "name": "tokenId",
          "type": "uint256"
        }
      ],
      "name": "safeTransferFrom",
      "outputs": [],
      "stateMutability": "nonpayable",
      "type": "function"
    },
    {
      "inputs": [
        {
          "internalType": "address",
          "name": "from",
          "type": "address"
        },
        {
          "internalType": "address",
          "name": "to",
          "type": "address"
        },
        {
          "internalType": "uint256",
          "name": "tokenId",
          "type": "uint256"
        },
        {
          "internalType": "bytes",
          "name": "data",
          "type": "bytes"
        }
      ],
      "name": "safeTransferFrom",
      "outputs": [],
      "stateMutability": "nonpayable",
      "type": "function"
    },
    {
      "inputs": [
        {
          "internalType": "address",
          "name": "operator",
          "type": "address"
        },
        {
          "internalType": "bool",
          "name": "approved",
          "type": "bool"
        }
      ],
      "name": "setApprovalForAll",
      "outputs": [],
      "stateMutability": "nonpayable",
      "type": "function"
    },
    {
      "inputs": [
        {
          "internalType": "uint256",
          "name": "tokenId",
          "type": "uint256"
        },
        {
          "internalType": "address",
          "name": "user",
          "type": "address"
        },
        {
          "internalType": "uint64",
          "name": "expires",
          "type": "uint64"
        }
      ],
      "name": "setUser",
      "outputs": [],
      "stateMutability": "nonpayable",
      "type": "function"
    },
    {
      "inputs": [
        {
          "internalType": "bytes4",
          "name": "interfaceId",
          "type": "bytes4"
        }
      ],
      "name": "supportsInterface",
      "outputs": [
        {
          "internalType": "bool",
          "name": "",
          "type": "bool"
        }
      ],
      "stateMutability": "view",
      "type": "function"
    },
    {
      "inputs": [],
      "name": "symbol",
      "outputs": [
        {
          "internalType": "string",
          "name": "",
          "type": "string"
        }
      ],
      "stateMutability": "view",
      "type": "function"
    },
    {
      "inputs": [
        {
          "internalType": "uint256",
          "name": "tokenId",
          "type": "uint256"
        }
      ],
      "name": "tokenURI",
      "outputs": [
        {
          "internalType": "string",
          "name": "",
          "type": "string"
        }
      ],
      "stateMutability": "view",
      "type": "function"
    },
    {
      "inputs": [
        {
          "internalType": "address",
          "name": "from",
          "type": "address"
        },
        {
          "internalType": "address",
          "name": "to",
          "type": "address"
        },
        {
          "internalType": "uint256",
          "name": "tokenId",
          "type": "uint256"
        }
      ],
      "name": "transferFrom",
      "outputs": [],
      "stateMutability": "nonpayable",
      "type": "function"
    },
    {
      "inputs": [
        {
          "internalType": "uint256",
          "name": "tokenId",
          "type": "uint256"
        }
      ],
      "name": "userExpires",
      "outputs": [
        {
          "internalType": "uint256",
          "name": "",
          "type": "uint256"
        }
      ],
      "stateMutability": "view",
      "type": "function"
    },
    {
      "inputs": [
        {
          "internalType": "uint256",
          "name": "tokenId",
          "type": "uint256"
        }
      ],
      "name": "userOf",
      "outputs": [
        {
          "internalType": "address",
          "name": "",
          "type": "address"
        }
      ],
      "stateMutability": "view",
      "type": "function"
    },
    {
      "inputs": [
        {
          "internalType": "string",
          "name": "_tokenURI",
          "type": "string"
        }
      ],
      "name": "mint",
      "outputs": [
        {
          "internalType": "uint256",
          "name": "",
          "type": "uint256"
        }
      ],
      "stateMutability": "nonpayable",
      "type": "function"
    },
    {
      "inputs": [
        {
          "internalType": "uint256",
          "name": "tokenId",
          "type": "uint256"
        }
      ],
      "name": "burn",
      "outputs": [],
      "stateMutability": "nonpayable",
      "type": "function"
    }
  ],
  "bytecode": "0x60806040523480156200001157600080fd5b506040518060400160405280600c81526020017f52656e7461626c655065747300000000000000000000000000000000000000008152506040518060400160405280600281526020017f52500000000000000000000000000000000000000000000000000000000000008152508181816000908162000091919062000328565b508060019081620000a3919062000328565b50505050506200040f565b600081519050919050565b7f4e487b7100000000000000000000000000000000000000000000000000000000600052604160045260246000fd5b7f4e487b7100000000000000000000000000000000000000000000000000000000600052602260045260246000fd5b600060028204905060018216806200013057607f821691505b602082108103620001465762000145620000e8565b5b50919050565b60008190508160005260206000209050919050565b60006020601f8301049050919050565b600082821b905092915050565b600060088302620001b07fffffffffffffffffffffffffffffffffffffffffffffffffffffffffffffffff8262000171565b620001bc868362000171565b95508019841693508086168417925050509392505050565b6000819050919050565b6000819050919050565b60006200020962000203620001fd84620001d4565b620001de565b620001d4565b9050919050565b6000819050919050565b6200022583620001e8565b6200023d620002348262000210565b8484546200017e565b825550505050565b600090565b6200025462000245565b620002618184846200021a565b505050565b5b8181101562000289576200027d6000826200024a565b60018101905062000267565b5050565b601f821115620002d857620002a2816200014c565b620002ad8462000161565b81016020851015620002bd578190505b620002d5620002cc8562000161565b83018262000266565b50505b505050565b600082821c905092915050565b6000620002fd60001984600802620002dd565b1980831691505092915050565b6000620003188383620002ea565b9150826002028217905092915050565b6200033382620000ae565b67ffffffffffffffff8111156200034f576200034e620000b9565b5b6200035b825462000117565b620003688282856200028d565b600060209050601f831160018114620003a057600084156200038b578287015190505b6200039785826200030a565b86555062000407565b601f198416620003b0866200014c565b60005b82811015620003da57848901518255600182019150602085019450602081019050620003b3565b86831015620003fa5784890151620003f6601f891682620002ea565b8355505b6001600288020188555050505b505050505050565b6134c2806200041f6000396000f3fe608060405234801561001057600080fd5b50600436106101165760003560e01c80638fc88c48116100a2578063c2f1f14a11610071578063c2f1f14a146102ef578063c87b56dd1461031f578063d85d3d271461034f578063e030565e1461037f578063e985e9c51461039b57610116565b80638fc88c481461026957806395d89b4114610299578063a22cb465146102b7578063b88d4fde146102d357610116565b806323b872dd116100e957806323b872dd146101b557806342842e0e146101d157806342966c68146101ed5780636352211e1461020957806370a082311461023957610116565b806301ffc9a71461011b57806306fdde031461014b578063081812fc14610169578063095ea7b314610199575b600080fd5b6101356004803603810190610130919061215d565b6103cb565b60405161014291906121a5565b60405180910390f35b610153610445565b6040516101609190612259565b60405180910390f35b610183600480360381019061017e91906122b1565b6104d7565b604051610190919061231f565b60405180910390f35b6101b360048036038101906101ae9190612366565b61051d565b005b6101cf60048036038101906101ca91906123a6565b610634565b005b6101eb60048036038101906101e691906123a6565b610694565b005b610207600480360381019061020291906122b1565b6106b4565b005b610223600480360381019061021e91906122b1565b6106c0565b604051610230919061231f565b60405180910390f35b610253600480360381019061024e91906123f9565b610746565b6040516102609190612435565b60405180910390f35b610283600480360381019061027e91906122b1565b6107fd565b6040516102909190612435565b60405180910390f35b6102a161083b565b6040516102ae9190612259565b60405180910390f35b6102d160048036038101906102cc919061247c565b6108cd565b005b6102ed60048036038101906102e891906125f1565b6108e3565b005b610309600480360381019061030491906122b1565b610945565b604051610316919061231f565b60405180910390f35b610339600480360381019061033491906122b1565b6109ca565b6040516103469190612259565b60405180910390f35b61036960048036038101906103649190612715565b610adc565b6040516103769190612435565b60405180910390f35b6103996004803603810190610394919061279e565b610b13565b005b6103b560048036038101906103b091906127f1565b610c36565b6040516103c291906121a5565b60405180910390f35b60007fad092b5c000000000000000000000000000000000000000000000000000000007bffffffffffffffffffffffffffffffffffffffffffffffffffffffff1916827bffffffffffffffffffffffffffffffffffffffffffffffffffffffff1916148061043e575061043d82610cca565b5b9050919050565b60606000805461045490612860565b80601f016020809104026020016040519081016040528092919081815260200182805461048090612860565b80156104cd5780601f106104a2576101008083540402835291602001916104cd565b820191906000526020600020905b8154815290600101906020018083116104b057829003601f168201915b5050505050905090565b60006104e282610dac565b6004600083815260200190815260200160002060009054906101000a900473ffffffffffffffffffffffffffffffffffffffff169050919050565b6000610528826106c0565b90508073ffffffffffffffffffffffffffffffffffffffff168373ffffffffffffffffffffffffffffffffffffffff1603610598576040517f08c379a000000000000000000000000000000000000000000000000000000000815260040161058f90612903565b60405180910390fd5b8073ffffffffffffffffffffffffffffffffffffffff166105b7610df7565b73ffffffffffffffffffffffffffffffffffffffff1614806105e657506105e5816105e0610df7565b610c36565b5b610625576040517f08c379a000000000000000000000000000000000000000000000000000000000815260040161061c90612995565b60405180910390fd5b61062f8383610dff565b505050565b61064561063f610df7565b82610eb8565b610684576040517f08c379a000000000000000000000000000000000000000000000000000000000815260040161067b90612a27565b60405180910390fd5b61068f838383610f4d565b505050565b6106af838383604051806020016040528060008152506108e3565b505050565b6106bd81611246565b50565b6000806106cc83611299565b9050600073ffffffffffffffffffffffffffffffffffffffff168173ffffffffffffffffffffffffffffffffffffffff160361073d576040517f08c379a000000000000000000000000000000000000000000000000000000000815260040161073490612a93565b60405180910390fd5b80915050919050565b60008073ffffffffffffffffffffffffffffffffffffffff168273ffffffffffffffffffffffffffffffffffffffff16036107b6576040517f08c379a00000000000000000000000000000000000000000000000000000000081526004016107ad90612b25565b60405180910390fd5b600360008373ffffffffffffffffffffffffffffffffffffffff1673ffffffffffffffffffffffffffffffffffffffff168152602001908152602001600020549050919050565b60006007600083815260200190815260200160002060000160149054906101000a900467ffffffffffffffff1667ffffffffffffffff169050919050565b60606001805461084a90612860565b80601f016020809104026020016040519081016040528092919081815260200182805461087690612860565b80156108c35780601f10610898576101008083540402835291602001916108c3565b820191906000526020600020905b8154815290600101906020018083116108a657829003601f168201915b5050505050905090565b6108df6108d8610df7565b83836112d6565b5050565b6108f46108ee610df7565b83610eb8565b610933576040517f08c379a000000000000000000000000000000000000000000000000000000000815260040161092a90612a27565b60405180910390fd5b61093f84848484611442565b50505050565b6000426007600084815260200190815260200160002060000160149054906101000a900467ffffffffffffffff1667ffffffffffffffff16106109c0576007600083815260200190815260200160002060000160009054906101000a900473ffffffffffffffffffffffffffffffffffffffff1690506109c5565b600090505b919050565b60606109d582610dac565b60006006600084815260200190815260200160002080546109f590612860565b80601f0160208091040260200160405190810160405280929190818152602001828054610a2190612860565b8015610a6e5780601f10610a4357610100808354040283529160200191610a6e565b820191906000526020600020905b815481529060010190602001808311610a5157829003601f168201915b505050505090506000610a7f61149e565b90506000815103610a94578192505050610ad7565b600082511115610ac9578082604051602001610ab1929190612b81565b60405160208183030381529060405292505050610ad7565b610ad2846114b5565b925050505b919050565b6000610ae8600861151d565b6000610af46008611533565b9050610b003382611541565b610b0a818461155f565b80915050919050565b610b1d3384610eb8565b610b5c576040517f08c379a0000000000000000000000000000000000000000000000000000000008152600401610b5390612c17565b60405180910390fd5b6000600760008581526020019081526020016000209050828160000160006101000a81548173ffffffffffffffffffffffffffffffffffffffff021916908373ffffffffffffffffffffffffffffffffffffffff160217905550818160000160146101000a81548167ffffffffffffffff021916908367ffffffffffffffff1602179055508273ffffffffffffffffffffffffffffffffffffffff16847f4e06b4e7000e659094299b3533b47b6aa8ad048e95e872d23d1f4ee55af89cfe84604051610c289190612c46565b60405180910390a350505050565b6000600560008473ffffffffffffffffffffffffffffffffffffffff1673ffffffffffffffffffffffffffffffffffffffff16815260200190815260200160002060008373ffffffffffffffffffffffffffffffffffffffff1673ffffffffffffffffffffffffffffffffffffffff16815260200190815260200160002060009054906101000a900460ff16905092915050565b60007f80ac58cd000000000000000000000000000000000000000000000000000000007bffffffffffffffffffffffffffffffffffffffffffffffffffffffff1916827bffffffffffffffffffffffffffffffffffffffffffffffffffffffff19161480610d9557507f5b5e139f000000000000000000000000000000000000000000000000000000007bffffffffffffffffffffffffffffffffffffffffffffffffffffffff1916827bffffffffffffffffffffffffffffffffffffffffffffffffffffffff1916145b80610da55750610da4826115cc565b5b9050919050565b610db581611636565b610df4576040517f08c379a0000000000000000000000000000000000000000000000000000000008152600401610deb90612a93565b60405180910390fd5b50565b600033905090565b816004600083815260200190815260200160002060006101000a81548173ffffffffffffffffffffffffffffffffffffffff021916908373ffffffffffffffffffffffffffffffffffffffff160217905550808273ffffffffffffffffffffffffffffffffffffffff16610e72836106c0565b73ffffffffffffffffffffffffffffffffffffffff167f8c5be1e5ebec7d5bd14f71427d1e84f3dd0314c0f7b2291e5b200ac8c7c3b92560405160405180910390a45050565b600080610ec4836106c0565b90508073ffffffffffffffffffffffffffffffffffffffff168473ffffffffffffffffffffffffffffffffffffffff161480610f065750610f058185610c36565b5b80610f4457508373ffffffffffffffffffffffffffffffffffffffff16610f2c846104d7565b73ffffffffffffffffffffffffffffffffffffffff16145b91505092915050565b8273ffffffffffffffffffffffffffffffffffffffff16610f6d826106c0565b73ffffffffffffffffffffffffffffffffffffffff1614610fc3576040517f08c379a0000000000000000000000000000000000000000000000000000000008152600401610fba90612cd3565b60405180910390fd5b600073ffffffffffffffffffffffffffffffffffffffff168273ffffffffffffffffffffffffffffffffffffffff1603611032576040517f08c379a000000000000000000000000000000000000000000000000000000000815260040161102990612d65565b60405180910390fd5b61103f8383836001611677565b8273ffffffffffffffffffffffffffffffffffffffff1661105f826106c0565b73ffffffffffffffffffffffffffffffffffffffff16146110b5576040517f08c379a00000000000000000000000000000000000000000000000000000000081526004016110ac90612cd3565b60405180910390fd5b6004600082815260200190815260200160002060006101000a81549073ffffffffffffffffffffffffffffffffffffffff02191690556001600360008573ffffffffffffffffffffffffffffffffffffffff1673ffffffffffffffffffffffffffffffffffffffff168152602001908152602001600020600082825403925050819055506001600360008473ffffffffffffffffffffffffffffffffffffffff1673ffffffffffffffffffffffffffffffffffffffff16815260200190815260200160002060008282540192505081905550816002600083815260200190815260200160002060006101000a81548173ffffffffffffffffffffffffffffffffffffffff021916908373ffffffffffffffffffffffffffffffffffffffff160217905550808273ffffffffffffffffffffffffffffffffffffffff168473ffffffffffffffffffffffffffffffffffffffff167fddf252ad1be2c89b69c2b068fc378daa952ba7f163c4a11628f55a4df523b3ef60405160405180910390a461124183838360016117d7565b505050565b61124f816117dd565b600060066000838152602001908152602001600020805461126f90612860565b905014611296576006600082815260200190815260200160002060006112959190612094565b5b50565b60006002600083815260200190815260200160002060009054906101000a900473ffffffffffffffffffffffffffffffffffffffff169050919050565b8173ffffffffffffffffffffffffffffffffffffffff168373ffffffffffffffffffffffffffffffffffffffff1603611344576040517f08c379a000000000000000000000000000000000000000000000000000000000815260040161133b90612dd1565b60405180910390fd5b80600560008573ffffffffffffffffffffffffffffffffffffffff1673ffffffffffffffffffffffffffffffffffffffff16815260200190815260200160002060008473ffffffffffffffffffffffffffffffffffffffff1673ffffffffffffffffffffffffffffffffffffffff16815260200190815260200160002060006101000a81548160ff0219169083151502179055508173ffffffffffffffffffffffffffffffffffffffff168373ffffffffffffffffffffffffffffffffffffffff167f17307eab39ab6107e8899845ad3d59bd9653f200f220920489ca2b5937696c318360405161143591906121a5565b60405180910390a3505050565b61144d848484610f4d565b6114598484848461192b565b611498576040517f08c379a000000000000000000000000000000000000000000000000000000000815260040161148f90612e63565b60405180910390fd5b50505050565b606060405180602001604052806000815250905090565b60606114c082610dac565b60006114ca61149e565b905060008151116114ea5760405180602001604052806000815250611515565b806114f484611ab2565b604051602001611505929190612b81565b6040516020818303038152906040525b915050919050565b6001816000016000828254019250508190555050565b600081600001549050919050565b61155b828260405180602001604052806000815250611b80565b5050565b61156882611636565b6115a7576040517f08c379a000000000000000000000000000000000000000000000000000000000815260040161159e90612ef5565b60405180910390fd5b806006600084815260200190815260200160002090816115c791906130c1565b505050565b60007f01ffc9a7000000000000000000000000000000000000000000000000000000007bffffffffffffffffffffffffffffffffffffffffffffffffffffffff1916827bffffffffffffffffffffffffffffffffffffffffffffffffffffffff1916149050919050565b60008073ffffffffffffffffffffffffffffffffffffffff1661165883611299565b73ffffffffffffffffffffffffffffffffffffffff1614159050919050565b61168384848484611bdb565b8273ffffffffffffffffffffffffffffffffffffffff168473ffffffffffffffffffffffffffffffffffffffff16141580156117225750600073ffffffffffffffffffffffffffffffffffffffff166007600084815260200190815260200160002060000160009054906101000a900473ffffffffffffffffffffffffffffffffffffffff1673ffffffffffffffffffffffffffffffffffffffff1614155b156117d15760076000838152602001908152602001600020600080820160006101000a81549073ffffffffffffffffffffffffffffffffffffffff02191690556000820160146101000a81549067ffffffffffffffff02191690555050600073ffffffffffffffffffffffffffffffffffffffff16827f4e06b4e7000e659094299b3533b47b6aa8ad048e95e872d23d1f4ee55af89cfe60006040516117c891906131ce565b60405180910390a35b50505050565b50505050565b60006117e8826106c0565b90506117f8816000846001611677565b611801826106c0565b90506004600083815260200190815260200160002060006101000a81549073ffffffffffffffffffffffffffffffffffffffff02191690556001600360008373ffffffffffffffffffffffffffffffffffffffff1673ffffffffffffffffffffffffffffffffffffffff168152602001908152602001600020600082825403925050819055506002600083815260200190815260200160002060006101000a81549073ffffffffffffffffffffffffffffffffffffffff021916905581600073ffffffffffffffffffffffffffffffffffffffff168273ffffffffffffffffffffffffffffffffffffffff167fddf252ad1be2c89b69c2b068fc378daa952ba7f163c4a11628f55a4df523b3ef60405160405180910390a46119278160008460016117d7565b5050565b600061194c8473ffffffffffffffffffffffffffffffffffffffff16611d01565b15611aa5578373ffffffffffffffffffffffffffffffffffffffff1663150b7a02611975610df7565b8786866040518563ffffffff1660e01b8152600401611997949392919061323e565b6020604051808303816000875af19250505080156119d357506040513d601f19601f820116820180604052508101906119d0919061329f565b60015b611a55573d8060008114611a03576040519150601f19603f3d011682016040523d82523d6000602084013e611a08565b606091505b506000815103611a4d576040517f08c379a0000000000000000000000000000000000000000000000000000000008152600401611a4490612e63565b60405180910390fd5b805181602001fd5b63150b7a0260e01b7bffffffffffffffffffffffffffffffffffffffffffffffffffffffff1916817bffffffffffffffffffffffffffffffffffffffffffffffffffffffff191614915050611aaa565b600190505b949350505050565b606060006001611ac184611d24565b01905060008167ffffffffffffffff811115611ae057611adf6124c6565b5b6040519080825280601f01601f191660200182016040528015611b125781602001600182028036833780820191505090505b509050600082602001820190505b600115611b75578080600190039150507f3031323334353637383961626364656600000000000000000000000000000000600a86061a8153600a8581611b6957611b686132cc565b5b04945060008503611b20575b819350505050919050565b611b8a8383611e77565b611b97600084848461192b565b611bd6576040517f08c379a0000000000000000000000000000000000000000000000000000000008152600401611bcd90612e63565b60405180910390fd5b505050565b6001811115611cfb57600073ffffffffffffffffffffffffffffffffffffffff168473ffffffffffffffffffffffffffffffffffffffff1614611c6f5780600360008673ffffffffffffffffffffffffffffffffffffffff1673ffffffffffffffffffffffffffffffffffffffff1681526020019081526020016000206000828254611c67919061332a565b925050819055505b600073ffffffffffffffffffffffffffffffffffffffff168373ffffffffffffffffffffffffffffffffffffffff1614611cfa5780600360008573ffffffffffffffffffffffffffffffffffffffff1673ffffffffffffffffffffffffffffffffffffffff1681526020019081526020016000206000828254611cf2919061335e565b925050819055505b5b50505050565b6000808273ffffffffffffffffffffffffffffffffffffffff163b119050919050565b600080600090507a184f03e93ff9f4daa797ed6e38ed64bf6a1f0100000000000000008310611d82577a184f03e93ff9f4daa797ed6e38ed64bf6a1f0100000000000000008381611d7857611d776132cc565b5b0492506040810190505b6d04ee2d6d415b85acef81000000008310611dbf576d04ee2d6d415b85acef81000000008381611db557611db46132cc565b5b0492506020810190505b662386f26fc100008310611dee57662386f26fc100008381611de457611de36132cc565b5b0492506010810190505b6305f5e1008310611e17576305f5e1008381611e0d57611e0c6132cc565b5b0492506008810190505b6127108310611e3c576127108381611e3257611e316132cc565b5b0492506004810190505b60648310611e5f5760648381611e5557611e546132cc565b5b0492506002810190505b600a8310611e6e576001810190505b80915050919050565b600073ffffffffffffffffffffffffffffffffffffffff168273ffffffffffffffffffffffffffffffffffffffff1603611ee6576040517f08c379a0000000000000000000000000000000000000000000000000000000008152600401611edd90613400565b60405180910390fd5b611eef81611636565b15611f2f576040517f08c379a0000000000000000000000000000000000000000000000000000000008152600401611f269061346c565b60405180910390fd5b611f3d600083836001611677565b611f4681611636565b15611f86576040517f08c379a0000000000000000000000000000000000000000000000000000000008152600401611f7d9061346c565b60405180910390fd5b6001600360008473ffffffffffffffffffffffffffffffffffffffff1673ffffffffffffffffffffffffffffffffffffffff16815260200190815260200160002060008282540192505081905550816002600083815260200190815260200160002060006101000a81548173ffffffffffffffffffffffffffffffffffffffff021916908373ffffffffffffffffffffffffffffffffffffffff160217905550808273ffffffffffffffffffffffffffffffffffffffff16600073ffffffffffffffffffffffffffffffffffffffff167fddf252ad1be2c89b69c2b068fc378daa952ba7f163c4a11628f55a4df523b3ef60405160405180910390a46120906000838360016117d7565b5050565b5080546120a090612860565b6000825580601f106120b257506120d1565b601f0160209004906000526020600020908101906120d091906120d4565b5b50565b5b808211156120ed5760008160009055506001016120d5565b5090565b6000604051905090565b600080fd5b600080fd5b60007fffffffff0000000000000000000000000000000000000000000000000000000082169050919050565b61213a81612105565b811461214557600080fd5b50565b60008135905061215781612131565b92915050565b600060208284031215612173576121726120fb565b5b600061218184828501612148565b91505092915050565b60008115159050919050565b61219f8161218a565b82525050565b60006020820190506121ba6000830184612196565b92915050565b600081519050919050565b600082825260208201905092915050565b60005b838110156121fa5780820151818401526020810190506121df565b83811115612209576000848401525b50505050565b6000601f19601f8301169050919050565b600061222b826121c0565b61223581856121cb565b93506122458185602086016121dc565b61224e8161220f565b840191505092915050565b600060208201905081810360008301526122738184612220565b905092915050565b6000819050919050565b61228e8161227b565b811461229957600080fd5b50565b6000813590506122ab81612285565b92915050565b6000602082840312156122c7576122c66120fb565b5b60006122d58482850161229c565b91505092915050565b600073ffffffffffffffffffffffffffffffffffffffff82169050919050565b6000612309826122de565b9050919050565b612319816122fe565b82525050565b60006020820190506123346000830184612310565b92915050565b612343816122fe565b811461234e57600080fd5b50565b6000813590506123608161233a565b92915050565b6000806040838503121561237d5761237c6120fb565b5b600061238b85828601612351565b925050602061239c8582860161229c565b9150509250929050565b6000806000606084860312156123bf576123be6120fb565b5b60006123cd86828701612351565b93505060206123de86828701612351565b92505060406123ef8682870161229c565b9150509250925092565b60006020828403121561240f5761240e6120fb565b5b600061241d84828501612351565b91505092915050565b61242f8161227b565b82525050565b600060208201905061244a6000830184612426565b92915050565b6124598161218a565b811461246457600080fd5b50565b60008135905061247681612450565b92915050565b60008060408385031215612493576124926120fb565b5b60006124a185828601612351565b92505060206124b285828601612467565b9150509250929050565b600080fd5b600080fd5b7f4e487b7100000000000000000000000000000000000000000000000000000000600052604160045260246000fd5b6124fe8261220f565b810181811067ffffffffffffffff8211171561251d5761251c6124c6565b5b80604052505050565b60006125306120f1565b905061253c82826124f5565b919050565b600067ffffffffffffffff82111561255c5761255b6124c6565b5b6125658261220f565b9050602081019050919050565b82818337600083830152505050565b600061259461258f84612541565b612526565b9050828152602081018484840111156125b0576125af6124c1565b5b6125bb848285612572565b509392505050565b600082601f8301126125d8576125d76124bc565b5b81356125e8848260208601612581565b91505092915050565b6000806000806080858703121561260b5761260a6120fb565b5b600061261987828801612351565b945050602061262a87828801612351565b935050604061263b8782880161229c565b925050606085013567ffffffffffffffff81111561265c5761265b612100565b5b612668878288016125c3565b91505092959194509250565b600067ffffffffffffffff82111561268f5761268e6124c6565b5b6126988261220f565b9050602081019050919050565b60006126b86126b384612674565b612526565b9050828152602081018484840111156126d4576126d36124c1565b5b6126df848285612572565b509392505050565b600082601f8301126126fc576126fb6124bc565b5b813561270c8482602086016126a5565b91505092915050565b60006020828403121561272b5761272a6120fb565b5b600082013567ffffffffffffffff81111561274957612748612100565b5b612755848285016126e7565b91505092915050565b600067ffffffffffffffff82169050919050565b61277b8161275e565b811461278657600080fd5b50565b60008135905061279881612772565b92915050565b6000806000606084860312156127b7576127b66120fb565b5b60006127c58682870161229c565b93505060206127d686828701612351565b92505060406127e786828701612789565b9150509250925092565b60008060408385031215612808576128076120fb565b5b600061281685828601612351565b925050602061282785828601612351565b9150509250929050565b7f4e487b7100000000000000000000000000000000000000000000000000000000600052602260045260246000fd5b6000600282049050600182168061287857607f821691505b60208210810361288b5761288a612831565b5b50919050565b7f4552433732313a20617070726f76616c20746f2063757272656e74206f776e6560008201527f7200000000000000000000000000000000000000000000000000000000000000602082015250565b60006128ed6021836121cb565b91506128f882612891565b604082019050919050565b6000602082019050818103600083015261291c816128e0565b9050919050565b7f4552433732313a20617070726f76652063616c6c6572206973206e6f7420746f60008201527f6b656e206f776e6572206f7220617070726f76656420666f7220616c6c000000602082015250565b600061297f603d836121cb565b915061298a82612923565b604082019050919050565b600060208201905081810360008301526129ae81612972565b9050919050565b7f4552433732313a2063616c6c6572206973206e6f7420746f6b656e206f776e6560008201527f72206f7220617070726f76656400000000000000000000000000000000000000602082015250565b6000612a11602d836121cb565b9150612a1c826129b5565b604082019050919050565b60006020820190508181036000830152612a4081612a04565b9050919050565b7f4552433732313a20696e76616c696420746f6b656e2049440000000000000000600082015250565b6000612a7d6018836121cb565b9150612a8882612a47565b602082019050919050565b60006020820190508181036000830152612aac81612a70565b9050919050565b7f4552433732313a2061646472657373207a65726f206973206e6f74206120766160008201527f6c6964206f776e65720000000000000000000000000000000000000000000000602082015250565b6000612b0f6029836121cb565b9150612b1a82612ab3565b604082019050919050565b60006020820190508181036000830152612b3e81612b02565b9050919050565b600081905092915050565b6000612b5b826121c0565b612b658185612b45565b9350612b758185602086016121dc565b80840191505092915050565b6000612b8d8285612b50565b9150612b998284612b50565b91508190509392505050565b7f4552433732313a207472616e736665722063616c6c6572206973206e6f74206f60008201527f776e6572206e6f7220617070726f766564000000000000000000000000000000602082015250565b6000612c016031836121cb565b9150612c0c82612ba5565b604082019050919050565b60006020820190508181036000830152612c3081612bf4565b9050919050565b612c408161275e565b82525050565b6000602082019050612c5b6000830184612c37565b92915050565b7f4552433732313a207472616e736665722066726f6d20696e636f72726563742060008201527f6f776e6572000000000000000000000000000000000000000000000000000000602082015250565b6000612cbd6025836121cb565b9150612cc882612c61565b604082019050919050565b60006020820190508181036000830152612cec81612cb0565b9050919050565b7f4552433732313a207472616e7366657220746f20746865207a65726f2061646460008201527f7265737300000000000000000000000000000000000000000000000000000000602082015250565b6000612d4f6024836121cb565b9150612d5a82612cf3565b604082019050919050565b60006020820190508181036000830152612d7e81612d42565b9050919050565b7f4552433732313a20617070726f766520746f2063616c6c657200000000000000600082015250565b6000612dbb6019836121cb565b9150612dc682612d85565b602082019050919050565b60006020820190508181036000830152612dea81612dae565b9050919050565b7f4552433732313a207472616e7366657220746f206e6f6e20455243373231526560008201527f63656976657220696d706c656d656e7465720000000000000000000000000000602082015250565b6000612e4d6032836121cb565b9150612e5882612df1565b604082019050919050565b60006020820190508181036000830152612e7c81612e40565b9050919050565b7f45524337323155524953746f726167653a2055524920736574206f66206e6f6e60008201527f6578697374656e7420746f6b656e000000000000000000000000000000000000602082015250565b6000612edf602e836121cb565b9150612eea82612e83565b604082019050919050565b60006020820190508181036000830152612f0e81612ed2565b9050919050565b60008190508160005260206000209050919050565b60006020601f8301049050919050565b600082821b905092915050565b600060088302612f777fffffffffffffffffffffffffffffffffffffffffffffffffffffffffffffffff82612f3a565b612f818683612f3a565b95508019841693508086168417925050509392505050565b6000819050919050565b6000612fbe612fb9612fb48461227b565b612f99565b61227b565b9050919050565b6000819050919050565b612fd883612fa3565b612fec612fe482612fc5565b848454612f47565b825550505050565b600090565b613001612ff4565b61300c818484612fcf565b505050565b5b8181101561303057613025600082612ff9565b600181019050613012565b5050565b601f8211156130755761304681612f15565b61304f84612f2a565b8101602085101561305e578190505b61307261306a85612f2a565b830182613011565b50505b505050565b600082821c905092915050565b60006130986000198460080261307a565b1980831691505092915050565b60006130b18383613087565b9150826002028217905092915050565b6130ca826121c0565b67ffffffffffffffff8111156130e3576130e26124c6565b5b6130ed8254612860565b6130f8828285613034565b600060209050601f83116001811461312b5760008415613119578287015190505b61312385826130a5565b86555061318b565b601f19841661313986612f15565b60005b828110156131615784890151825560018201915060208501945060208101905061313c565b8683101561317e578489015161317a601f891682613087565b8355505b6001600288020188555050505b505050505050565b6000819050919050565b60006131b86131b36131ae84613193565b612f99565b61275e565b9050919050565b6131c88161319d565b82525050565b60006020820190506131e360008301846131bf565b92915050565b600081519050919050565b600082825260208201905092915050565b6000613210826131e9565b61321a81856131f4565b935061322a8185602086016121dc565b6132338161220f565b840191505092915050565b60006080820190506132536000830187612310565b6132606020830186612310565b61326d6040830185612426565b818103606083015261327f8184613205565b905095945050505050565b60008151905061329981612131565b92915050565b6000602082840312156132b5576132b46120fb565b5b60006132c38482850161328a565b91505092915050565b7f4e487b7100000000000000000000000000000000000000000000000000000000600052601260045260246000fd5b7f4e487b7100000000000000000000000000000000000000000000000000000000600052601160045260246000fd5b60006133358261227b565b91506133408361227b565b925082821015613353576133526132fb565b5b828203905092915050565b60006133698261227b565b91506133748361227b565b9250827fffffffffffffffffffffffffffffffffffffffffffffffffffffffffffffffff038211156133a9576133a86132fb565b5b828201905092915050565b7f4552433732313a206d696e7420746f20746865207a65726f2061646472657373600082015250565b60006133ea6020836121cb565b91506133f5826133b4565b602082019050919050565b60006020820190508181036000830152613419816133dd565b9050919050565b7f4552433732313a20746f6b656e20616c7265616479206d696e74656400000000600082015250565b6000613456601c836121cb565b915061346182613420565b602082019050919050565b6000602082019050818103600083015261348581613449565b905091905056fea264697066735822122050b1da7ee222ac5ea8af43a4b8f8baf92e8d29e97f327f2c416133785ba1c2dc64736f6c634300080f0033",
  "immutableReferences": {},
  "source": "// SPDX-License-Identifier: MIT\npragma solidity >=0.4.22 <0.9.0;\n\nimport \"../ERC4907.sol\";\nimport \"@openzeppelin/contracts/utils/Counters.sol\";\n\ncontract ERC4907_RentableService is ERC4907 {\n  using Counters for Counters.Counter;\n  Counters.Counter private _tokenIds;\n\n  constructor() ERC4907(\"RentablePets\", \"RP\") {}\n\n  function mint(string memory _tokenURI) public \n      virtual returns (uint256) {\n    _tokenIds.increment();\n    uint256 newTokenId = _tokenIds.current();\n    _safeMint(msg.sender, newTokenId);\n    _setTokenURI(newTokenId, _tokenURI);\n    return newTokenId;\n  }\n\n  function burn(uint256 tokenId) public {\n    _burn(tokenId);\n  }\n}\n\n// Source: https://trufflesuite.com/guides/rentable-nft/",
  "sourcePath": "/Users/stephan.gerbeth/dev/rentable-nft-marketplace/contracts/ERC4907/RentableService.sol",
  "compiler": {
    "name": "solc",
    "version": "0.8.15+commit.e14f2714.Emscripten.clang"
  },
  "schemaVersion": "3.4.13",
  "updatedAt": "2023-04-23T10:47:10.799Z",
  "devdoc": {
    "kind": "dev",
    "methods": {
      "approve(address,uint256)": {
        "details": "See {IERC721-approve}."
      },
      "balanceOf(address)": {
        "details": "See {IERC721-balanceOf}."
      },
      "getApproved(uint256)": {
        "details": "See {IERC721-getApproved}."
      },
      "isApprovedForAll(address,address)": {
        "details": "See {IERC721-isApprovedForAll}."
      },
      "name()": {
        "details": "See {IERC721Metadata-name}."
      },
      "ownerOf(uint256)": {
        "details": "See {IERC721-ownerOf}."
      },
      "safeTransferFrom(address,address,uint256)": {
        "details": "See {IERC721-safeTransferFrom}."
      },
      "safeTransferFrom(address,address,uint256,bytes)": {
        "details": "See {IERC721-safeTransferFrom}."
      },
      "setApprovalForAll(address,bool)": {
        "details": "See {IERC721-setApprovalForAll}."
      },
      "setUser(uint256,address,uint64)": {
        "details": "The zero address indicates there is no user Throws if `tokenId` is not valid NFT",
        "params": {
          "expires": "UNIX timestamp, The new user could use the NFT before expires",
          "user": "The new user of the NFT"
        }
      },
      "supportsInterface(bytes4)": {
        "details": "See {IERC165-supportsInterface}."
      },
      "symbol()": {
        "details": "See {IERC721Metadata-symbol}."
      },
      "tokenURI(uint256)": {
        "details": "See {IERC721Metadata-tokenURI}."
      },
      "transferFrom(address,address,uint256)": {
        "details": "See {IERC721-transferFrom}."
      },
      "userExpires(uint256)": {
        "details": "The zero value indicates that there is no user",
        "params": {
          "tokenId": "The NFT to get the user expires for"
        },
        "returns": {
          "_0": "The user expires for this NFT"
        }
      },
      "userOf(uint256)": {
        "details": "The zero address indicates that there is no user or the user is expired",
        "params": {
          "tokenId": "The NFT to get the user address for"
        },
        "returns": {
          "_0": "The user address for this NFT"
        }
      }
    },
    "version": 1
  },
  "userdoc": {
    "events": {
      "UpdateUser(uint256,address,uint64)": {
        "notice": "Emitted when the `user` of an NFT or the `expires` of the `user` is changed The zero address for user indicates that there is no user address"
      }
    },
    "kind": "user",
    "methods": {
      "setUser(uint256,address,uint64)": {
        "notice": "set the user and expires of a NFT"
      },
      "userExpires(uint256)": {
        "notice": "Get the user expires of an NFT"
      },
      "userOf(uint256)": {
        "notice": "Get the user address of an NFT"
      }
    },
    "version": 1
  }
}