{
  "contractName": "Marketplace",
  "abi": [
    {
      "inputs": [
        {
          "internalType": "contract MinimalForwarder",
          "name": "forwarder",
          "type": "address"
        }
      ],
      "stateMutability": "nonpayable",
      "type": "constructor"
    },
    {
      "anonymous": false,
      "inputs": [
        {
          "indexed": false,
          "internalType": "address",
          "name": "owner",
          "type": "address"
        },
        {
          "indexed": false,
          "internalType": "address",
          "name": "user",
          "type": "address"
        },
        {
          "indexed": false,
          "internalType": "address",
          "name": "nftContract",
          "type": "address"
        },
        {
          "indexed": false,
          "internalType": "uint256",
          "name": "tokenId",
          "type": "uint256"
        },
        {
          "indexed": false,
          "internalType": "uint256",
          "name": "pricePerDay",
          "type": "uint256"
        },
        {
          "indexed": false,
          "internalType": "uint256",
          "name": "startDateUNIX",
          "type": "uint256"
        },
        {
          "indexed": false,
          "internalType": "uint256",
          "name": "endDateUNIX",
          "type": "uint256"
        },
        {
          "indexed": false,
          "internalType": "uint256",
          "name": "expires",
          "type": "uint256"
        }
      ],
      "name": "NFTListed",
      "type": "event"
    },
    {
      "anonymous": false,
      "inputs": [
        {
          "indexed": false,
          "internalType": "address",
          "name": "owner",
          "type": "address"
        },
        {
          "indexed": false,
          "internalType": "address",
          "name": "user",
          "type": "address"
        },
        {
          "indexed": false,
          "internalType": "address",
          "name": "nftContract",
          "type": "address"
        },
        {
          "indexed": false,
          "internalType": "uint256",
          "name": "tokenId",
          "type": "uint256"
        },
        {
          "indexed": false,
          "internalType": "uint256",
          "name": "startDateUNIX",
          "type": "uint256"
        },
        {
          "indexed": false,
          "internalType": "uint256",
          "name": "endDateUNIX",
          "type": "uint256"
        },
        {
          "indexed": false,
          "internalType": "uint64",
          "name": "expires",
          "type": "uint64"
        },
        {
          "indexed": false,
          "internalType": "uint256",
          "name": "rentalFee",
          "type": "uint256"
        }
      ],
      "name": "NFTRented",
      "type": "event"
    },
    {
      "anonymous": false,
      "inputs": [
        {
          "indexed": false,
          "internalType": "address",
          "name": "unlistSender",
          "type": "address"
        },
        {
          "indexed": false,
          "internalType": "address",
          "name": "nftContract",
          "type": "address"
        },
        {
          "indexed": false,
          "internalType": "uint256",
          "name": "tokenId",
          "type": "uint256"
        },
        {
          "indexed": false,
          "internalType": "uint256",
          "name": "refund",
          "type": "uint256"
        }
      ],
      "name": "NFTUnlisted",
      "type": "event"
    },
    {
      "inputs": [
        {
          "internalType": "address",
          "name": "forwarder",
          "type": "address"
        }
      ],
      "name": "isTrustedForwarder",
      "outputs": [
        {
          "internalType": "bool",
          "name": "",
          "type": "bool"
        }
      ],
      "stateMutability": "view",
      "type": "function",
      "constant": true
    },
    {
      "inputs": [
        {
          "internalType": "address",
          "name": "nftContract",
          "type": "address"
        },
        {
          "internalType": "uint256",
          "name": "tokenId",
          "type": "uint256"
        },
        {
          "internalType": "uint256",
          "name": "pricePerDay",
          "type": "uint256"
        },
        {
          "internalType": "uint256",
          "name": "startDateUNIX",
          "type": "uint256"
        },
        {
          "internalType": "uint256",
          "name": "endDateUNIX",
          "type": "uint256"
        }
      ],
      "name": "listNFT",
      "outputs": [],
      "stateMutability": "payable",
      "type": "function",
      "payable": true
    },
    {
      "inputs": [
        {
          "internalType": "address",
          "name": "nftContract",
          "type": "address"
        }
      ],
      "name": "isRentableNFT",
      "outputs": [
        {
          "internalType": "bool",
          "name": "",
          "type": "bool"
        }
      ],
      "stateMutability": "view",
      "type": "function",
      "constant": true
    },
    {
      "inputs": [
        {
          "internalType": "address",
          "name": "nftContract",
          "type": "address"
        },
        {
          "internalType": "uint256",
          "name": "tokenId",
          "type": "uint256"
        },
        {
          "internalType": "uint64",
          "name": "expires",
          "type": "uint64"
        }
      ],
      "name": "rentNFT",
      "outputs": [],
      "stateMutability": "payable",
      "type": "function",
      "payable": true
    },
    {
      "inputs": [
        {
          "internalType": "address",
          "name": "nftContract",
          "type": "address"
        },
        {
          "internalType": "uint256",
          "name": "tokenId",
          "type": "uint256"
        }
      ],
      "name": "unlistNFT",
      "outputs": [],
      "stateMutability": "payable",
      "type": "function",
      "payable": true
    },
    {
      "inputs": [],
      "name": "getAllListings",
      "outputs": [
        {
          "components": [
            {
              "internalType": "address",
              "name": "owner",
              "type": "address"
            },
            {
              "internalType": "address",
              "name": "user",
              "type": "address"
            },
            {
              "internalType": "address",
              "name": "nftContract",
              "type": "address"
            },
            {
              "internalType": "uint256",
              "name": "tokenId",
              "type": "uint256"
            },
            {
              "internalType": "uint256",
              "name": "pricePerDay",
              "type": "uint256"
            },
            {
              "internalType": "uint256",
              "name": "startDateUNIX",
              "type": "uint256"
            },
            {
              "internalType": "uint256",
              "name": "endDateUNIX",
              "type": "uint256"
            },
            {
              "internalType": "uint256",
              "name": "expires",
              "type": "uint256"
            }
          ],
          "internalType": "struct Marketplace.Listing[]",
          "name": "",
          "type": "tuple[]"
        }
      ],
      "stateMutability": "view",
      "type": "function",
      "constant": true
    },
    {
      "inputs": [],
      "name": "getListingFee",
      "outputs": [
        {
          "internalType": "uint256",
          "name": "",
          "type": "uint256"
        }
      ],
      "stateMutability": "view",
      "type": "function",
      "constant": true
    }
  ],
  "bytecode": "0x60a060405266038d7ea4c680006003553480156200001c57600080fd5b506040516200319e3803806200319e8339818101604052810190620000429190620001e1565b808073ffffffffffffffffffffffffffffffffffffffff1660808173ffffffffffffffffffffffffffffffffffffffff168152505050600160008190555062000090620000d760201b60201c565b600260006101000a81548173ffffffffffffffffffffffffffffffffffffffff021916908373ffffffffffffffffffffffffffffffffffffffff1602179055505062000213565b6000620000ea336200012160201b60201c565b156200010057601436033560601c90506200011d565b620001156200015b60201b620016e51760201c565b90506200011e565b5b90565b600060805173ffffffffffffffffffffffffffffffffffffffff168273ffffffffffffffffffffffffffffffffffffffff16149050919050565b600033905090565b600080fd5b600073ffffffffffffffffffffffffffffffffffffffff82169050919050565b6000620001958262000168565b9050919050565b6000620001a98262000188565b9050919050565b620001bb816200019c565b8114620001c757600080fd5b50565b600081519050620001db81620001b0565b92915050565b600060208284031215620001fa57620001f962000163565b5b60006200020a84828501620001ca565b91505092915050565b608051612f6f6200022f600039600061019d0152612f6f6000f3fe6080604052600436106100705760003560e01c80639a34f0031161004e5780639a34f003146100ea578063ae73ccec14610106578063b8fe6abe14610131578063e9a6f4f61461015c57610070565b8063572b6c05146100755780637e943afd146100b25780637fc27efd146100ce575b600080fd5b34801561008157600080fd5b5061009c60048036038101906100979190611e02565b610199565b6040516100a99190611e4a565b60405180910390f35b6100cc60048036038101906100c79190611e9b565b6101f1565b005b6100e860048036038101906100e39190611f16565b6108cd565b005b61010460048036038101906100ff9190611f96565b610e6c565b005b34801561011257600080fd5b5061011b611275565b6040516101289190612159565b60405180910390f35b34801561013d57600080fd5b50610146611572565b604051610153919061218a565b60405180910390f35b34801561016857600080fd5b50610183600480360381019061017e9190611e02565b61157c565b6040516101909190611e4a565b60405180910390f35b60007f000000000000000000000000000000000000000000000000000000000000000073ffffffffffffffffffffffffffffffffffffffff168273ffffffffffffffffffffffffffffffffffffffff16149050919050565b6101f96116ed565b6102028561157c565b610241576040517f08c379a000000000000000000000000000000000000000000000000000000000815260040161023890612202565b60405180910390fd5b61024961173c565b73ffffffffffffffffffffffffffffffffffffffff168573ffffffffffffffffffffffffffffffffffffffff16636352211e866040518263ffffffff1660e01b8152600401610298919061218a565b602060405180830381865afa1580156102b5573d6000803e3d6000fd5b505050506040513d601f19601f820116820180604052508101906102d99190612237565b73ffffffffffffffffffffffffffffffffffffffff161461032f576040517f08c379a0000000000000000000000000000000000000000000000000000000008152600401610326906122b0565b60405180910390fd5b600354341461033d3461176e565b61034860035461176e565b6040516020016103599291906123bc565b604051602081830303815290604052906103a9576040517f08c379a00000000000000000000000000000000000000000000000000000000081526004016103a09190612435565b60405180910390fd5b50600083116103ed576040517f08c379a00000000000000000000000000000000000000000000000000000000081526004016103e4906124c9565b60405180910390fd5b42821015610430576040517f08c379a000000000000000000000000000000000000000000000000000000000815260040161042790612535565b60405180910390fd5b81811015610473576040517f08c379a000000000000000000000000000000000000000000000000000000000815260040161046a906125c7565b60405180910390fd5b600073ffffffffffffffffffffffffffffffffffffffff16600460008773ffffffffffffffffffffffffffffffffffffffff1673ffffffffffffffffffffffffffffffffffffffff168152602001908152602001600020600086815260200190815260200160002060020160009054906101000a900473ffffffffffffffffffffffffffffffffffffffff1673ffffffffffffffffffffffffffffffffffffffff1614610555576040517f08c379a000000000000000000000000000000000000000000000000000000000815260040161054c90612633565b60405180910390fd5b600260009054906101000a900473ffffffffffffffffffffffffffffffffffffffff1673ffffffffffffffffffffffffffffffffffffffff166108fc6003549081150290604051600060405180830381858888f193505050501580156105bf573d6000803e3d6000fd5b506040518061010001604052806105d461173c565b73ffffffffffffffffffffffffffffffffffffffff168152602001600073ffffffffffffffffffffffffffffffffffffffff1681526020018673ffffffffffffffffffffffffffffffffffffffff1681526020018581526020018481526020018381526020018281526020016000815250600460008773ffffffffffffffffffffffffffffffffffffffff1673ffffffffffffffffffffffffffffffffffffffff168152602001908152602001600020600086815260200190815260200160002060008201518160000160006101000a81548173ffffffffffffffffffffffffffffffffffffffff021916908373ffffffffffffffffffffffffffffffffffffffff16021790555060208201518160010160006101000a81548173ffffffffffffffffffffffffffffffffffffffff021916908373ffffffffffffffffffffffffffffffffffffffff16021790555060408201518160020160006101000a81548173ffffffffffffffffffffffffffffffffffffffff021916908373ffffffffffffffffffffffffffffffffffffffff160217905550606082015181600301556080820151816004015560a0820151816005015560c0820151816006015560e082015181600701559050506107a9600161183c565b6107f1600560008773ffffffffffffffffffffffffffffffffffffffff1673ffffffffffffffffffffffffffffffffffffffff16815260200190815260200160002085611852565b506107fd60068661186c565b507f51961ff716bd7d3e30c6869dae4d4c0f9e0c6abbae1aa5887f3f6fa8d68f34df8573ffffffffffffffffffffffffffffffffffffffff16636352211e866040518263ffffffff1660e01b8152600401610858919061218a565b602060405180830381865afa158015610875573d6000803e3d6000fd5b505050506040513d601f19601f820116820180604052508101906108999190612237565b6000878787878760006040516108b69897969594939291906126a7565b60405180910390a16108c661189c565b5050505050565b6108d56116ed565b6000600460008473ffffffffffffffffffffffffffffffffffffffff1673ffffffffffffffffffffffffffffffffffffffff16815260200190815260200160002060008381526020019081526020016000209050600073ffffffffffffffffffffffffffffffffffffffff168160000160009054906101000a900473ffffffffffffffffffffffffffffffffffffffff1673ffffffffffffffffffffffffffffffffffffffff16036109bc576040517f08c379a00000000000000000000000000000000000000000000000000000000081526004016109b390612771565b60405180910390fd5b6109c461173c565b73ffffffffffffffffffffffffffffffffffffffff168160000160009054906101000a900473ffffffffffffffffffffffffffffffffffffffff1673ffffffffffffffffffffffffffffffffffffffff161480610a755750610a2461173c565b73ffffffffffffffffffffffffffffffffffffffff16600260009054906101000a900473ffffffffffffffffffffffffffffffffffffffff1673ffffffffffffffffffffffffffffffffffffffff16145b610ab4576040517f08c379a0000000000000000000000000000000000000000000000000000000008152600401610aab906127dd565b60405180910390fd5b60008073ffffffffffffffffffffffffffffffffffffffff168260010160009054906101000a900473ffffffffffffffffffffffffffffffffffffffff1673ffffffffffffffffffffffffffffffffffffffff1614610c0c57816004015460016018603c80428760070154610b29919061282c565b610b33919061288f565b610b3d919061288f565b610b47919061288f565b610b5191906128c0565b610b5b9190612916565b905080341015610ba0576040517f08c379a0000000000000000000000000000000000000000000000000000000008152600401610b97906129bc565b60405180910390fd5b8160010160009054906101000a900473ffffffffffffffffffffffffffffffffffffffff1673ffffffffffffffffffffffffffffffffffffffff166108fc829081150290604051600060405180830381858888f19350505050158015610c0a573d6000803e3d6000fd5b505b8373ffffffffffffffffffffffffffffffffffffffff1663e030565e846000806040518463ffffffff1660e01b8152600401610c4a93929190612a0d565b600060405180830381600087803b158015610c6457600080fd5b505af1158015610c78573d6000803e3d6000fd5b50505050610cc4600560008673ffffffffffffffffffffffffffffffffffffffff1673ffffffffffffffffffffffffffffffffffffffff168152602001908152602001600020846118a6565b50600460008573ffffffffffffffffffffffffffffffffffffffff1673ffffffffffffffffffffffffffffffffffffffff1681526020019081526020016000206000848152602001908152602001600020600080820160006101000a81549073ffffffffffffffffffffffffffffffffffffffff02191690556001820160006101000a81549073ffffffffffffffffffffffffffffffffffffffff02191690556002820160006101000a81549073ffffffffffffffffffffffffffffffffffffffff02191690556003820160009055600482016000905560058201600090556006820160009055600782016000905550506000610dfe600560008773ffffffffffffffffffffffffffffffffffffffff1673ffffffffffffffffffffffffffffffffffffffff1681526020019081526020016000206118c0565b03610e1057610e0e6006856118d5565b505b610e1a6001611905565b7f6d7362d1e96e1739a576062b58d2055c5f8f9b50bf703c53b1c26cd3a82548c6610e4361173c565b858584604051610e569493929190612a44565b60405180910390a15050610e6861189c565b5050565b610e746116ed565b6000600460008573ffffffffffffffffffffffffffffffffffffffff1673ffffffffffffffffffffffffffffffffffffffff16815260200190815260200160002060008481526020019081526020016000209050600073ffffffffffffffffffffffffffffffffffffffff168160010160009054906101000a900473ffffffffffffffffffffffffffffffffffffffff1673ffffffffffffffffffffffffffffffffffffffff161480610f2a5750806007015442115b610f69576040517f08c379a0000000000000000000000000000000000000000000000000000000008152600401610f6090612ad5565b60405180910390fd5b80600601548267ffffffffffffffff161115610fba576040517f08c379a0000000000000000000000000000000000000000000000000000000008152600401610fb190612b67565b60405180910390fd5b600060016018603c80428767ffffffffffffffff16610fd9919061282c565b610fe3919061288f565b610fed919061288f565b610ff7919061288f565b61100191906128c0565b905060008183600401546110159190612916565b90508034101561105a576040517f08c379a000000000000000000000000000000000000000000000000000000000815260040161105190612bf9565b60405180910390fd5b8260000160009054906101000a900473ffffffffffffffffffffffffffffffffffffffff1673ffffffffffffffffffffffffffffffffffffffff166108fc829081150290604051600060405180830381858888f193505050501580156110c4573d6000803e3d6000fd5b508573ffffffffffffffffffffffffffffffffffffffff1663e030565e866110ea61173c565b876040518463ffffffff1660e01b815260040161110993929190612c28565b600060405180830381600087803b15801561112357600080fd5b505af1158015611137573d6000803e3d6000fd5b5050505061114361173c565b8360010160006101000a81548173ffffffffffffffffffffffffffffffffffffffff021916908373ffffffffffffffffffffffffffffffffffffffff1602179055508367ffffffffffffffff1683600701819055507f9e281a126f51088cc2a404608130a64cb50df5e046d30d0540344ef4f1b6ec2a8673ffffffffffffffffffffffffffffffffffffffff16636352211e876040518263ffffffff1660e01b81526004016111f2919061218a565b602060405180830381865afa15801561120f573d6000803e3d6000fd5b505050506040513d601f19601f820116820180604052508101906112339190612237565b61123b61173c565b8888876005015488600601548a8860405161125d989796959493929190612c5f565b60405180910390a150505061127061189c565b505050565b606060006112836001611961565b67ffffffffffffffff81111561129c5761129b612cdd565b5b6040519080825280602002602001820160405280156112d557816020015b6112c2611d18565b8152602001906001900390816112ba5790505b5090506000806112e5600661196f565b905060005b815181101561156857600082828151811061130857611307612d0c565b5b60200260200101519050600061135b600560008473ffffffffffffffffffffffffffffffffffffffff1673ffffffffffffffffffffffffffffffffffffffff168152602001908152602001600020611990565b905060005b815181101561155257600460008473ffffffffffffffffffffffffffffffffffffffff1673ffffffffffffffffffffffffffffffffffffffff16815260200190815260200160002060008383815181106113bd576113bc612d0c565b5b60200260200101518152602001908152602001600020604051806101000160405290816000820160009054906101000a900473ffffffffffffffffffffffffffffffffffffffff1673ffffffffffffffffffffffffffffffffffffffff1673ffffffffffffffffffffffffffffffffffffffff1681526020016001820160009054906101000a900473ffffffffffffffffffffffffffffffffffffffff1673ffffffffffffffffffffffffffffffffffffffff1673ffffffffffffffffffffffffffffffffffffffff1681526020016002820160009054906101000a900473ffffffffffffffffffffffffffffffffffffffff1673ffffffffffffffffffffffffffffffffffffffff1673ffffffffffffffffffffffffffffffffffffffff1681526020016003820154815260200160048201548152602001600582015481526020016006820154815260200160078201548152505087878151811061152657611525612d0c565b5b6020026020010181905250858061153c90612d3b565b965050808061154a90612d3b565b915050611360565b505050808061156090612d3b565b9150506112ea565b5082935050505090565b6000600354905090565b6000806000905060008373ffffffffffffffffffffffffffffffffffffffff166301ffc9a77fad092b5c000000000000000000000000000000000000000000000000000000006040518263ffffffff1660e01b81526004016115de9190612dbe565b602060405180830381865afa92505050801561161857506040513d601f19601f820116820180604052508101906116159190612e05565b60015b611627576000925050506116e0565b809250508373ffffffffffffffffffffffffffffffffffffffff166301ffc9a77f80ac58cd000000000000000000000000000000000000000000000000000000006040518263ffffffff1660e01b81526004016116849190612dbe565b602060405180830381865afa9250505080156116be57506040513d601f19601f820116820180604052508101906116bb9190612e05565b60015b6116cd576000925050506116e0565b809150508180156116db5750805b925050505b919050565b600033905090565b600260005403611732576040517f08c379a000000000000000000000000000000000000000000000000000000000815260040161172990612e7e565b60405180910390fd5b6002600081905550565b600061174733610199565b1561175b57601436033560601c905061176a565b6117636116e5565b905061176b565b5b90565b60606000600161177d846119b1565b01905060008167ffffffffffffffff81111561179c5761179b612cdd565b5b6040519080825280601f01601f1916602001820160405280156117ce5781602001600182028036833780820191505090505b509050600082602001820190505b600115611831578080600190039150507f3031323334353637383961626364656600000000000000000000000000000000600a86061a8153600a858161182557611824612860565b5b049450600085036117dc575b819350505050919050565b6001816000016000828254019250508190555050565b6000611864836000018360001b611b04565b905092915050565b6000611894836000018373ffffffffffffffffffffffffffffffffffffffff1660001b611b04565b905092915050565b6001600081905550565b60006118b8836000018360001b611b74565b905092915050565b60006118ce82600001611c88565b9050919050565b60006118fd836000018373ffffffffffffffffffffffffffffffffffffffff1660001b611b74565b905092915050565b60008160000154905060008111611951576040517f08c379a000000000000000000000000000000000000000000000000000000000815260040161194890612eea565b60405180910390fd5b6001810382600001819055505050565b600081600001549050919050565b6060600061197f83600001611c99565b905060608190508092505050919050565b606060006119a083600001611c99565b905060608190508092505050919050565b600080600090507a184f03e93ff9f4daa797ed6e38ed64bf6a1f0100000000000000008310611a0f577a184f03e93ff9f4daa797ed6e38ed64bf6a1f0100000000000000008381611a0557611a04612860565b5b0492506040810190505b6d04ee2d6d415b85acef81000000008310611a4c576d04ee2d6d415b85acef81000000008381611a4257611a41612860565b5b0492506020810190505b662386f26fc100008310611a7b57662386f26fc100008381611a7157611a70612860565b5b0492506010810190505b6305f5e1008310611aa4576305f5e1008381611a9a57611a99612860565b5b0492506008810190505b6127108310611ac9576127108381611abf57611abe612860565b5b0492506004810190505b60648310611aec5760648381611ae257611ae1612860565b5b0492506002810190505b600a8310611afb576001810190505b80915050919050565b6000611b108383611cf5565b611b69578260000182908060018154018082558091505060019003906000526020600020016000909190919091505582600001805490508360010160008481526020019081526020016000208190555060019050611b6e565b600090505b92915050565b60008083600101600084815260200190815260200160002054905060008114611c7c576000600182611ba6919061282c565b9050600060018660000180549050611bbe919061282c565b9050818114611c2d576000866000018281548110611bdf57611bde612d0c565b5b9060005260206000200154905080876000018481548110611c0357611c02612d0c565b5b90600052602060002001819055508387600101600083815260200190815260200160002081905550505b85600001805480611c4157611c40612f0a565b5b600190038181906000526020600020016000905590558560010160008681526020019081526020016000206000905560019350505050611c82565b60009150505b92915050565b600081600001805490509050919050565b606081600001805480602002602001604051908101604052809291908181526020018280548015611ce957602002820191906000526020600020905b815481526020019060010190808311611cd5575b50505050509050919050565b600080836001016000848152602001908152602001600020541415905092915050565b604051806101000160405280600073ffffffffffffffffffffffffffffffffffffffff168152602001600073ffffffffffffffffffffffffffffffffffffffff168152602001600073ffffffffffffffffffffffffffffffffffffffff16815260200160008152602001600081526020016000815260200160008152602001600081525090565b600080fd5b600073ffffffffffffffffffffffffffffffffffffffff82169050919050565b6000611dcf82611da4565b9050919050565b611ddf81611dc4565b8114611dea57600080fd5b50565b600081359050611dfc81611dd6565b92915050565b600060208284031215611e1857611e17611d9f565b5b6000611e2684828501611ded565b91505092915050565b60008115159050919050565b611e4481611e2f565b82525050565b6000602082019050611e5f6000830184611e3b565b92915050565b6000819050919050565b611e7881611e65565b8114611e8357600080fd5b50565b600081359050611e9581611e6f565b92915050565b600080600080600060a08688031215611eb757611eb6611d9f565b5b6000611ec588828901611ded565b9550506020611ed688828901611e86565b9450506040611ee788828901611e86565b9350506060611ef888828901611e86565b9250506080611f0988828901611e86565b9150509295509295909350565b60008060408385031215611f2d57611f2c611d9f565b5b6000611f3b85828601611ded565b9250506020611f4c85828601611e86565b9150509250929050565b600067ffffffffffffffff82169050919050565b611f7381611f56565b8114611f7e57600080fd5b50565b600081359050611f9081611f6a565b92915050565b600080600060608486031215611faf57611fae611d9f565b5b6000611fbd86828701611ded565b9350506020611fce86828701611e86565b9250506040611fdf86828701611f81565b9150509250925092565b600081519050919050565b600082825260208201905092915050565b6000819050602082019050919050565b61201e81611dc4565b82525050565b61202d81611e65565b82525050565b6101008201600082015161204a6000850182612015565b50602082015161205d6020850182612015565b5060408201516120706040850182612015565b5060608201516120836060850182612024565b5060808201516120966080850182612024565b5060a08201516120a960a0850182612024565b5060c08201516120bc60c0850182612024565b5060e08201516120cf60e0850182612024565b50505050565b60006120e18383612033565b6101008301905092915050565b6000602082019050919050565b600061210682611fe9565b6121108185611ff4565b935061211b83612005565b8060005b8381101561214c57815161213388826120d5565b975061213e836120ee565b92505060018101905061211f565b5085935050505092915050565b6000602082019050818103600083015261217381846120fb565b905092915050565b61218481611e65565b82525050565b600060208201905061219f600083018461217b565b92915050565b600082825260208201905092915050565b7f436f6e7472616374206973206e6f7420616e2045524334393037000000000000600082015250565b60006121ec601a836121a5565b91506121f7826121b6565b602082019050919050565b6000602082019050818103600083015261221b816121df565b9050919050565b60008151905061223181611dd6565b92915050565b60006020828403121561224d5761224c611d9f565b5b600061225b84828501612222565b91505092915050565b7f4e6f74206f776e6572206f66206e667400000000000000000000000000000000600082015250565b600061229a6010836121a5565b91506122a582612264565b602082019050919050565b600060208201905081810360008301526122c98161228d565b9050919050565b600081905092915050565b7f4e6f7420656e6f75676820657468657220666f72206c697374696e672066656560008201527f2000000000000000000000000000000000000000000000000000000000000000602082015250565b60006123376021836122d0565b9150612342826122db565b602182019050919050565b600081519050919050565b60005b8381101561237657808201518184015260208101905061235b565b83811115612385576000848401525b50505050565b60006123968261234d565b6123a081856122d0565b93506123b0818560208601612358565b80840191505092915050565b60006123c78261232a565b91506123d3828561238b565b91506123df828461238b565b91508190509392505050565b6000601f19601f8301169050919050565b60006124078261234d565b61241181856121a5565b9350612421818560208601612358565b61242a816123eb565b840191505092915050565b6000602082019050818103600083015261244f81846123fc565b905092915050565b7f52656e74616c2070726963652073686f756c642062652067726561746572207460008201527f68616e2030000000000000000000000000000000000000000000000000000000602082015250565b60006124b36025836121a5565b91506124be82612457565b604082019050919050565b600060208201905081810360008301526124e2816124a6565b9050919050565b7f537461727420646174652063616e6e6f7420626520696e207468652070617374600082015250565b600061251f6020836121a5565b915061252a826124e9565b602082019050919050565b6000602082019050818103600083015261254e81612512565b9050919050565b7f456e6420646174652063616e6e6f74206265206265666f72652074686520737460008201527f6172742064617465000000000000000000000000000000000000000000000000602082015250565b60006125b16028836121a5565b91506125bc82612555565b604082019050919050565b600060208201905081810360008301526125e0816125a4565b9050919050565b7f54686973204e46542068617320616c7265616479206265656e206c6973746564600082015250565b600061261d6020836121a5565b9150612628826125e7565b602082019050919050565b6000602082019050818103600083015261264c81612610565b9050919050565b61265c81611dc4565b82525050565b6000819050919050565b6000819050919050565b600061269161268c61268784612662565b61266c565b611e65565b9050919050565b6126a181612676565b82525050565b6000610100820190506126bd600083018b612653565b6126ca602083018a612653565b6126d76040830189612653565b6126e4606083018861217b565b6126f1608083018761217b565b6126fe60a083018661217b565b61270b60c083018561217b565b61271860e0830184612698565b9998505050505050505050565b7f54686973204e4654206973206e6f74206c697374656400000000000000000000600082015250565b600061275b6016836121a5565b915061276682612725565b602082019050919050565b6000602082019050818103600083015261278a8161274e565b9050919050565b7f4e6f7420617070726f76656420746f20756e6c697374204e4654000000000000600082015250565b60006127c7601a836121a5565b91506127d282612791565b602082019050919050565b600060208201905081810360008301526127f6816127ba565b9050919050565b7f4e487b7100000000000000000000000000000000000000000000000000000000600052601160045260246000fd5b600061283782611e65565b915061284283611e65565b925082821015612855576128546127fd565b5b828203905092915050565b7f4e487b7100000000000000000000000000000000000000000000000000000000600052601260045260246000fd5b600061289a82611e65565b91506128a583611e65565b9250826128b5576128b4612860565b5b828204905092915050565b60006128cb82611e65565b91506128d683611e65565b9250827fffffffffffffffffffffffffffffffffffffffffffffffffffffffffffffffff0382111561290b5761290a6127fd565b5b828201905092915050565b600061292182611e65565b915061292c83611e65565b9250817fffffffffffffffffffffffffffffffffffffffffffffffffffffffffffffffff0483118215151615612965576129646127fd565b5b828202905092915050565b7f4e6f7420656e6f75676820657468657220746f20636f76657220726566756e64600082015250565b60006129a66020836121a5565b91506129b182612970565b602082019050919050565b600060208201905081810360008301526129d581612999565b9050919050565b60006129f76129f26129ed84612662565b61266c565b611f56565b9050919050565b612a07816129dc565b82525050565b6000606082019050612a22600083018661217b565b612a2f6020830185612653565b612a3c60408301846129fe565b949350505050565b6000608082019050612a596000830187612653565b612a666020830186612653565b612a73604083018561217b565b612a80606083018461217b565b95945050505050565b7f4e465420616c72656164792072656e7465640000000000000000000000000000600082015250565b6000612abf6012836121a5565b9150612aca82612a89565b602082019050919050565b60006020820190508181036000830152612aee81612ab2565b9050919050565b7f52656e74616c20706572696f642065786365656473206d61782064617465207260008201527f656e7461626c6500000000000000000000000000000000000000000000000000602082015250565b6000612b516027836121a5565b9150612b5c82612af5565b604082019050919050565b60006020820190508181036000830152612b8081612b44565b9050919050565b7f4e6f7420656e6f75676820657468657220746f20636f7665722072656e74616c60008201527f20706572696f6400000000000000000000000000000000000000000000000000602082015250565b6000612be36027836121a5565b9150612bee82612b87565b604082019050919050565b60006020820190508181036000830152612c1281612bd6565b9050919050565b612c2281611f56565b82525050565b6000606082019050612c3d600083018661217b565b612c4a6020830185612653565b612c576040830184612c19565b949350505050565b600061010082019050612c75600083018b612653565b612c82602083018a612653565b612c8f6040830189612653565b612c9c606083018861217b565b612ca9608083018761217b565b612cb660a083018661217b565b612cc360c0830185612c19565b612cd060e083018461217b565b9998505050505050505050565b7f4e487b7100000000000000000000000000000000000000000000000000000000600052604160045260246000fd5b7f4e487b7100000000000000000000000000000000000000000000000000000000600052603260045260246000fd5b6000612d4682611e65565b91507fffffffffffffffffffffffffffffffffffffffffffffffffffffffffffffffff8203612d7857612d776127fd565b5b600182019050919050565b60007fffffffff0000000000000000000000000000000000000000000000000000000082169050919050565b612db881612d83565b82525050565b6000602082019050612dd36000830184612daf565b92915050565b612de281611e2f565b8114612ded57600080fd5b50565b600081519050612dff81612dd9565b92915050565b600060208284031215612e1b57612e1a611d9f565b5b6000612e2984828501612df0565b91505092915050565b7f5265656e7472616e637947756172643a207265656e7472616e742063616c6c00600082015250565b6000612e68601f836121a5565b9150612e7382612e32565b602082019050919050565b60006020820190508181036000830152612e9781612e5b565b9050919050565b7f436f756e7465723a2064656372656d656e74206f766572666c6f770000000000600082015250565b6000612ed4601b836121a5565b9150612edf82612e9e565b602082019050919050565b60006020820190508181036000830152612f0381612ec7565b9050919050565b7f4e487b7100000000000000000000000000000000000000000000000000000000600052603160045260246000fdfea2646970667358221220651aaa56acbe255b86b67179e364f6b3c865bca2227257584b1d6b7573a30ede64736f6c634300080f0033",
  "immutableReferences": {
    "127": [
      {
        "length": 32,
        "start": 413
      }
    ]
  },
  "source": "// SPDX-License-Identifier: MIT\npragma solidity >=0.4.22 <0.9.0;\n\nimport \"@openzeppelin/contracts/metatx/ERC2771Context.sol\";\nimport \"@openzeppelin/contracts/metatx/MinimalForwarder.sol\";\nimport \"@openzeppelin/contracts/utils/structs/EnumerableSet.sol\";\nimport \"@openzeppelin/contracts/utils/Counters.sol\";\nimport \"@openzeppelin/contracts/interfaces/IERC165.sol\";\nimport \"@openzeppelin/contracts/security/ReentrancyGuard.sol\";\nimport \"@openzeppelin/contracts/interfaces/IERC721.sol\";\nimport \"@openzeppelin/contracts/utils/Strings.sol\";\nimport \"./IERC4907.sol\";\n\ncontract Marketplace is ERC2771Context, ReentrancyGuard {\n  using Counters for Counters.Counter;\n  using EnumerableSet for EnumerableSet.AddressSet;\n  using EnumerableSet for EnumerableSet.UintSet;\n  Counters.Counter private _nftsListed;\n  address private _marketOwner;\n  uint256 private _listingFee = .001 ether;\n  // maps contract address to token id to properties of the rental listing\n  mapping(address => mapping(uint256 => Listing)) private _listingMap;\n  // maps nft contracts to set of the tokens that are listed\n  mapping(address => EnumerableSet.UintSet) private _nftContractTokensMap;\n  // tracks the nft contracts that have been listed\n  EnumerableSet.AddressSet private _nftContracts;\n  struct Listing {\n      address owner;\n      address user;\n      address nftContract;\n      uint256 tokenId;\n      uint256 pricePerDay;\n      uint256 startDateUNIX; // when the nft can start being rented\n      uint256 endDateUNIX; // when the nft can no longer be rented\n      uint256 expires; // when the user can no longer rent it\n  }\n  event NFTListed(\n      address owner,\n      address user,\n      address nftContract,\n      uint256 tokenId,\n      uint256 pricePerDay,\n      uint256 startDateUNIX,\n      uint256 endDateUNIX,\n      uint256 expires\n  );\n  event NFTRented(\n      address owner,\n      address user,\n      address nftContract,\n      uint256 tokenId,\n      uint256 startDateUNIX,\n      uint256 endDateUNIX,\n      uint64 expires,\n      uint256 rentalFee\n  );\n  event NFTUnlisted(\n      address unlistSender,\n      address nftContract,\n      uint256 tokenId,\n      uint256 refund\n  );\n\n  constructor(MinimalForwarder forwarder) ERC2771Context(address(forwarder)) {\n      _marketOwner = _msgSender();\n  }\n\n  // function to list NFT for rental\n  function listNFT(\n      address nftContract,\n      uint256 tokenId,\n      uint256 pricePerDay,\n      uint256 startDateUNIX,\n      uint256 endDateUNIX\n  ) public payable nonReentrant {\n      require(isRentableNFT(nftContract), \"Contract is not an ERC4907\");\n      require(IERC721(nftContract).ownerOf(tokenId) == _msgSender(), \"Not owner of nft\");\n      require(msg.value == _listingFee, string.concat(\"Not enough ether for listing fee \", Strings.toString(msg.value), Strings.toString(_listingFee)));\n      require(pricePerDay > 0, \"Rental price should be greater than 0\");\n      require(startDateUNIX >= block.timestamp, \"Start date cannot be in the past\");\n      require(endDateUNIX >= startDateUNIX, \"End date cannot be before the start date\");\n      require(_listingMap[nftContract][tokenId].nftContract == address(0), \"This NFT has already been listed\");\n      \n      payable(_marketOwner).transfer(_listingFee);\n      _listingMap[nftContract][tokenId] = Listing(\n          _msgSender(),\n          address(0),\n          nftContract,\n          tokenId,\n          pricePerDay,\n          startDateUNIX,\n          endDateUNIX,\n          0\n      );\n      _nftsListed.increment();\n      EnumerableSet.add(_nftContractTokensMap[nftContract], tokenId);\n      EnumerableSet.add(_nftContracts, nftContract);\n      emit NFTListed(\n          IERC721(nftContract).ownerOf(tokenId),\n          address(0),\n          nftContract,\n          tokenId,\n          pricePerDay,\n          startDateUNIX,\n          endDateUNIX,\n          0\n      );\n    }\n\n    function isRentableNFT(address nftContract) public view returns (bool) {\n        bool _isRentable = false;\n        bool _isNFT = false;\n        try IERC165(nftContract).supportsInterface(type(IERC4907).interfaceId) returns (bool rentable) {\n            _isRentable = rentable;\n        } catch {\n            return false;\n        }\n        try IERC165(nftContract).supportsInterface(type(IERC721).interfaceId) returns (bool nft) {\n            _isNFT = nft;\n        } catch {\n            return false;\n        }\n        return _isRentable && _isNFT;\n    }\n\n    // function to rent an NFT\n    function rentNFT(\n        address nftContract,\n        uint256 tokenId,\n        uint64 expires\n    ) public payable nonReentrant {\n        Listing storage listing = _listingMap[nftContract][tokenId];\n        require(listing.user == address(0) || block.timestamp > listing.expires, \"NFT already rented\");\n        require(expires <= listing.endDateUNIX, \"Rental period exceeds max date rentable\");\n        // Transfer rental fee\n        uint256 numDays = (expires - block.timestamp)/60/60/24 + 1;\n        uint256 rentalFee = listing.pricePerDay * numDays;\n        require(msg.value >= rentalFee, \"Not enough ether to cover rental period\");\n        payable(listing.owner).transfer(rentalFee);\n        // Update listing\n        IERC4907(nftContract).setUser(tokenId, _msgSender(), expires);\n        listing.user = _msgSender();\n        listing.expires = expires;\n\n        emit NFTRented(\n            IERC721(nftContract).ownerOf(tokenId),\n            _msgSender(),\n            nftContract,\n            tokenId,\n            listing.startDateUNIX,\n            listing.endDateUNIX,\n            expires,\n            rentalFee\n        );\n    }\n\n    // function to unlist your rental, refunding the user for any lost time\n    function unlistNFT(address nftContract, uint256 tokenId) public payable nonReentrant {\n        Listing storage listing = _listingMap[nftContract][tokenId];\n        require(listing.owner != address(0), \"This NFT is not listed\");\n        require(listing.owner == _msgSender() || _marketOwner == _msgSender() , \"Not approved to unlist NFT\");\n        // fee to be returned to user if unlisted before rental period is up\n        // nothing to refund if no renter\n        uint256 refund = 0;\n        if (listing.user != address(0)) {\n            refund = ((listing.expires - block.timestamp) / 60 / 60 / 24 + 1) * listing.pricePerDay;\n            require(msg.value >= refund, \"Not enough ether to cover refund\");\n            payable(listing.user).transfer(refund);\n        }\n        // clean up data\n        IERC4907(nftContract).setUser(tokenId, address(0), 0);\n        EnumerableSet.remove(_nftContractTokensMap[nftContract], tokenId);\n        delete _listingMap[nftContract][tokenId];\n        if (EnumerableSet.length(_nftContractTokensMap[nftContract]) == 0) {\n            EnumerableSet.remove(_nftContracts, nftContract);\n        }\n        _nftsListed.decrement();\n\n        emit NFTUnlisted(\n            _msgSender(),\n            nftContract,\n            tokenId,\n            refund\n        );\n    }\n\n    /* \n    * function to get all listings\n    *\n    * WARNING: This operation will copy the entire storage to memory, which can be quite expensive. This is designed\n    * to mostly be used by view accessors that are queried without any gas fees. Developers should keep in mind that\n    * this function has an unbounded cost, and using it as part of a state-changing function may render the function\n    * uncallable if the set grows to a point where copying to memory consumes too much gas to fit in a block.\n    */\n    function getAllListings() public view returns (Listing[] memory) {\n        Listing[] memory listings = new Listing[](_nftsListed.current());\n        uint256 listingsIndex = 0;\n        address[] memory nftContracts = EnumerableSet.values(_nftContracts);\n        for (uint i = 0; i < nftContracts.length; i++) {\n            address nftAddress = nftContracts[i];\n            uint256[] memory tokens = EnumerableSet.values(_nftContractTokensMap[nftAddress]);\n            for (uint j = 0; j < tokens.length; j++) {\n                listings[listingsIndex] = _listingMap[nftAddress][tokens[j]];\n                listingsIndex++;\n            }\n        }\n        return listings;\n    }\n\n    function getListingFee() public view returns (uint256) {\n        return _listingFee;\n    }\n}\n\n\n",
  "sourcePath": "/Users/stephan.gerbeth/dev/rentable-nft-marketplace/contracts/Marketplace.sol",
  "compiler": {
    "name": "solc",
    "version": "0.8.15+commit.e14f2714.Emscripten.clang"
  },
  "schemaVersion": "3.4.13",
  "updatedAt": "2023-05-14T09:20:46.439Z",
  "networkType": "ethereum",
  "devdoc": {
    "kind": "dev",
    "methods": {},
    "version": 1
  },
  "userdoc": {
    "kind": "user",
    "methods": {},
    "version": 1
  }
}