{
  "contractName": "Marketplace",
  "abi": [
    {
      "inputs": [],
      "stateMutability": "nonpayable",
      "type": "constructor"
    },
    {
      "anonymous": false,
      "inputs": [
        {
          "indexed": false,
          "internalType": "address",
          "name": "owner",
          "type": "address"
        },
        {
          "indexed": false,
          "internalType": "address",
          "name": "user",
          "type": "address"
        },
        {
          "indexed": false,
          "internalType": "address",
          "name": "nftContract",
          "type": "address"
        },
        {
          "indexed": false,
          "internalType": "uint256",
          "name": "tokenId",
          "type": "uint256"
        },
        {
          "indexed": false,
          "internalType": "uint256",
          "name": "pricePerDay",
          "type": "uint256"
        },
        {
          "indexed": false,
          "internalType": "uint256",
          "name": "startDateUNIX",
          "type": "uint256"
        },
        {
          "indexed": false,
          "internalType": "uint256",
          "name": "endDateUNIX",
          "type": "uint256"
        },
        {
          "indexed": false,
          "internalType": "uint256",
          "name": "expires",
          "type": "uint256"
        }
      ],
      "name": "NFTListed",
      "type": "event"
    },
    {
      "anonymous": false,
      "inputs": [
        {
          "indexed": false,
          "internalType": "address",
          "name": "owner",
          "type": "address"
        },
        {
          "indexed": false,
          "internalType": "address",
          "name": "user",
          "type": "address"
        },
        {
          "indexed": false,
          "internalType": "address",
          "name": "nftContract",
          "type": "address"
        },
        {
          "indexed": false,
          "internalType": "uint256",
          "name": "tokenId",
          "type": "uint256"
        },
        {
          "indexed": false,
          "internalType": "uint256",
          "name": "startDateUNIX",
          "type": "uint256"
        },
        {
          "indexed": false,
          "internalType": "uint256",
          "name": "endDateUNIX",
          "type": "uint256"
        },
        {
          "indexed": false,
          "internalType": "uint64",
          "name": "expires",
          "type": "uint64"
        },
        {
          "indexed": false,
          "internalType": "uint256",
          "name": "rentalFee",
          "type": "uint256"
        }
      ],
      "name": "NFTRented",
      "type": "event"
    },
    {
      "anonymous": false,
      "inputs": [
        {
          "indexed": false,
          "internalType": "address",
          "name": "unlistSender",
          "type": "address"
        },
        {
          "indexed": false,
          "internalType": "address",
          "name": "nftContract",
          "type": "address"
        },
        {
          "indexed": false,
          "internalType": "uint256",
          "name": "tokenId",
          "type": "uint256"
        },
        {
          "indexed": false,
          "internalType": "uint256",
          "name": "refund",
          "type": "uint256"
        }
      ],
      "name": "NFTUnlisted",
      "type": "event"
    },
    {
      "inputs": [
        {
          "internalType": "address",
          "name": "nftContract",
          "type": "address"
        },
        {
          "internalType": "uint256",
          "name": "tokenId",
          "type": "uint256"
        },
        {
          "internalType": "uint256",
          "name": "pricePerDay",
          "type": "uint256"
        },
        {
          "internalType": "uint256",
          "name": "startDateUNIX",
          "type": "uint256"
        },
        {
          "internalType": "uint256",
          "name": "endDateUNIX",
          "type": "uint256"
        }
      ],
      "name": "listNFT",
      "outputs": [],
      "stateMutability": "payable",
      "type": "function",
      "payable": true
    },
    {
      "inputs": [
        {
          "internalType": "address",
          "name": "nftContract",
          "type": "address"
        }
      ],
      "name": "isRentableNFT",
      "outputs": [
        {
          "internalType": "bool",
          "name": "",
          "type": "bool"
        }
      ],
      "stateMutability": "view",
      "type": "function",
      "constant": true
    },
    {
      "inputs": [
        {
          "internalType": "address",
          "name": "nftContract",
          "type": "address"
        },
        {
          "internalType": "uint256",
          "name": "tokenId",
          "type": "uint256"
        },
        {
          "internalType": "uint64",
          "name": "expires",
          "type": "uint64"
        }
      ],
      "name": "rentNFT",
      "outputs": [],
      "stateMutability": "payable",
      "type": "function",
      "payable": true
    },
    {
      "inputs": [
        {
          "internalType": "address",
          "name": "nftContract",
          "type": "address"
        },
        {
          "internalType": "uint256",
          "name": "tokenId",
          "type": "uint256"
        }
      ],
      "name": "unlistNFT",
      "outputs": [],
      "stateMutability": "payable",
      "type": "function",
      "payable": true
    },
    {
      "inputs": [],
      "name": "getAllListings",
      "outputs": [
        {
          "components": [
            {
              "internalType": "address",
              "name": "owner",
              "type": "address"
            },
            {
              "internalType": "address",
              "name": "user",
              "type": "address"
            },
            {
              "internalType": "address",
              "name": "nftContract",
              "type": "address"
            },
            {
              "internalType": "uint256",
              "name": "tokenId",
              "type": "uint256"
            },
            {
              "internalType": "uint256",
              "name": "pricePerDay",
              "type": "uint256"
            },
            {
              "internalType": "uint256",
              "name": "startDateUNIX",
              "type": "uint256"
            },
            {
              "internalType": "uint256",
              "name": "endDateUNIX",
              "type": "uint256"
            },
            {
              "internalType": "uint256",
              "name": "expires",
              "type": "uint256"
            }
          ],
          "internalType": "struct Marketplace.Listing[]",
          "name": "",
          "type": "tuple[]"
        }
      ],
      "stateMutability": "view",
      "type": "function",
      "constant": true
    },
    {
      "inputs": [],
      "name": "getListingFee",
      "outputs": [
        {
          "internalType": "uint256",
          "name": "",
          "type": "uint256"
        }
      ],
      "stateMutability": "view",
      "type": "function",
      "constant": true
    }
  ],
  "bytecode": "0x608060405266038d7ea4c6800060035534801561001b57600080fd5b50600160008190555033600260006101000a81548173ffffffffffffffffffffffffffffffffffffffff021916908373ffffffffffffffffffffffffffffffffffffffff160217905550612e4d806100746000396000f3fe6080604052600436106100555760003560e01c80637e943afd1461005a5780637fc27efd146100765780639a34f00314610092578063ae73ccec146100ae578063b8fe6abe146100d9578063e9a6f4f614610104575b600080fd5b610074600480360381019061006f9190611d16565b610141565b005b610090600480360381019061008b9190611d91565b61080f565b005b6100ac60048036038101906100a79190611e11565b610d99565b005b3480156100ba57600080fd5b506100c361118d565b6040516100d09190611fd4565b60405180910390f35b3480156100e557600080fd5b506100ee61148a565b6040516100fb9190612005565b60405180910390f35b34801561011057600080fd5b5061012b60048036038101906101269190612020565b611494565b6040516101389190612068565b60405180910390f35b6101496115fd565b61015285611494565b610191576040517f08c379a0000000000000000000000000000000000000000000000000000000008152600401610188906120e0565b60405180910390fd5b3373ffffffffffffffffffffffffffffffffffffffff168573ffffffffffffffffffffffffffffffffffffffff16636352211e866040518263ffffffff1660e01b81526004016101e19190612005565b602060405180830381865afa1580156101fe573d6000803e3d6000fd5b505050506040513d601f19601f820116820180604052508101906102229190612115565b73ffffffffffffffffffffffffffffffffffffffff1614610278576040517f08c379a000000000000000000000000000000000000000000000000000000000815260040161026f9061218e565b60405180910390fd5b60035434146102863461164c565b61029160035461164c565b6040516020016102a292919061229a565b604051602081830303815290604052906102f2576040517f08c379a00000000000000000000000000000000000000000000000000000000081526004016102e99190612313565b60405180910390fd5b5060008311610336576040517f08c379a000000000000000000000000000000000000000000000000000000000815260040161032d906123a7565b60405180910390fd5b42821015610379576040517f08c379a000000000000000000000000000000000000000000000000000000000815260040161037090612413565b60405180910390fd5b818110156103bc576040517f08c379a00000000000000000000000000000000000000000000000000000000081526004016103b3906124a5565b60405180910390fd5b600073ffffffffffffffffffffffffffffffffffffffff16600460008773ffffffffffffffffffffffffffffffffffffffff1673ffffffffffffffffffffffffffffffffffffffff168152602001908152602001600020600086815260200190815260200160002060020160009054906101000a900473ffffffffffffffffffffffffffffffffffffffff1673ffffffffffffffffffffffffffffffffffffffff161461049e576040517f08c379a000000000000000000000000000000000000000000000000000000000815260040161049590612511565b60405180910390fd5b600260009054906101000a900473ffffffffffffffffffffffffffffffffffffffff1673ffffffffffffffffffffffffffffffffffffffff166108fc6003549081150290604051600060405180830381858888f19350505050158015610508573d6000803e3d6000fd5b506040518061010001604052803373ffffffffffffffffffffffffffffffffffffffff168152602001600073ffffffffffffffffffffffffffffffffffffffff1681526020018673ffffffffffffffffffffffffffffffffffffffff1681526020018581526020018481526020018381526020018281526020016000815250600460008773ffffffffffffffffffffffffffffffffffffffff1673ffffffffffffffffffffffffffffffffffffffff168152602001908152602001600020600086815260200190815260200160002060008201518160000160006101000a81548173ffffffffffffffffffffffffffffffffffffffff021916908373ffffffffffffffffffffffffffffffffffffffff16021790555060208201518160010160006101000a81548173ffffffffffffffffffffffffffffffffffffffff021916908373ffffffffffffffffffffffffffffffffffffffff16021790555060408201518160020160006101000a81548173ffffffffffffffffffffffffffffffffffffffff021916908373ffffffffffffffffffffffffffffffffffffffff160217905550606082015181600301556080820151816004015560a0820151816005015560c0820151816006015560e082015181600701559050506106eb600161171a565b610733600560008773ffffffffffffffffffffffffffffffffffffffff1673ffffffffffffffffffffffffffffffffffffffff16815260200190815260200160002085611730565b5061073f60068661174a565b507f51961ff716bd7d3e30c6869dae4d4c0f9e0c6abbae1aa5887f3f6fa8d68f34df8573ffffffffffffffffffffffffffffffffffffffff16636352211e866040518263ffffffff1660e01b815260040161079a9190612005565b602060405180830381865afa1580156107b7573d6000803e3d6000fd5b505050506040513d601f19601f820116820180604052508101906107db9190612115565b6000878787878760006040516107f8989796959493929190612585565b60405180910390a161080861177a565b5050505050565b6108176115fd565b6000600460008473ffffffffffffffffffffffffffffffffffffffff1673ffffffffffffffffffffffffffffffffffffffff16815260200190815260200160002060008381526020019081526020016000209050600073ffffffffffffffffffffffffffffffffffffffff168160000160009054906101000a900473ffffffffffffffffffffffffffffffffffffffff1673ffffffffffffffffffffffffffffffffffffffff16036108fe576040517f08c379a00000000000000000000000000000000000000000000000000000000081526004016108f59061264f565b60405180910390fd5b3373ffffffffffffffffffffffffffffffffffffffff168160000160009054906101000a900473ffffffffffffffffffffffffffffffffffffffff1673ffffffffffffffffffffffffffffffffffffffff1614806109a957503373ffffffffffffffffffffffffffffffffffffffff16600260009054906101000a900473ffffffffffffffffffffffffffffffffffffffff1673ffffffffffffffffffffffffffffffffffffffff16145b6109e8576040517f08c379a00000000000000000000000000000000000000000000000000000000081526004016109df906126bb565b60405180910390fd5b60008073ffffffffffffffffffffffffffffffffffffffff168260010160009054906101000a900473ffffffffffffffffffffffffffffffffffffffff1673ffffffffffffffffffffffffffffffffffffffff1614610b4057816004015460016018603c80428760070154610a5d919061270a565b610a67919061276d565b610a71919061276d565b610a7b919061276d565b610a85919061279e565b610a8f91906127f4565b905080341015610ad4576040517f08c379a0000000000000000000000000000000000000000000000000000000008152600401610acb9061289a565b60405180910390fd5b8160010160009054906101000a900473ffffffffffffffffffffffffffffffffffffffff1673ffffffffffffffffffffffffffffffffffffffff166108fc829081150290604051600060405180830381858888f19350505050158015610b3e573d6000803e3d6000fd5b505b8373ffffffffffffffffffffffffffffffffffffffff1663e030565e846000806040518463ffffffff1660e01b8152600401610b7e939291906128eb565b600060405180830381600087803b158015610b9857600080fd5b505af1158015610bac573d6000803e3d6000fd5b50505050610bf8600560008673ffffffffffffffffffffffffffffffffffffffff1673ffffffffffffffffffffffffffffffffffffffff16815260200190815260200160002084611784565b50600460008573ffffffffffffffffffffffffffffffffffffffff1673ffffffffffffffffffffffffffffffffffffffff1681526020019081526020016000206000848152602001908152602001600020600080820160006101000a81549073ffffffffffffffffffffffffffffffffffffffff02191690556001820160006101000a81549073ffffffffffffffffffffffffffffffffffffffff02191690556002820160006101000a81549073ffffffffffffffffffffffffffffffffffffffff02191690556003820160009055600482016000905560058201600090556006820160009055600782016000905550506000610d32600560008773ffffffffffffffffffffffffffffffffffffffff1673ffffffffffffffffffffffffffffffffffffffff16815260200190815260200160002061179e565b03610d4457610d426006856117b3565b505b610d4e60016117e3565b7f6d7362d1e96e1739a576062b58d2055c5f8f9b50bf703c53b1c26cd3a82548c633858584604051610d839493929190612922565b60405180910390a15050610d9561177a565b5050565b610da16115fd565b6000600460008573ffffffffffffffffffffffffffffffffffffffff1673ffffffffffffffffffffffffffffffffffffffff16815260200190815260200160002060008481526020019081526020016000209050600073ffffffffffffffffffffffffffffffffffffffff168160010160009054906101000a900473ffffffffffffffffffffffffffffffffffffffff1673ffffffffffffffffffffffffffffffffffffffff161480610e575750806007015442115b610e96576040517f08c379a0000000000000000000000000000000000000000000000000000000008152600401610e8d906129b3565b60405180910390fd5b80600601548267ffffffffffffffff161115610ee7576040517f08c379a0000000000000000000000000000000000000000000000000000000008152600401610ede90612a45565b60405180910390fd5b600060016018603c80428767ffffffffffffffff16610f06919061270a565b610f10919061276d565b610f1a919061276d565b610f24919061276d565b610f2e919061279e565b90506000818360040154610f4291906127f4565b905080341015610f87576040517f08c379a0000000000000000000000000000000000000000000000000000000008152600401610f7e90612ad7565b60405180910390fd5b8260000160009054906101000a900473ffffffffffffffffffffffffffffffffffffffff1673ffffffffffffffffffffffffffffffffffffffff166108fc829081150290604051600060405180830381858888f19350505050158015610ff1573d6000803e3d6000fd5b508573ffffffffffffffffffffffffffffffffffffffff1663e030565e8633876040518463ffffffff1660e01b815260040161102f93929190612b06565b600060405180830381600087803b15801561104957600080fd5b505af115801561105d573d6000803e3d6000fd5b50505050338360010160006101000a81548173ffffffffffffffffffffffffffffffffffffffff021916908373ffffffffffffffffffffffffffffffffffffffff1602179055508367ffffffffffffffff1683600701819055507f9e281a126f51088cc2a404608130a64cb50df5e046d30d0540344ef4f1b6ec2a8673ffffffffffffffffffffffffffffffffffffffff16636352211e876040518263ffffffff1660e01b81526004016111119190612005565b602060405180830381865afa15801561112e573d6000803e3d6000fd5b505050506040513d601f19601f820116820180604052508101906111529190612115565b338888876005015488600601548a88604051611175989796959493929190612b3d565b60405180910390a150505061118861177a565b505050565b6060600061119b600161183f565b67ffffffffffffffff8111156111b4576111b3612bbb565b5b6040519080825280602002602001820160405280156111ed57816020015b6111da611bf6565b8152602001906001900390816111d25790505b5090506000806111fd600661184d565b905060005b81518110156114805760008282815181106112205761121f612bea565b5b602002602001015190506000611273600560008473ffffffffffffffffffffffffffffffffffffffff1673ffffffffffffffffffffffffffffffffffffffff16815260200190815260200160002061186e565b905060005b815181101561146a57600460008473ffffffffffffffffffffffffffffffffffffffff1673ffffffffffffffffffffffffffffffffffffffff16815260200190815260200160002060008383815181106112d5576112d4612bea565b5b60200260200101518152602001908152602001600020604051806101000160405290816000820160009054906101000a900473ffffffffffffffffffffffffffffffffffffffff1673ffffffffffffffffffffffffffffffffffffffff1673ffffffffffffffffffffffffffffffffffffffff1681526020016001820160009054906101000a900473ffffffffffffffffffffffffffffffffffffffff1673ffffffffffffffffffffffffffffffffffffffff1673ffffffffffffffffffffffffffffffffffffffff1681526020016002820160009054906101000a900473ffffffffffffffffffffffffffffffffffffffff1673ffffffffffffffffffffffffffffffffffffffff1673ffffffffffffffffffffffffffffffffffffffff1681526020016003820154815260200160048201548152602001600582015481526020016006820154815260200160078201548152505087878151811061143e5761143d612bea565b5b6020026020010181905250858061145490612c19565b965050808061146290612c19565b915050611278565b505050808061147890612c19565b915050611202565b5082935050505090565b6000600354905090565b6000806000905060008373ffffffffffffffffffffffffffffffffffffffff166301ffc9a77fad092b5c000000000000000000000000000000000000000000000000000000006040518263ffffffff1660e01b81526004016114f69190612c9c565b602060405180830381865afa92505050801561153057506040513d601f19601f8201168201806040525081019061152d9190612ce3565b60015b61153f576000925050506115f8565b809250508373ffffffffffffffffffffffffffffffffffffffff166301ffc9a77f80ac58cd000000000000000000000000000000000000000000000000000000006040518263ffffffff1660e01b815260040161159c9190612c9c565b602060405180830381865afa9250505080156115d657506040513d601f19601f820116820180604052508101906115d39190612ce3565b60015b6115e5576000925050506115f8565b809150508180156115f35750805b925050505b919050565b600260005403611642576040517f08c379a000000000000000000000000000000000000000000000000000000000815260040161163990612d5c565b60405180910390fd5b6002600081905550565b60606000600161165b8461188f565b01905060008167ffffffffffffffff81111561167a57611679612bbb565b5b6040519080825280601f01601f1916602001820160405280156116ac5781602001600182028036833780820191505090505b509050600082602001820190505b60011561170f578080600190039150507f3031323334353637383961626364656600000000000000000000000000000000600a86061a8153600a85816117035761170261273e565b5b049450600085036116ba575b819350505050919050565b6001816000016000828254019250508190555050565b6000611742836000018360001b6119e2565b905092915050565b6000611772836000018373ffffffffffffffffffffffffffffffffffffffff1660001b6119e2565b905092915050565b6001600081905550565b6000611796836000018360001b611a52565b905092915050565b60006117ac82600001611b66565b9050919050565b60006117db836000018373ffffffffffffffffffffffffffffffffffffffff1660001b611a52565b905092915050565b6000816000015490506000811161182f576040517f08c379a000000000000000000000000000000000000000000000000000000000815260040161182690612dc8565b60405180910390fd5b6001810382600001819055505050565b600081600001549050919050565b6060600061185d83600001611b77565b905060608190508092505050919050565b6060600061187e83600001611b77565b905060608190508092505050919050565b600080600090507a184f03e93ff9f4daa797ed6e38ed64bf6a1f01000000000000000083106118ed577a184f03e93ff9f4daa797ed6e38ed64bf6a1f01000000000000000083816118e3576118e261273e565b5b0492506040810190505b6d04ee2d6d415b85acef8100000000831061192a576d04ee2d6d415b85acef810000000083816119205761191f61273e565b5b0492506020810190505b662386f26fc10000831061195957662386f26fc10000838161194f5761194e61273e565b5b0492506010810190505b6305f5e1008310611982576305f5e10083816119785761197761273e565b5b0492506008810190505b61271083106119a757612710838161199d5761199c61273e565b5b0492506004810190505b606483106119ca57606483816119c0576119bf61273e565b5b0492506002810190505b600a83106119d9576001810190505b80915050919050565b60006119ee8383611bd3565b611a47578260000182908060018154018082558091505060019003906000526020600020016000909190919091505582600001805490508360010160008481526020019081526020016000208190555060019050611a4c565b600090505b92915050565b60008083600101600084815260200190815260200160002054905060008114611b5a576000600182611a84919061270a565b9050600060018660000180549050611a9c919061270a565b9050818114611b0b576000866000018281548110611abd57611abc612bea565b5b9060005260206000200154905080876000018481548110611ae157611ae0612bea565b5b90600052602060002001819055508387600101600083815260200190815260200160002081905550505b85600001805480611b1f57611b1e612de8565b5b600190038181906000526020600020016000905590558560010160008681526020019081526020016000206000905560019350505050611b60565b60009150505b92915050565b600081600001805490509050919050565b606081600001805480602002602001604051908101604052809291908181526020018280548015611bc757602002820191906000526020600020905b815481526020019060010190808311611bb3575b50505050509050919050565b600080836001016000848152602001908152602001600020541415905092915050565b604051806101000160405280600073ffffffffffffffffffffffffffffffffffffffff168152602001600073ffffffffffffffffffffffffffffffffffffffff168152602001600073ffffffffffffffffffffffffffffffffffffffff16815260200160008152602001600081526020016000815260200160008152602001600081525090565b600080fd5b600073ffffffffffffffffffffffffffffffffffffffff82169050919050565b6000611cad82611c82565b9050919050565b611cbd81611ca2565b8114611cc857600080fd5b50565b600081359050611cda81611cb4565b92915050565b6000819050919050565b611cf381611ce0565b8114611cfe57600080fd5b50565b600081359050611d1081611cea565b92915050565b600080600080600060a08688031215611d3257611d31611c7d565b5b6000611d4088828901611ccb565b9550506020611d5188828901611d01565b9450506040611d6288828901611d01565b9350506060611d7388828901611d01565b9250506080611d8488828901611d01565b9150509295509295909350565b60008060408385031215611da857611da7611c7d565b5b6000611db685828601611ccb565b9250506020611dc785828601611d01565b9150509250929050565b600067ffffffffffffffff82169050919050565b611dee81611dd1565b8114611df957600080fd5b50565b600081359050611e0b81611de5565b92915050565b600080600060608486031215611e2a57611e29611c7d565b5b6000611e3886828701611ccb565b9350506020611e4986828701611d01565b9250506040611e5a86828701611dfc565b9150509250925092565b600081519050919050565b600082825260208201905092915050565b6000819050602082019050919050565b611e9981611ca2565b82525050565b611ea881611ce0565b82525050565b61010082016000820151611ec56000850182611e90565b506020820151611ed86020850182611e90565b506040820151611eeb6040850182611e90565b506060820151611efe6060850182611e9f565b506080820151611f116080850182611e9f565b5060a0820151611f2460a0850182611e9f565b5060c0820151611f3760c0850182611e9f565b5060e0820151611f4a60e0850182611e9f565b50505050565b6000611f5c8383611eae565b6101008301905092915050565b6000602082019050919050565b6000611f8182611e64565b611f8b8185611e6f565b9350611f9683611e80565b8060005b83811015611fc7578151611fae8882611f50565b9750611fb983611f69565b925050600181019050611f9a565b5085935050505092915050565b60006020820190508181036000830152611fee8184611f76565b905092915050565b611fff81611ce0565b82525050565b600060208201905061201a6000830184611ff6565b92915050565b60006020828403121561203657612035611c7d565b5b600061204484828501611ccb565b91505092915050565b60008115159050919050565b6120628161204d565b82525050565b600060208201905061207d6000830184612059565b92915050565b600082825260208201905092915050565b7f436f6e7472616374206973206e6f7420616e2045524334393037000000000000600082015250565b60006120ca601a83612083565b91506120d582612094565b602082019050919050565b600060208201905081810360008301526120f9816120bd565b9050919050565b60008151905061210f81611cb4565b92915050565b60006020828403121561212b5761212a611c7d565b5b600061213984828501612100565b91505092915050565b7f4e6f74206f776e6572206f66206e667400000000000000000000000000000000600082015250565b6000612178601083612083565b915061218382612142565b602082019050919050565b600060208201905081810360008301526121a78161216b565b9050919050565b600081905092915050565b7f4e6f7420656e6f75676820657468657220666f72206c697374696e672066656560008201527f2000000000000000000000000000000000000000000000000000000000000000602082015250565b60006122156021836121ae565b9150612220826121b9565b602182019050919050565b600081519050919050565b60005b83811015612254578082015181840152602081019050612239565b83811115612263576000848401525b50505050565b60006122748261222b565b61227e81856121ae565b935061228e818560208601612236565b80840191505092915050565b60006122a582612208565b91506122b18285612269565b91506122bd8284612269565b91508190509392505050565b6000601f19601f8301169050919050565b60006122e58261222b565b6122ef8185612083565b93506122ff818560208601612236565b612308816122c9565b840191505092915050565b6000602082019050818103600083015261232d81846122da565b905092915050565b7f52656e74616c2070726963652073686f756c642062652067726561746572207460008201527f68616e2030000000000000000000000000000000000000000000000000000000602082015250565b6000612391602583612083565b915061239c82612335565b604082019050919050565b600060208201905081810360008301526123c081612384565b9050919050565b7f537461727420646174652063616e6e6f7420626520696e207468652070617374600082015250565b60006123fd602083612083565b9150612408826123c7565b602082019050919050565b6000602082019050818103600083015261242c816123f0565b9050919050565b7f456e6420646174652063616e6e6f74206265206265666f72652074686520737460008201527f6172742064617465000000000000000000000000000000000000000000000000602082015250565b600061248f602883612083565b915061249a82612433565b604082019050919050565b600060208201905081810360008301526124be81612482565b9050919050565b7f54686973204e46542068617320616c7265616479206265656e206c6973746564600082015250565b60006124fb602083612083565b9150612506826124c5565b602082019050919050565b6000602082019050818103600083015261252a816124ee565b9050919050565b61253a81611ca2565b82525050565b6000819050919050565b6000819050919050565b600061256f61256a61256584612540565b61254a565b611ce0565b9050919050565b61257f81612554565b82525050565b60006101008201905061259b600083018b612531565b6125a8602083018a612531565b6125b56040830189612531565b6125c26060830188611ff6565b6125cf6080830187611ff6565b6125dc60a0830186611ff6565b6125e960c0830185611ff6565b6125f660e0830184612576565b9998505050505050505050565b7f54686973204e4654206973206e6f74206c697374656400000000000000000000600082015250565b6000612639601683612083565b915061264482612603565b602082019050919050565b600060208201905081810360008301526126688161262c565b9050919050565b7f4e6f7420617070726f76656420746f20756e6c697374204e4654000000000000600082015250565b60006126a5601a83612083565b91506126b08261266f565b602082019050919050565b600060208201905081810360008301526126d481612698565b9050919050565b7f4e487b7100000000000000000000000000000000000000000000000000000000600052601160045260246000fd5b600061271582611ce0565b915061272083611ce0565b925082821015612733576127326126db565b5b828203905092915050565b7f4e487b7100000000000000000000000000000000000000000000000000000000600052601260045260246000fd5b600061277882611ce0565b915061278383611ce0565b9250826127935761279261273e565b5b828204905092915050565b60006127a982611ce0565b91506127b483611ce0565b9250827fffffffffffffffffffffffffffffffffffffffffffffffffffffffffffffffff038211156127e9576127e86126db565b5b828201905092915050565b60006127ff82611ce0565b915061280a83611ce0565b9250817fffffffffffffffffffffffffffffffffffffffffffffffffffffffffffffffff0483118215151615612843576128426126db565b5b828202905092915050565b7f4e6f7420656e6f75676820657468657220746f20636f76657220726566756e64600082015250565b6000612884602083612083565b915061288f8261284e565b602082019050919050565b600060208201905081810360008301526128b381612877565b9050919050565b60006128d56128d06128cb84612540565b61254a565b611dd1565b9050919050565b6128e5816128ba565b82525050565b60006060820190506129006000830186611ff6565b61290d6020830185612531565b61291a60408301846128dc565b949350505050565b60006080820190506129376000830187612531565b6129446020830186612531565b6129516040830185611ff6565b61295e6060830184611ff6565b95945050505050565b7f4e465420616c72656164792072656e7465640000000000000000000000000000600082015250565b600061299d601283612083565b91506129a882612967565b602082019050919050565b600060208201905081810360008301526129cc81612990565b9050919050565b7f52656e74616c20706572696f642065786365656473206d61782064617465207260008201527f656e7461626c6500000000000000000000000000000000000000000000000000602082015250565b6000612a2f602783612083565b9150612a3a826129d3565b604082019050919050565b60006020820190508181036000830152612a5e81612a22565b9050919050565b7f4e6f7420656e6f75676820657468657220746f20636f7665722072656e74616c60008201527f20706572696f6400000000000000000000000000000000000000000000000000602082015250565b6000612ac1602783612083565b9150612acc82612a65565b604082019050919050565b60006020820190508181036000830152612af081612ab4565b9050919050565b612b0081611dd1565b82525050565b6000606082019050612b1b6000830186611ff6565b612b286020830185612531565b612b356040830184612af7565b949350505050565b600061010082019050612b53600083018b612531565b612b60602083018a612531565b612b6d6040830189612531565b612b7a6060830188611ff6565b612b876080830187611ff6565b612b9460a0830186611ff6565b612ba160c0830185612af7565b612bae60e0830184611ff6565b9998505050505050505050565b7f4e487b7100000000000000000000000000000000000000000000000000000000600052604160045260246000fd5b7f4e487b7100000000000000000000000000000000000000000000000000000000600052603260045260246000fd5b6000612c2482611ce0565b91507fffffffffffffffffffffffffffffffffffffffffffffffffffffffffffffffff8203612c5657612c556126db565b5b600182019050919050565b60007fffffffff0000000000000000000000000000000000000000000000000000000082169050919050565b612c9681612c61565b82525050565b6000602082019050612cb16000830184612c8d565b92915050565b612cc08161204d565b8114612ccb57600080fd5b50565b600081519050612cdd81612cb7565b92915050565b600060208284031215612cf957612cf8611c7d565b5b6000612d0784828501612cce565b91505092915050565b7f5265656e7472616e637947756172643a207265656e7472616e742063616c6c00600082015250565b6000612d46601f83612083565b9150612d5182612d10565b602082019050919050565b60006020820190508181036000830152612d7581612d39565b9050919050565b7f436f756e7465723a2064656372656d656e74206f766572666c6f770000000000600082015250565b6000612db2601b83612083565b9150612dbd82612d7c565b602082019050919050565b60006020820190508181036000830152612de181612da5565b9050919050565b7f4e487b7100000000000000000000000000000000000000000000000000000000600052603160045260246000fdfea2646970667358221220f70d6d54e5661f751997900b8d8d1998efe8711ef528cf9b9e168162ed9e4f8664736f6c634300080f0033",
  "immutableReferences": {},
  "source": "// SPDX-License-Identifier: MIT\npragma solidity >=0.4.22 <0.9.0;\n\nimport \"@openzeppelin/contracts/utils/structs/EnumerableSet.sol\";\nimport \"@openzeppelin/contracts/utils/Counters.sol\";\nimport \"@openzeppelin/contracts/interfaces/IERC165.sol\";\nimport \"@openzeppelin/contracts/security/ReentrancyGuard.sol\";\nimport \"@openzeppelin/contracts/interfaces/IERC721.sol\";\nimport \"@openzeppelin/contracts/utils/Strings.sol\";\nimport \"./IERC4907.sol\";\n\ncontract Marketplace is ReentrancyGuard {\n  using Counters for Counters.Counter;\n  using EnumerableSet for EnumerableSet.AddressSet;\n  using EnumerableSet for EnumerableSet.UintSet;\n  Counters.Counter private _nftsListed;\n  address private _marketOwner;\n  uint256 private _listingFee = .001 ether;\n  // maps contract address to token id to properties of the rental listing\n  mapping(address => mapping(uint256 => Listing)) private _listingMap;\n  // maps nft contracts to set of the tokens that are listed\n  mapping(address => EnumerableSet.UintSet) private _nftContractTokensMap;\n  // tracks the nft contracts that have been listed\n  EnumerableSet.AddressSet private _nftContracts;\n  struct Listing {\n      address owner;\n      address user;\n      address nftContract;\n      uint256 tokenId;\n      uint256 pricePerDay;\n      uint256 startDateUNIX; // when the nft can start being rented\n      uint256 endDateUNIX; // when the nft can no longer be rented\n      uint256 expires; // when the user can no longer rent it\n  }\n  event NFTListed(\n      address owner,\n      address user,\n      address nftContract,\n      uint256 tokenId,\n      uint256 pricePerDay,\n      uint256 startDateUNIX,\n      uint256 endDateUNIX,\n      uint256 expires\n  );\n  event NFTRented(\n      address owner,\n      address user,\n      address nftContract,\n      uint256 tokenId,\n      uint256 startDateUNIX,\n      uint256 endDateUNIX,\n      uint64 expires,\n      uint256 rentalFee\n  );\n  event NFTUnlisted(\n      address unlistSender,\n      address nftContract,\n      uint256 tokenId,\n      uint256 refund\n  );\n\n  constructor() {\n      _marketOwner = msg.sender;\n  }\n\n  // function to list NFT for rental\n  function listNFT(\n      address nftContract,\n      uint256 tokenId,\n      uint256 pricePerDay,\n      uint256 startDateUNIX,\n      uint256 endDateUNIX\n  ) public payable nonReentrant {\n      require(isRentableNFT(nftContract), \"Contract is not an ERC4907\");\n      require(IERC721(nftContract).ownerOf(tokenId) == msg.sender, \"Not owner of nft\");\n      require(msg.value == _listingFee, string.concat(\"Not enough ether for listing fee \", Strings.toString(msg.value), Strings.toString(_listingFee)));\n      require(pricePerDay > 0, \"Rental price should be greater than 0\");\n      require(startDateUNIX >= block.timestamp, \"Start date cannot be in the past\");\n      require(endDateUNIX >= startDateUNIX, \"End date cannot be before the start date\");\n      require(_listingMap[nftContract][tokenId].nftContract == address(0), \"This NFT has already been listed\");\n      \n      payable(_marketOwner).transfer(_listingFee);\n      _listingMap[nftContract][tokenId] = Listing(\n          msg.sender,\n          address(0),\n          nftContract,\n          tokenId,\n          pricePerDay,\n          startDateUNIX,\n          endDateUNIX,\n          0\n      );\n      _nftsListed.increment();\n      EnumerableSet.add(_nftContractTokensMap[nftContract], tokenId);\n      EnumerableSet.add(_nftContracts, nftContract);\n      emit NFTListed(\n          IERC721(nftContract).ownerOf(tokenId),\n          address(0),\n          nftContract,\n          tokenId,\n          pricePerDay,\n          startDateUNIX,\n          endDateUNIX,\n          0\n      );\n    }\n\n    function isRentableNFT(address nftContract) public view returns (bool) {\n        bool _isRentable = false;\n        bool _isNFT = false;\n        try IERC165(nftContract).supportsInterface(type(IERC4907).interfaceId) returns (bool rentable) {\n            _isRentable = rentable;\n        } catch {\n            return false;\n        }\n        try IERC165(nftContract).supportsInterface(type(IERC721).interfaceId) returns (bool nft) {\n            _isNFT = nft;\n        } catch {\n            return false;\n        }\n        return _isRentable && _isNFT;\n    }\n\n    // function to rent an NFT\n    function rentNFT(\n        address nftContract,\n        uint256 tokenId,\n        uint64 expires\n    ) public payable nonReentrant {\n        Listing storage listing = _listingMap[nftContract][tokenId];\n        require(listing.user == address(0) || block.timestamp > listing.expires, \"NFT already rented\");\n        require(expires <= listing.endDateUNIX, \"Rental period exceeds max date rentable\");\n        // Transfer rental fee\n        uint256 numDays = (expires - block.timestamp)/60/60/24 + 1;\n        uint256 rentalFee = listing.pricePerDay * numDays;\n        require(msg.value >= rentalFee, \"Not enough ether to cover rental period\");\n        payable(listing.owner).transfer(rentalFee);\n        // Update listing\n        IERC4907(nftContract).setUser(tokenId, msg.sender, expires);\n        listing.user = msg.sender;\n        listing.expires = expires;\n\n        emit NFTRented(\n            IERC721(nftContract).ownerOf(tokenId),\n            msg.sender,\n            nftContract,\n            tokenId,\n            listing.startDateUNIX,\n            listing.endDateUNIX,\n            expires,\n            rentalFee\n        );\n    }\n\n    // function to unlist your rental, refunding the user for any lost time\n    function unlistNFT(address nftContract, uint256 tokenId) public payable nonReentrant {\n        Listing storage listing = _listingMap[nftContract][tokenId];\n        require(listing.owner != address(0), \"This NFT is not listed\");\n        require(listing.owner == msg.sender || _marketOwner == msg.sender , \"Not approved to unlist NFT\");\n        // fee to be returned to user if unlisted before rental period is up\n        // nothing to refund if no renter\n        uint256 refund = 0;\n        if (listing.user != address(0)) {\n            refund = ((listing.expires - block.timestamp) / 60 / 60 / 24 + 1) * listing.pricePerDay;\n            require(msg.value >= refund, \"Not enough ether to cover refund\");\n            payable(listing.user).transfer(refund);\n        }\n        // clean up data\n        IERC4907(nftContract).setUser(tokenId, address(0), 0);\n        EnumerableSet.remove(_nftContractTokensMap[nftContract], tokenId);\n        delete _listingMap[nftContract][tokenId];\n        if (EnumerableSet.length(_nftContractTokensMap[nftContract]) == 0) {\n            EnumerableSet.remove(_nftContracts, nftContract);\n        }\n        _nftsListed.decrement();\n\n        emit NFTUnlisted(\n            msg.sender,\n            nftContract,\n            tokenId,\n            refund\n        );\n    }\n\n    /* \n    * function to get all listings\n    *\n    * WARNING: This operation will copy the entire storage to memory, which can be quite expensive. This is designed\n    * to mostly be used by view accessors that are queried without any gas fees. Developers should keep in mind that\n    * this function has an unbounded cost, and using it as part of a state-changing function may render the function\n    * uncallable if the set grows to a point where copying to memory consumes too much gas to fit in a block.\n    */\n    function getAllListings() public view returns (Listing[] memory) {\n        Listing[] memory listings = new Listing[](_nftsListed.current());\n        uint256 listingsIndex = 0;\n        address[] memory nftContracts = EnumerableSet.values(_nftContracts);\n        for (uint i = 0; i < nftContracts.length; i++) {\n            address nftAddress = nftContracts[i];\n            uint256[] memory tokens = EnumerableSet.values(_nftContractTokensMap[nftAddress]);\n            for (uint j = 0; j < tokens.length; j++) {\n                listings[listingsIndex] = _listingMap[nftAddress][tokens[j]];\n                listingsIndex++;\n            }\n        }\n        return listings;\n    }\n\n    function getListingFee() public view returns (uint256) {\n        return _listingFee;\n    }\n}\n\n\n",
  "sourcePath": "/Users/stephan.gerbeth/dev/rentable-nft-marketplace/contracts/Marketplace.sol",
  "compiler": {
    "name": "solc",
    "version": "0.8.15+commit.e14f2714.Emscripten.clang"
  },
  "schemaVersion": "3.4.13",
  "updatedAt": "2023-04-23T10:48:00.148Z",
  "networkType": "ethereum",
  "devdoc": {
    "kind": "dev",
    "methods": {},
    "version": 1
  },
  "userdoc": {
    "kind": "user",
    "methods": {},
    "version": 1
  }
}