{
  "contractName": "MinimalForwarder",
  "abi": [
    {
      "inputs": [],
      "stateMutability": "nonpayable",
      "type": "constructor"
    },
    {
      "inputs": [
        {
          "internalType": "address",
          "name": "from",
          "type": "address"
        }
      ],
      "name": "getNonce",
      "outputs": [
        {
          "internalType": "uint256",
          "name": "",
          "type": "uint256"
        }
      ],
      "stateMutability": "view",
      "type": "function",
      "constant": true
    },
    {
      "inputs": [
        {
          "components": [
            {
              "internalType": "address",
              "name": "from",
              "type": "address"
            },
            {
              "internalType": "address",
              "name": "to",
              "type": "address"
            },
            {
              "internalType": "uint256",
              "name": "value",
              "type": "uint256"
            },
            {
              "internalType": "uint256",
              "name": "gas",
              "type": "uint256"
            },
            {
              "internalType": "uint256",
              "name": "nonce",
              "type": "uint256"
            },
            {
              "internalType": "bytes",
              "name": "data",
              "type": "bytes"
            }
          ],
          "internalType": "struct MinimalForwarder.ForwardRequest",
          "name": "req",
          "type": "tuple"
        },
        {
          "internalType": "bytes",
          "name": "signature",
          "type": "bytes"
        }
      ],
      "name": "verify",
      "outputs": [
        {
          "internalType": "bool",
          "name": "",
          "type": "bool"
        }
      ],
      "stateMutability": "view",
      "type": "function",
      "constant": true
    },
    {
      "inputs": [
        {
          "components": [
            {
              "internalType": "address",
              "name": "from",
              "type": "address"
            },
            {
              "internalType": "address",
              "name": "to",
              "type": "address"
            },
            {
              "internalType": "uint256",
              "name": "value",
              "type": "uint256"
            },
            {
              "internalType": "uint256",
              "name": "gas",
              "type": "uint256"
            },
            {
              "internalType": "uint256",
              "name": "nonce",
              "type": "uint256"
            },
            {
              "internalType": "bytes",
              "name": "data",
              "type": "bytes"
            }
          ],
          "internalType": "struct MinimalForwarder.ForwardRequest",
          "name": "req",
          "type": "tuple"
        },
        {
          "internalType": "bytes",
          "name": "signature",
          "type": "bytes"
        }
      ],
      "name": "execute",
      "outputs": [
        {
          "internalType": "bool",
          "name": "",
          "type": "bool"
        },
        {
          "internalType": "bytes",
          "name": "",
          "type": "bytes"
        }
      ],
      "stateMutability": "payable",
      "type": "function",
      "payable": true
    }
  ],
  "bytecode": "0x6101406040523480156200001257600080fd5b506040518060400160405280601081526020017f4d696e696d616c466f72776172646572000000000000000000000000000000008152506040518060400160405280600581526020017f302e302e3100000000000000000000000000000000000000000000000000000081525060008280519060200120905060008280519060200120905060007f8b73c3c69bb8fe3d512ecc4cf759cc79239f7b179b0ffacaa9a75d522b39400f90508260e081815250508161010081815250504660a08181525050620000e88184846200013760201b60201c565b608081815250503073ffffffffffffffffffffffffffffffffffffffff1660c08173ffffffffffffffffffffffffffffffffffffffff168152505080610120818152505050505050506200024b565b6000838383463060405160200162000154959493929190620001ee565b6040516020818303038152906040528051906020012090509392505050565b6000819050919050565b620001888162000173565b82525050565b6000819050919050565b620001a3816200018e565b82525050565b600073ffffffffffffffffffffffffffffffffffffffff82169050919050565b6000620001d682620001a9565b9050919050565b620001e881620001c9565b82525050565b600060a0820190506200020560008301886200017d565b6200021460208301876200017d565b6200022360408301866200017d565b62000232606083018562000198565b620002416080830184620001dd565b9695505050505050565b60805160a05160c05160e051610100516101205161128f6200029b600039600061057b015260006105bd0152600061059c015260006104d10152600061052701526000610550015261128f6000f3fe6080604052600436106100345760003560e01c80632d0335ab1461003957806347153f8214610076578063bf5d3bdb146100a7575b600080fd5b34801561004557600080fd5b50610060600480360381019061005b9190610955565b6100e4565b60405161006d919061099b565b60405180910390f35b610090600480360381019061008b9190610a3f565b61012c565b60405161009e929190610b6f565b60405180910390f35b3480156100b357600080fd5b506100ce60048036038101906100c99190610a3f565b6102d7565b6040516100db9190610b9f565b60405180910390f35b60008060008373ffffffffffffffffffffffffffffffffffffffff1673ffffffffffffffffffffffffffffffffffffffff168152602001908152602001600020549050919050565b6000606061013b8585856102d7565b61017a576040517f08c379a000000000000000000000000000000000000000000000000000000000815260040161017190610c3d565b60405180910390fd5b6001856080013561018b9190610c8c565b6000808760000160208101906101a19190610955565b73ffffffffffffffffffffffffffffffffffffffff1673ffffffffffffffffffffffffffffffffffffffff168152602001908152602001600020819055506000808660200160208101906101f59190610955565b73ffffffffffffffffffffffffffffffffffffffff1687606001358860400135898060a001906102259190610cf1565b8b60000160208101906102389190610955565b60405160200161024a93929190610ddb565b6040516020818303038152906040526040516102669190610e36565b600060405180830381858888f193505050503d80600081146102a4576040519150601f19603f3d011682016040523d82523d6000602084013e6102a9565b606091505b5091509150603f87606001356102bf9190610e7c565b5a116102c757fe5b8181935093505050935093915050565b6000806103e084848080601f016020809104026020016040519081016040528093929190818152602001838380828437600081840152601f19601f820116905080830192505050505050506103d27fdd8f4b70b0f4393e889bd39128a30628a78b61816a9eb8199759e7a349657e488860000160208101906103599190610955565b89602001602081019061036c9190610955565b8a604001358b606001358c608001358d8060a0019061038b9190610cf1565b604051610399929190610ead565b60405180910390206040516020016103b79796959493929190610eee565b6040516020818303038152906040528051906020012061048c565b6104a690919063ffffffff16565b905084608001356000808760000160208101906103fd9190610955565b73ffffffffffffffffffffffffffffffffffffffff1673ffffffffffffffffffffffffffffffffffffffff1681526020019081526020016000205414801561048257508460000160208101906104539190610955565b73ffffffffffffffffffffffffffffffffffffffff168173ffffffffffffffffffffffffffffffffffffffff16145b9150509392505050565b600061049f6104996104cd565b836105e7565b9050919050565b60008060006104b5858561061a565b915091506104c28161066b565b819250505092915050565b60007f000000000000000000000000000000000000000000000000000000000000000073ffffffffffffffffffffffffffffffffffffffff163073ffffffffffffffffffffffffffffffffffffffff1614801561054957507f000000000000000000000000000000000000000000000000000000000000000046145b15610576577f000000000000000000000000000000000000000000000000000000000000000090506105e4565b6105e17f00000000000000000000000000000000000000000000000000000000000000007f00000000000000000000000000000000000000000000000000000000000000007f00000000000000000000000000000000000000000000000000000000000000006107d1565b90505b90565b600082826040516020016105fc929190610fd5565b60405160208183030381529060405280519060200120905092915050565b600080604183510361065b5760008060006020860151925060408601519150606086015160001a905061064f8782858561080b565b94509450505050610664565b60006002915091505b9250929050565b6000600481111561067f5761067e61100c565b5b8160048111156106925761069161100c565b5b03156107ce57600160048111156106ac576106ab61100c565b5b8160048111156106bf576106be61100c565b5b036106ff576040517f08c379a00000000000000000000000000000000000000000000000000000000081526004016106f690611087565b60405180910390fd5b600260048111156107135761071261100c565b5b8160048111156107265761072561100c565b5b03610766576040517f08c379a000000000000000000000000000000000000000000000000000000000815260040161075d906110f3565b60405180910390fd5b6003600481111561077a5761077961100c565b5b81600481111561078d5761078c61100c565b5b036107cd576040517f08c379a00000000000000000000000000000000000000000000000000000000081526004016107c490611185565b60405180910390fd5b5b50565b600083838346306040516020016107ec9594939291906111a5565b6040516020818303038152906040528051906020012090509392505050565b6000807f7fffffffffffffffffffffffffffffff5d576e7357a4501ddfe92f46681b20a08360001c11156108465760006003915091506108e4565b60006001878787876040516000815260200160405260405161086b9493929190611214565b6020604051602081039080840390855afa15801561088d573d6000803e3d6000fd5b505050602060405103519050600073ffffffffffffffffffffffffffffffffffffffff168173ffffffffffffffffffffffffffffffffffffffff16036108db576000600192509250506108e4565b80600092509250505b94509492505050565b600080fd5b600080fd5b600073ffffffffffffffffffffffffffffffffffffffff82169050919050565b6000610922826108f7565b9050919050565b61093281610917565b811461093d57600080fd5b50565b60008135905061094f81610929565b92915050565b60006020828403121561096b5761096a6108ed565b5b600061097984828501610940565b91505092915050565b6000819050919050565b61099581610982565b82525050565b60006020820190506109b0600083018461098c565b92915050565b600080fd5b600060c082840312156109d1576109d06109b6565b5b81905092915050565b600080fd5b600080fd5b600080fd5b60008083601f8401126109ff576109fe6109da565b5b8235905067ffffffffffffffff811115610a1c57610a1b6109df565b5b602083019150836001820283011115610a3857610a376109e4565b5b9250929050565b600080600060408486031215610a5857610a576108ed565b5b600084013567ffffffffffffffff811115610a7657610a756108f2565b5b610a82868287016109bb565b935050602084013567ffffffffffffffff811115610aa357610aa26108f2565b5b610aaf868287016109e9565b92509250509250925092565b60008115159050919050565b610ad081610abb565b82525050565b600081519050919050565b600082825260208201905092915050565b60005b83811015610b10578082015181840152602081019050610af5565b83811115610b1f576000848401525b50505050565b6000601f19601f8301169050919050565b6000610b4182610ad6565b610b4b8185610ae1565b9350610b5b818560208601610af2565b610b6481610b25565b840191505092915050565b6000604082019050610b846000830185610ac7565b8181036020830152610b968184610b36565b90509392505050565b6000602082019050610bb46000830184610ac7565b92915050565b600082825260208201905092915050565b7f4d696e696d616c466f727761726465723a207369676e617475726520646f657360008201527f206e6f74206d6174636820726571756573740000000000000000000000000000602082015250565b6000610c27603283610bba565b9150610c3282610bcb565b604082019050919050565b60006020820190508181036000830152610c5681610c1a565b9050919050565b7f4e487b7100000000000000000000000000000000000000000000000000000000600052601160045260246000fd5b6000610c9782610982565b9150610ca283610982565b9250827fffffffffffffffffffffffffffffffffffffffffffffffffffffffffffffffff03821115610cd757610cd6610c5d565b5b828201905092915050565b600080fd5b600080fd5b600080fd5b60008083356001602003843603038112610d0e57610d0d610ce2565b5b80840192508235915067ffffffffffffffff821115610d3057610d2f610ce7565b5b602083019250600182023603831315610d4c57610d4b610cec565b5b509250929050565b600081905092915050565b82818337600083830152505050565b6000610d7a8385610d54565b9350610d87838584610d5f565b82840190509392505050565b60008160601b9050919050565b6000610dab82610d93565b9050919050565b6000610dbd82610da0565b9050919050565b610dd5610dd082610917565b610db2565b82525050565b6000610de8828587610d6e565b9150610df48284610dc4565b601482019150819050949350505050565b6000610e1082610ad6565b610e1a8185610d54565b9350610e2a818560208601610af2565b80840191505092915050565b6000610e428284610e05565b915081905092915050565b7f4e487b7100000000000000000000000000000000000000000000000000000000600052601260045260246000fd5b6000610e8782610982565b9150610e9283610982565b925082610ea257610ea1610e4d565b5b828204905092915050565b6000610eba828486610d6e565b91508190509392505050565b6000819050919050565b610ed981610ec6565b82525050565b610ee881610917565b82525050565b600060e082019050610f03600083018a610ed0565b610f106020830189610edf565b610f1d6040830188610edf565b610f2a606083018761098c565b610f37608083018661098c565b610f4460a083018561098c565b610f5160c0830184610ed0565b98975050505050505050565b600081905092915050565b7f1901000000000000000000000000000000000000000000000000000000000000600082015250565b6000610f9e600283610f5d565b9150610fa982610f68565b600282019050919050565b6000819050919050565b610fcf610fca82610ec6565b610fb4565b82525050565b6000610fe082610f91565b9150610fec8285610fbe565b602082019150610ffc8284610fbe565b6020820191508190509392505050565b7f4e487b7100000000000000000000000000000000000000000000000000000000600052602160045260246000fd5b7f45434453413a20696e76616c6964207369676e61747572650000000000000000600082015250565b6000611071601883610bba565b915061107c8261103b565b602082019050919050565b600060208201905081810360008301526110a081611064565b9050919050565b7f45434453413a20696e76616c6964207369676e6174757265206c656e67746800600082015250565b60006110dd601f83610bba565b91506110e8826110a7565b602082019050919050565b6000602082019050818103600083015261110c816110d0565b9050919050565b7f45434453413a20696e76616c6964207369676e6174757265202773272076616c60008201527f7565000000000000000000000000000000000000000000000000000000000000602082015250565b600061116f602283610bba565b915061117a82611113565b604082019050919050565b6000602082019050818103600083015261119e81611162565b9050919050565b600060a0820190506111ba6000830188610ed0565b6111c76020830187610ed0565b6111d46040830186610ed0565b6111e1606083018561098c565b6111ee6080830184610edf565b9695505050505050565b600060ff82169050919050565b61120e816111f8565b82525050565b60006080820190506112296000830187610ed0565b6112366020830186611205565b6112436040830185610ed0565b6112506060830184610ed0565b9594505050505056fea26469706673582212207fa21eeb8fd216627becc10177da6cbdfdb704ac5bb52411ee581fb84b4ca76964736f6c634300080f0033",
  "immutableReferences": {
    "2508": [
      {
        "length": 32,
        "start": 1360
      }
    ],
    "2510": [
      {
        "length": 32,
        "start": 1319
      }
    ],
    "2512": [
      {
        "length": 32,
        "start": 1233
      }
    ],
    "2514": [
      {
        "length": 32,
        "start": 1436
      }
    ],
    "2516": [
      {
        "length": 32,
        "start": 1469
      }
    ],
    "2518": [
      {
        "length": 32,
        "start": 1403
      }
    ]
  },
  "source": "// SPDX-License-Identifier: MIT\n// OpenZeppelin Contracts (last updated v4.8.0) (metatx/MinimalForwarder.sol)\n\npragma solidity ^0.8.0;\n\nimport \"../utils/cryptography/ECDSA.sol\";\nimport \"../utils/cryptography/EIP712.sol\";\n\n/**\n * @dev Simple minimal forwarder to be used together with an ERC2771 compatible contract. See {ERC2771Context}.\n *\n * MinimalForwarder is mainly meant for testing, as it is missing features to be a good production-ready forwarder. This\n * contract does not intend to have all the properties that are needed for a sound forwarding system. A fully\n * functioning forwarding system with good properties requires more complexity. We suggest you look at other projects\n * such as the GSN which do have the goal of building a system like that.\n */\ncontract MinimalForwarder is EIP712 {\n    using ECDSA for bytes32;\n\n    struct ForwardRequest {\n        address from;\n        address to;\n        uint256 value;\n        uint256 gas;\n        uint256 nonce;\n        bytes data;\n    }\n\n    bytes32 private constant _TYPEHASH =\n        keccak256(\"ForwardRequest(address from,address to,uint256 value,uint256 gas,uint256 nonce,bytes data)\");\n\n    mapping(address => uint256) private _nonces;\n\n    constructor() EIP712(\"MinimalForwarder\", \"0.0.1\") {}\n\n    function getNonce(address from) public view returns (uint256) {\n        return _nonces[from];\n    }\n\n    function verify(ForwardRequest calldata req, bytes calldata signature) public view returns (bool) {\n        address signer = _hashTypedDataV4(\n            keccak256(abi.encode(_TYPEHASH, req.from, req.to, req.value, req.gas, req.nonce, keccak256(req.data)))\n        ).recover(signature);        \n        return _nonces[req.from] == req.nonce && signer == req.from;\n    }\n\n    function execute(ForwardRequest calldata req, bytes calldata signature)\n        public\n        payable\n        returns (bool, bytes memory)\n    {\n        require(verify(req, signature), \"MinimalForwarder: signature does not match request\");\n        _nonces[req.from] = req.nonce + 1;\n\n        (bool success, bytes memory returndata) = req.to.call{gas: req.gas, value: req.value}(\n            abi.encodePacked(req.data, req.from)\n        );\n\n        // Validate that the relayer has sent enough gas for the call.\n        // See https://ronan.eth.limo/blog/ethereum-gas-dangers/\n        if (gasleft() <= req.gas / 63) {\n            // We explicitly trigger invalid opcode to consume all gas and bubble-up the effects, since\n            // neither revert or assert consume all gas since Solidity 0.8.0\n            // https://docs.soliditylang.org/en/v0.8.0/control-structures.html#panic-via-assert-and-error-via-require\n            /// @solidity memory-safe-assembly\n            assembly {\n                invalid()\n            }\n        }\n\n        return (success, returndata);\n    }\n}\n",
  "sourcePath": "@openzeppelin/contracts/metatx/MinimalForwarder.sol",
  "compiler": {
    "name": "solc",
    "version": "0.8.15+commit.e14f2714.Emscripten.clang"
  },
  "schemaVersion": "3.4.13",
  "updatedAt": "2023-05-05T07:46:26.442Z",
  "networkType": "ethereum",
  "devdoc": {
    "details": "Simple minimal forwarder to be used together with an ERC2771 compatible contract. See {ERC2771Context}. MinimalForwarder is mainly meant for testing, as it is missing features to be a good production-ready forwarder. This contract does not intend to have all the properties that are needed for a sound forwarding system. A fully functioning forwarding system with good properties requires more complexity. We suggest you look at other projects such as the GSN which do have the goal of building a system like that.",
    "kind": "dev",
    "methods": {},
    "version": 1
  },
  "userdoc": {
    "kind": "user",
    "methods": {},
    "version": 1
  }
}