{
  "contractName": "RentableNft",
  "abi": [
    {
      "inputs": [
        {
          "internalType": "contract MinimalForwarder",
          "name": "forwarder",
          "type": "address"
        },
        {
          "internalType": "address",
          "name": "marketplaceContract",
          "type": "address"
        }
      ],
      "stateMutability": "nonpayable",
      "type": "constructor"
    },
    {
      "anonymous": false,
      "inputs": [
        {
          "indexed": true,
          "internalType": "address",
          "name": "owner",
          "type": "address"
        },
        {
          "indexed": true,
          "internalType": "address",
          "name": "approved",
          "type": "address"
        },
        {
          "indexed": true,
          "internalType": "uint256",
          "name": "tokenId",
          "type": "uint256"
        }
      ],
      "name": "Approval",
      "type": "event"
    },
    {
      "anonymous": false,
      "inputs": [
        {
          "indexed": true,
          "internalType": "address",
          "name": "owner",
          "type": "address"
        },
        {
          "indexed": true,
          "internalType": "address",
          "name": "operator",
          "type": "address"
        },
        {
          "indexed": false,
          "internalType": "bool",
          "name": "approved",
          "type": "bool"
        }
      ],
      "name": "ApprovalForAll",
      "type": "event"
    },
    {
      "anonymous": false,
      "inputs": [
        {
          "indexed": true,
          "internalType": "address",
          "name": "from",
          "type": "address"
        },
        {
          "indexed": true,
          "internalType": "address",
          "name": "to",
          "type": "address"
        },
        {
          "indexed": true,
          "internalType": "uint256",
          "name": "tokenId",
          "type": "uint256"
        }
      ],
      "name": "Transfer",
      "type": "event"
    },
    {
      "anonymous": false,
      "inputs": [
        {
          "indexed": true,
          "internalType": "uint256",
          "name": "tokenId",
          "type": "uint256"
        },
        {
          "indexed": true,
          "internalType": "address",
          "name": "user",
          "type": "address"
        },
        {
          "indexed": false,
          "internalType": "uint64",
          "name": "expires",
          "type": "uint64"
        }
      ],
      "name": "UpdateUser",
      "type": "event"
    },
    {
      "inputs": [
        {
          "internalType": "address",
          "name": "to",
          "type": "address"
        },
        {
          "internalType": "uint256",
          "name": "tokenId",
          "type": "uint256"
        }
      ],
      "name": "approve",
      "outputs": [],
      "stateMutability": "nonpayable",
      "type": "function"
    },
    {
      "inputs": [
        {
          "internalType": "address",
          "name": "owner",
          "type": "address"
        }
      ],
      "name": "balanceOf",
      "outputs": [
        {
          "internalType": "uint256",
          "name": "",
          "type": "uint256"
        }
      ],
      "stateMutability": "view",
      "type": "function",
      "constant": true
    },
    {
      "inputs": [
        {
          "internalType": "uint256",
          "name": "tokenId",
          "type": "uint256"
        }
      ],
      "name": "getApproved",
      "outputs": [
        {
          "internalType": "address",
          "name": "",
          "type": "address"
        }
      ],
      "stateMutability": "view",
      "type": "function",
      "constant": true
    },
    {
      "inputs": [
        {
          "internalType": "address",
          "name": "owner",
          "type": "address"
        },
        {
          "internalType": "address",
          "name": "operator",
          "type": "address"
        }
      ],
      "name": "isApprovedForAll",
      "outputs": [
        {
          "internalType": "bool",
          "name": "",
          "type": "bool"
        }
      ],
      "stateMutability": "view",
      "type": "function",
      "constant": true
    },
    {
      "inputs": [
        {
          "internalType": "address",
          "name": "forwarder",
          "type": "address"
        }
      ],
      "name": "isTrustedForwarder",
      "outputs": [
        {
          "internalType": "bool",
          "name": "",
          "type": "bool"
        }
      ],
      "stateMutability": "view",
      "type": "function",
      "constant": true
    },
    {
      "inputs": [],
      "name": "name",
      "outputs": [
        {
          "internalType": "string",
          "name": "",
          "type": "string"
        }
      ],
      "stateMutability": "view",
      "type": "function",
      "constant": true
    },
    {
      "inputs": [
        {
          "internalType": "uint256",
          "name": "tokenId",
          "type": "uint256"
        }
      ],
      "name": "ownerOf",
      "outputs": [
        {
          "internalType": "address",
          "name": "",
          "type": "address"
        }
      ],
      "stateMutability": "view",
      "type": "function",
      "constant": true
    },
    {
      "inputs": [
        {
          "internalType": "address",
          "name": "from",
          "type": "address"
        },
        {
          "internalType": "address",
          "name": "to",
          "type": "address"
        },
        {
          "internalType": "uint256",
          "name": "tokenId",
          "type": "uint256"
        }
      ],
      "name": "safeTransferFrom",
      "outputs": [],
      "stateMutability": "nonpayable",
      "type": "function"
    },
    {
      "inputs": [
        {
          "internalType": "address",
          "name": "from",
          "type": "address"
        },
        {
          "internalType": "address",
          "name": "to",
          "type": "address"
        },
        {
          "internalType": "uint256",
          "name": "tokenId",
          "type": "uint256"
        },
        {
          "internalType": "bytes",
          "name": "data",
          "type": "bytes"
        }
      ],
      "name": "safeTransferFrom",
      "outputs": [],
      "stateMutability": "nonpayable",
      "type": "function"
    },
    {
      "inputs": [
        {
          "internalType": "address",
          "name": "operator",
          "type": "address"
        },
        {
          "internalType": "bool",
          "name": "approved",
          "type": "bool"
        }
      ],
      "name": "setApprovalForAll",
      "outputs": [],
      "stateMutability": "nonpayable",
      "type": "function"
    },
    {
      "inputs": [
        {
          "internalType": "uint256",
          "name": "tokenId",
          "type": "uint256"
        },
        {
          "internalType": "address",
          "name": "user",
          "type": "address"
        },
        {
          "internalType": "uint64",
          "name": "expires",
          "type": "uint64"
        }
      ],
      "name": "setUser",
      "outputs": [],
      "stateMutability": "nonpayable",
      "type": "function"
    },
    {
      "inputs": [
        {
          "internalType": "bytes4",
          "name": "interfaceId",
          "type": "bytes4"
        }
      ],
      "name": "supportsInterface",
      "outputs": [
        {
          "internalType": "bool",
          "name": "",
          "type": "bool"
        }
      ],
      "stateMutability": "view",
      "type": "function",
      "constant": true
    },
    {
      "inputs": [],
      "name": "symbol",
      "outputs": [
        {
          "internalType": "string",
          "name": "",
          "type": "string"
        }
      ],
      "stateMutability": "view",
      "type": "function",
      "constant": true
    },
    {
      "inputs": [
        {
          "internalType": "uint256",
          "name": "tokenId",
          "type": "uint256"
        }
      ],
      "name": "tokenURI",
      "outputs": [
        {
          "internalType": "string",
          "name": "",
          "type": "string"
        }
      ],
      "stateMutability": "view",
      "type": "function",
      "constant": true
    },
    {
      "inputs": [
        {
          "internalType": "address",
          "name": "from",
          "type": "address"
        },
        {
          "internalType": "address",
          "name": "to",
          "type": "address"
        },
        {
          "internalType": "uint256",
          "name": "tokenId",
          "type": "uint256"
        }
      ],
      "name": "transferFrom",
      "outputs": [],
      "stateMutability": "nonpayable",
      "type": "function"
    },
    {
      "inputs": [
        {
          "internalType": "uint256",
          "name": "tokenId",
          "type": "uint256"
        }
      ],
      "name": "userExpires",
      "outputs": [
        {
          "internalType": "uint256",
          "name": "",
          "type": "uint256"
        }
      ],
      "stateMutability": "view",
      "type": "function",
      "constant": true
    },
    {
      "inputs": [
        {
          "internalType": "uint256",
          "name": "tokenId",
          "type": "uint256"
        }
      ],
      "name": "userOf",
      "outputs": [
        {
          "internalType": "address",
          "name": "",
          "type": "address"
        }
      ],
      "stateMutability": "view",
      "type": "function",
      "constant": true
    },
    {
      "inputs": [
        {
          "internalType": "string",
          "name": "_tokenURI",
          "type": "string"
        }
      ],
      "name": "mint",
      "outputs": [],
      "stateMutability": "nonpayable",
      "type": "function"
    },
    {
      "inputs": [
        {
          "internalType": "uint256",
          "name": "tokenId",
          "type": "uint256"
        }
      ],
      "name": "burn",
      "outputs": [],
      "stateMutability": "nonpayable",
      "type": "function"
    }
  ],
  "bytecode": "0x60a06040523480156200001157600080fd5b5060405162003b6e38038062003b6e8339818101604052810190620000379190620001fb565b816040518060400160405280600b81526020017f52656e7461626c654e66740000000000000000000000000000000000000000008152506040518060400160405280600481526020017f524e46540000000000000000000000000000000000000000000000000000000081525081818160009081620000b79190620004bc565b508060019081620000c99190620004bc565b50505050508073ffffffffffffffffffffffffffffffffffffffff1660808173ffffffffffffffffffffffffffffffffffffffff16815250505080600860006101000a81548173ffffffffffffffffffffffffffffffffffffffff021916908373ffffffffffffffffffffffffffffffffffffffff1602179055505050620005a3565b600080fd5b600073ffffffffffffffffffffffffffffffffffffffff82169050919050565b60006200017e8262000151565b9050919050565b6000620001928262000171565b9050919050565b620001a48162000185565b8114620001b057600080fd5b50565b600081519050620001c48162000199565b92915050565b620001d58162000171565b8114620001e157600080fd5b50565b600081519050620001f581620001ca565b92915050565b600080604083850312156200021557620002146200014c565b5b60006200022585828601620001b3565b92505060206200023885828601620001e4565b9150509250929050565b600081519050919050565b7f4e487b7100000000000000000000000000000000000000000000000000000000600052604160045260246000fd5b7f4e487b7100000000000000000000000000000000000000000000000000000000600052602260045260246000fd5b60006002820490506001821680620002c457607f821691505b602082108103620002da57620002d96200027c565b5b50919050565b60008190508160005260206000209050919050565b60006020601f8301049050919050565b600082821b905092915050565b600060088302620003447fffffffffffffffffffffffffffffffffffffffffffffffffffffffffffffffff8262000305565b62000350868362000305565b95508019841693508086168417925050509392505050565b6000819050919050565b6000819050919050565b60006200039d62000397620003918462000368565b62000372565b62000368565b9050919050565b6000819050919050565b620003b9836200037c565b620003d1620003c882620003a4565b84845462000312565b825550505050565b600090565b620003e8620003d9565b620003f5818484620003ae565b505050565b5b818110156200041d5762000411600082620003de565b600181019050620003fb565b5050565b601f8211156200046c576200043681620002e0565b6200044184620002f5565b8101602085101562000451578190505b620004696200046085620002f5565b830182620003fa565b50505b505050565b600082821c905092915050565b6000620004916000198460080262000471565b1980831691505092915050565b6000620004ac83836200047e565b9150826002028217905092915050565b620004c78262000242565b67ffffffffffffffff811115620004e357620004e26200024d565b5b620004ef8254620002ab565b620004fc82828562000421565b600060209050601f8311600181146200053457600084156200051f578287015190505b6200052b85826200049e565b8655506200059b565b601f1984166200054486620002e0565b60005b828110156200056e5784890151825560018201915060208501945060208101905062000547565b868310156200058e57848901516200058a601f8916826200047e565b8355505b6001600288020188555050505b505050505050565b6080516135af620005bf60003960006106eb01526135af6000f3fe608060405234801561001057600080fd5b50600436106101215760003560e01c806370a08231116100ad578063c2f1f14a11610071578063c2f1f14a1461032a578063c87b56dd1461035a578063d85d3d271461038a578063e030565e146103a6578063e985e9c5146103c257610121565b806370a08231146102745780638fc88c48146102a457806395d89b41146102d4578063a22cb465146102f2578063b88d4fde1461030e57610121565b806323b872dd116100f457806323b872dd146101c057806342842e0e146101dc57806342966c68146101f8578063572b6c05146102145780636352211e1461024457610121565b806301ffc9a71461012657806306fdde0314610156578063081812fc14610174578063095ea7b3146101a4575b600080fd5b610140600480360381019061013b919061224a565b6103f2565b60405161014d9190612292565b60405180910390f35b61015e61046c565b60405161016b9190612346565b60405180910390f35b61018e6004803603810190610189919061239e565b6104fe565b60405161019b919061240c565b60405180910390f35b6101be60048036038101906101b99190612453565b610544565b005b6101da60048036038101906101d59190612493565b61065b565b005b6101f660048036038101906101f19190612493565b6106bb565b005b610212600480360381019061020d919061239e565b6106db565b005b61022e600480360381019061022991906124e6565b6106e7565b60405161023b9190612292565b60405180910390f35b61025e6004803603810190610259919061239e565b61073f565b60405161026b919061240c565b60405180910390f35b61028e600480360381019061028991906124e6565b6107c5565b60405161029b9190612522565b60405180910390f35b6102be60048036038101906102b9919061239e565b61087c565b6040516102cb9190612522565b60405180910390f35b6102dc6108ba565b6040516102e99190612346565b60405180910390f35b61030c60048036038101906103079190612569565b61094c565b005b610328600480360381019061032391906126de565b610962565b005b610344600480360381019061033f919061239e565b6109c4565b604051610351919061240c565b60405180910390f35b610374600480360381019061036f919061239e565b610a49565b6040516103819190612346565b60405180910390f35b6103a4600480360381019061039f9190612802565b610b5b565b005b6103c060048036038101906103bb919061288b565b610bbf565b005b6103dc60048036038101906103d791906128de565b610ce2565b6040516103e99190612292565b60405180910390f35b60007fad092b5c000000000000000000000000000000000000000000000000000000007bffffffffffffffffffffffffffffffffffffffffffffffffffffffff1916827bffffffffffffffffffffffffffffffffffffffffffffffffffffffff19161480610465575061046482610d76565b5b9050919050565b60606000805461047b9061294d565b80601f01602080910402602001604051908101604052809291908181526020018280546104a79061294d565b80156104f45780601f106104c9576101008083540402835291602001916104f4565b820191906000526020600020905b8154815290600101906020018083116104d757829003601f168201915b5050505050905090565b600061050982610e58565b6004600083815260200190815260200160002060009054906101000a900473ffffffffffffffffffffffffffffffffffffffff169050919050565b600061054f8261073f565b90508073ffffffffffffffffffffffffffffffffffffffff168373ffffffffffffffffffffffffffffffffffffffff16036105bf576040517f08c379a00000000000000000000000000000000000000000000000000000000081526004016105b6906129f0565b60405180910390fd5b8073ffffffffffffffffffffffffffffffffffffffff166105de610ea3565b73ffffffffffffffffffffffffffffffffffffffff16148061060d575061060c81610607610ea3565b610ce2565b5b61064c576040517f08c379a000000000000000000000000000000000000000000000000000000000815260040161064390612a82565b60405180910390fd5b6106568383610eb2565b505050565b61066c610666610ea3565b82610f6b565b6106ab576040517f08c379a00000000000000000000000000000000000000000000000000000000081526004016106a290612b14565b60405180910390fd5b6106b6838383611000565b505050565b6106d683838360405180602001604052806000815250610962565b505050565b6106e4816112f9565b50565b60007f000000000000000000000000000000000000000000000000000000000000000073ffffffffffffffffffffffffffffffffffffffff168273ffffffffffffffffffffffffffffffffffffffff16149050919050565b60008061074b8361134c565b9050600073ffffffffffffffffffffffffffffffffffffffff168173ffffffffffffffffffffffffffffffffffffffff16036107bc576040517f08c379a00000000000000000000000000000000000000000000000000000000081526004016107b390612b80565b60405180910390fd5b80915050919050565b60008073ffffffffffffffffffffffffffffffffffffffff168273ffffffffffffffffffffffffffffffffffffffff1603610835576040517f08c379a000000000000000000000000000000000000000000000000000000000815260040161082c90612c12565b60405180910390fd5b600360008373ffffffffffffffffffffffffffffffffffffffff1673ffffffffffffffffffffffffffffffffffffffff168152602001908152602001600020549050919050565b60006007600083815260200190815260200160002060000160149054906101000a900467ffffffffffffffff1667ffffffffffffffff169050919050565b6060600180546108c99061294d565b80601f01602080910402602001604051908101604052809291908181526020018280546108f59061294d565b80156109425780601f1061091757610100808354040283529160200191610942565b820191906000526020600020905b81548152906001019060200180831161092557829003601f168201915b5050505050905090565b61095e610957610ea3565b8383611389565b5050565b61097361096d610ea3565b83610f6b565b6109b2576040517f08c379a00000000000000000000000000000000000000000000000000000000081526004016109a990612b14565b60405180910390fd5b6109be848484846114f5565b50505050565b6000426007600084815260200190815260200160002060000160149054906101000a900467ffffffffffffffff1667ffffffffffffffff1610610a3f576007600083815260200190815260200160002060000160009054906101000a900473ffffffffffffffffffffffffffffffffffffffff169050610a44565b600090505b919050565b6060610a5482610e58565b6000600660008481526020019081526020016000208054610a749061294d565b80601f0160208091040260200160405190810160405280929190818152602001828054610aa09061294d565b8015610aed5780601f10610ac257610100808354040283529160200191610aed565b820191906000526020600020905b815481529060010190602001808311610ad057829003601f168201915b505050505090506000610afe611551565b90506000815103610b13578192505050610b56565b600082511115610b48578082604051602001610b30929190612c6e565b60405160208183030381529060405292505050610b56565b610b5184611568565b925050505b919050565b610b6560096115d0565b6000610b7160096115e6565b9050610b84610b7e610ea3565b826115f4565b610bb1600860009054906101000a900473ffffffffffffffffffffffffffffffffffffffff16600161094c565b610bbb8183611612565b5050565b610bc93384610f6b565b610c08576040517f08c379a0000000000000000000000000000000000000000000000000000000008152600401610bff90612d04565b60405180910390fd5b6000600760008581526020019081526020016000209050828160000160006101000a81548173ffffffffffffffffffffffffffffffffffffffff021916908373ffffffffffffffffffffffffffffffffffffffff160217905550818160000160146101000a81548167ffffffffffffffff021916908367ffffffffffffffff1602179055508273ffffffffffffffffffffffffffffffffffffffff16847f4e06b4e7000e659094299b3533b47b6aa8ad048e95e872d23d1f4ee55af89cfe84604051610cd49190612d33565b60405180910390a350505050565b6000600560008473ffffffffffffffffffffffffffffffffffffffff1673ffffffffffffffffffffffffffffffffffffffff16815260200190815260200160002060008373ffffffffffffffffffffffffffffffffffffffff1673ffffffffffffffffffffffffffffffffffffffff16815260200190815260200160002060009054906101000a900460ff16905092915050565b60007f80ac58cd000000000000000000000000000000000000000000000000000000007bffffffffffffffffffffffffffffffffffffffffffffffffffffffff1916827bffffffffffffffffffffffffffffffffffffffffffffffffffffffff19161480610e4157507f5b5e139f000000000000000000000000000000000000000000000000000000007bffffffffffffffffffffffffffffffffffffffffffffffffffffffff1916827bffffffffffffffffffffffffffffffffffffffffffffffffffffffff1916145b80610e515750610e508261167f565b5b9050919050565b610e61816116e9565b610ea0576040517f08c379a0000000000000000000000000000000000000000000000000000000008152600401610e9790612b80565b60405180910390fd5b50565b6000610ead61172a565b905090565b816004600083815260200190815260200160002060006101000a81548173ffffffffffffffffffffffffffffffffffffffff021916908373ffffffffffffffffffffffffffffffffffffffff160217905550808273ffffffffffffffffffffffffffffffffffffffff16610f258361073f565b73ffffffffffffffffffffffffffffffffffffffff167f8c5be1e5ebec7d5bd14f71427d1e84f3dd0314c0f7b2291e5b200ac8c7c3b92560405160405180910390a45050565b600080610f778361073f565b90508073ffffffffffffffffffffffffffffffffffffffff168473ffffffffffffffffffffffffffffffffffffffff161480610fb95750610fb88185610ce2565b5b80610ff757508373ffffffffffffffffffffffffffffffffffffffff16610fdf846104fe565b73ffffffffffffffffffffffffffffffffffffffff16145b91505092915050565b8273ffffffffffffffffffffffffffffffffffffffff166110208261073f565b73ffffffffffffffffffffffffffffffffffffffff1614611076576040517f08c379a000000000000000000000000000000000000000000000000000000000815260040161106d90612dc0565b60405180910390fd5b600073ffffffffffffffffffffffffffffffffffffffff168273ffffffffffffffffffffffffffffffffffffffff16036110e5576040517f08c379a00000000000000000000000000000000000000000000000000000000081526004016110dc90612e52565b60405180910390fd5b6110f2838383600161175c565b8273ffffffffffffffffffffffffffffffffffffffff166111128261073f565b73ffffffffffffffffffffffffffffffffffffffff1614611168576040517f08c379a000000000000000000000000000000000000000000000000000000000815260040161115f90612dc0565b60405180910390fd5b6004600082815260200190815260200160002060006101000a81549073ffffffffffffffffffffffffffffffffffffffff02191690556001600360008573ffffffffffffffffffffffffffffffffffffffff1673ffffffffffffffffffffffffffffffffffffffff168152602001908152602001600020600082825403925050819055506001600360008473ffffffffffffffffffffffffffffffffffffffff1673ffffffffffffffffffffffffffffffffffffffff16815260200190815260200160002060008282540192505081905550816002600083815260200190815260200160002060006101000a81548173ffffffffffffffffffffffffffffffffffffffff021916908373ffffffffffffffffffffffffffffffffffffffff160217905550808273ffffffffffffffffffffffffffffffffffffffff168473ffffffffffffffffffffffffffffffffffffffff167fddf252ad1be2c89b69c2b068fc378daa952ba7f163c4a11628f55a4df523b3ef60405160405180910390a46112f483838360016118bc565b505050565b611302816118c2565b60006006600083815260200190815260200160002080546113229061294d565b905014611349576006600082815260200190815260200160002060006113489190612181565b5b50565b60006002600083815260200190815260200160002060009054906101000a900473ffffffffffffffffffffffffffffffffffffffff169050919050565b8173ffffffffffffffffffffffffffffffffffffffff168373ffffffffffffffffffffffffffffffffffffffff16036113f7576040517f08c379a00000000000000000000000000000000000000000000000000000000081526004016113ee90612ebe565b60405180910390fd5b80600560008573ffffffffffffffffffffffffffffffffffffffff1673ffffffffffffffffffffffffffffffffffffffff16815260200190815260200160002060008473ffffffffffffffffffffffffffffffffffffffff1673ffffffffffffffffffffffffffffffffffffffff16815260200190815260200160002060006101000a81548160ff0219169083151502179055508173ffffffffffffffffffffffffffffffffffffffff168373ffffffffffffffffffffffffffffffffffffffff167f17307eab39ab6107e8899845ad3d59bd9653f200f220920489ca2b5937696c31836040516114e89190612292565b60405180910390a3505050565b611500848484611000565b61150c84848484611a10565b61154b576040517f08c379a000000000000000000000000000000000000000000000000000000000815260040161154290612f50565b60405180910390fd5b50505050565b606060405180602001604052806000815250905090565b606061157382610e58565b600061157d611551565b9050600081511161159d57604051806020016040528060008152506115c8565b806115a784611b97565b6040516020016115b8929190612c6e565b6040516020818303038152906040525b915050919050565b6001816000016000828254019250508190555050565b600081600001549050919050565b61160e828260405180602001604052806000815250611c65565b5050565b61161b826116e9565b61165a576040517f08c379a000000000000000000000000000000000000000000000000000000000815260040161165190612fe2565b60405180910390fd5b8060066000848152602001908152602001600020908161167a91906131ae565b505050565b60007f01ffc9a7000000000000000000000000000000000000000000000000000000007bffffffffffffffffffffffffffffffffffffffffffffffffffffffff1916827bffffffffffffffffffffffffffffffffffffffffffffffffffffffff1916149050919050565b60008073ffffffffffffffffffffffffffffffffffffffff1661170b8361134c565b73ffffffffffffffffffffffffffffffffffffffff1614159050919050565b6000611735336106e7565b1561174957601436033560601c9050611758565b611751611cc0565b9050611759565b5b90565b61176884848484611cc8565b8273ffffffffffffffffffffffffffffffffffffffff168473ffffffffffffffffffffffffffffffffffffffff16141580156118075750600073ffffffffffffffffffffffffffffffffffffffff166007600084815260200190815260200160002060000160009054906101000a900473ffffffffffffffffffffffffffffffffffffffff1673ffffffffffffffffffffffffffffffffffffffff1614155b156118b65760076000838152602001908152602001600020600080820160006101000a81549073ffffffffffffffffffffffffffffffffffffffff02191690556000820160146101000a81549067ffffffffffffffff02191690555050600073ffffffffffffffffffffffffffffffffffffffff16827f4e06b4e7000e659094299b3533b47b6aa8ad048e95e872d23d1f4ee55af89cfe60006040516118ad91906132bb565b60405180910390a35b50505050565b50505050565b60006118cd8261073f565b90506118dd81600084600161175c565b6118e68261073f565b90506004600083815260200190815260200160002060006101000a81549073ffffffffffffffffffffffffffffffffffffffff02191690556001600360008373ffffffffffffffffffffffffffffffffffffffff1673ffffffffffffffffffffffffffffffffffffffff168152602001908152602001600020600082825403925050819055506002600083815260200190815260200160002060006101000a81549073ffffffffffffffffffffffffffffffffffffffff021916905581600073ffffffffffffffffffffffffffffffffffffffff168273ffffffffffffffffffffffffffffffffffffffff167fddf252ad1be2c89b69c2b068fc378daa952ba7f163c4a11628f55a4df523b3ef60405160405180910390a4611a0c8160008460016118bc565b5050565b6000611a318473ffffffffffffffffffffffffffffffffffffffff16611dee565b15611b8a578373ffffffffffffffffffffffffffffffffffffffff1663150b7a02611a5a610ea3565b8786866040518563ffffffff1660e01b8152600401611a7c949392919061332b565b6020604051808303816000875af1925050508015611ab857506040513d601f19601f82011682018060405250810190611ab5919061338c565b60015b611b3a573d8060008114611ae8576040519150601f19603f3d011682016040523d82523d6000602084013e611aed565b606091505b506000815103611b32576040517f08c379a0000000000000000000000000000000000000000000000000000000008152600401611b2990612f50565b60405180910390fd5b805181602001fd5b63150b7a0260e01b7bffffffffffffffffffffffffffffffffffffffffffffffffffffffff1916817bffffffffffffffffffffffffffffffffffffffffffffffffffffffff191614915050611b8f565b600190505b949350505050565b606060006001611ba684611e11565b01905060008167ffffffffffffffff811115611bc557611bc46125b3565b5b6040519080825280601f01601f191660200182016040528015611bf75781602001600182028036833780820191505090505b509050600082602001820190505b600115611c5a578080600190039150507f3031323334353637383961626364656600000000000000000000000000000000600a86061a8153600a8581611c4e57611c4d6133b9565b5b04945060008503611c05575b819350505050919050565b611c6f8383611f64565b611c7c6000848484611a10565b611cbb576040517f08c379a0000000000000000000000000000000000000000000000000000000008152600401611cb290612f50565b60405180910390fd5b505050565b600033905090565b6001811115611de857600073ffffffffffffffffffffffffffffffffffffffff168473ffffffffffffffffffffffffffffffffffffffff1614611d5c5780600360008673ffffffffffffffffffffffffffffffffffffffff1673ffffffffffffffffffffffffffffffffffffffff1681526020019081526020016000206000828254611d549190613417565b925050819055505b600073ffffffffffffffffffffffffffffffffffffffff168373ffffffffffffffffffffffffffffffffffffffff1614611de75780600360008573ffffffffffffffffffffffffffffffffffffffff1673ffffffffffffffffffffffffffffffffffffffff1681526020019081526020016000206000828254611ddf919061344b565b925050819055505b5b50505050565b6000808273ffffffffffffffffffffffffffffffffffffffff163b119050919050565b600080600090507a184f03e93ff9f4daa797ed6e38ed64bf6a1f0100000000000000008310611e6f577a184f03e93ff9f4daa797ed6e38ed64bf6a1f0100000000000000008381611e6557611e646133b9565b5b0492506040810190505b6d04ee2d6d415b85acef81000000008310611eac576d04ee2d6d415b85acef81000000008381611ea257611ea16133b9565b5b0492506020810190505b662386f26fc100008310611edb57662386f26fc100008381611ed157611ed06133b9565b5b0492506010810190505b6305f5e1008310611f04576305f5e1008381611efa57611ef96133b9565b5b0492506008810190505b6127108310611f29576127108381611f1f57611f1e6133b9565b5b0492506004810190505b60648310611f4c5760648381611f4257611f416133b9565b5b0492506002810190505b600a8310611f5b576001810190505b80915050919050565b600073ffffffffffffffffffffffffffffffffffffffff168273ffffffffffffffffffffffffffffffffffffffff1603611fd3576040517f08c379a0000000000000000000000000000000000000000000000000000000008152600401611fca906134ed565b60405180910390fd5b611fdc816116e9565b1561201c576040517f08c379a000000000000000000000000000000000000000000000000000000000815260040161201390613559565b60405180910390fd5b61202a60008383600161175c565b612033816116e9565b15612073576040517f08c379a000000000000000000000000000000000000000000000000000000000815260040161206a90613559565b60405180910390fd5b6001600360008473ffffffffffffffffffffffffffffffffffffffff1673ffffffffffffffffffffffffffffffffffffffff16815260200190815260200160002060008282540192505081905550816002600083815260200190815260200160002060006101000a81548173ffffffffffffffffffffffffffffffffffffffff021916908373ffffffffffffffffffffffffffffffffffffffff160217905550808273ffffffffffffffffffffffffffffffffffffffff16600073ffffffffffffffffffffffffffffffffffffffff167fddf252ad1be2c89b69c2b068fc378daa952ba7f163c4a11628f55a4df523b3ef60405160405180910390a461217d6000838360016118bc565b5050565b50805461218d9061294d565b6000825580601f1061219f57506121be565b601f0160209004906000526020600020908101906121bd91906121c1565b5b50565b5b808211156121da5760008160009055506001016121c2565b5090565b6000604051905090565b600080fd5b600080fd5b60007fffffffff0000000000000000000000000000000000000000000000000000000082169050919050565b612227816121f2565b811461223257600080fd5b50565b6000813590506122448161221e565b92915050565b6000602082840312156122605761225f6121e8565b5b600061226e84828501612235565b91505092915050565b60008115159050919050565b61228c81612277565b82525050565b60006020820190506122a76000830184612283565b92915050565b600081519050919050565b600082825260208201905092915050565b60005b838110156122e75780820151818401526020810190506122cc565b838111156122f6576000848401525b50505050565b6000601f19601f8301169050919050565b6000612318826122ad565b61232281856122b8565b93506123328185602086016122c9565b61233b816122fc565b840191505092915050565b60006020820190508181036000830152612360818461230d565b905092915050565b6000819050919050565b61237b81612368565b811461238657600080fd5b50565b60008135905061239881612372565b92915050565b6000602082840312156123b4576123b36121e8565b5b60006123c284828501612389565b91505092915050565b600073ffffffffffffffffffffffffffffffffffffffff82169050919050565b60006123f6826123cb565b9050919050565b612406816123eb565b82525050565b600060208201905061242160008301846123fd565b92915050565b612430816123eb565b811461243b57600080fd5b50565b60008135905061244d81612427565b92915050565b6000806040838503121561246a576124696121e8565b5b60006124788582860161243e565b925050602061248985828601612389565b9150509250929050565b6000806000606084860312156124ac576124ab6121e8565b5b60006124ba8682870161243e565b93505060206124cb8682870161243e565b92505060406124dc86828701612389565b9150509250925092565b6000602082840312156124fc576124fb6121e8565b5b600061250a8482850161243e565b91505092915050565b61251c81612368565b82525050565b60006020820190506125376000830184612513565b92915050565b61254681612277565b811461255157600080fd5b50565b6000813590506125638161253d565b92915050565b600080604083850312156125805761257f6121e8565b5b600061258e8582860161243e565b925050602061259f85828601612554565b9150509250929050565b600080fd5b600080fd5b7f4e487b7100000000000000000000000000000000000000000000000000000000600052604160045260246000fd5b6125eb826122fc565b810181811067ffffffffffffffff8211171561260a576126096125b3565b5b80604052505050565b600061261d6121de565b905061262982826125e2565b919050565b600067ffffffffffffffff821115612649576126486125b3565b5b612652826122fc565b9050602081019050919050565b82818337600083830152505050565b600061268161267c8461262e565b612613565b90508281526020810184848401111561269d5761269c6125ae565b5b6126a884828561265f565b509392505050565b600082601f8301126126c5576126c46125a9565b5b81356126d584826020860161266e565b91505092915050565b600080600080608085870312156126f8576126f76121e8565b5b60006127068782880161243e565b94505060206127178782880161243e565b935050604061272887828801612389565b925050606085013567ffffffffffffffff811115612749576127486121ed565b5b612755878288016126b0565b91505092959194509250565b600067ffffffffffffffff82111561277c5761277b6125b3565b5b612785826122fc565b9050602081019050919050565b60006127a56127a084612761565b612613565b9050828152602081018484840111156127c1576127c06125ae565b5b6127cc84828561265f565b509392505050565b600082601f8301126127e9576127e86125a9565b5b81356127f9848260208601612792565b91505092915050565b600060208284031215612818576128176121e8565b5b600082013567ffffffffffffffff811115612836576128356121ed565b5b612842848285016127d4565b91505092915050565b600067ffffffffffffffff82169050919050565b6128688161284b565b811461287357600080fd5b50565b6000813590506128858161285f565b92915050565b6000806000606084860312156128a4576128a36121e8565b5b60006128b286828701612389565b93505060206128c38682870161243e565b92505060406128d486828701612876565b9150509250925092565b600080604083850312156128f5576128f46121e8565b5b60006129038582860161243e565b92505060206129148582860161243e565b9150509250929050565b7f4e487b7100000000000000000000000000000000000000000000000000000000600052602260045260246000fd5b6000600282049050600182168061296557607f821691505b6020821081036129785761297761291e565b5b50919050565b7f4552433732313a20617070726f76616c20746f2063757272656e74206f776e6560008201527f7200000000000000000000000000000000000000000000000000000000000000602082015250565b60006129da6021836122b8565b91506129e58261297e565b604082019050919050565b60006020820190508181036000830152612a09816129cd565b9050919050565b7f4552433732313a20617070726f76652063616c6c6572206973206e6f7420746f60008201527f6b656e206f776e6572206f7220617070726f76656420666f7220616c6c000000602082015250565b6000612a6c603d836122b8565b9150612a7782612a10565b604082019050919050565b60006020820190508181036000830152612a9b81612a5f565b9050919050565b7f4552433732313a2063616c6c6572206973206e6f7420746f6b656e206f776e6560008201527f72206f7220617070726f76656400000000000000000000000000000000000000602082015250565b6000612afe602d836122b8565b9150612b0982612aa2565b604082019050919050565b60006020820190508181036000830152612b2d81612af1565b9050919050565b7f4552433732313a20696e76616c696420746f6b656e2049440000000000000000600082015250565b6000612b6a6018836122b8565b9150612b7582612b34565b602082019050919050565b60006020820190508181036000830152612b9981612b5d565b9050919050565b7f4552433732313a2061646472657373207a65726f206973206e6f74206120766160008201527f6c6964206f776e65720000000000000000000000000000000000000000000000602082015250565b6000612bfc6029836122b8565b9150612c0782612ba0565b604082019050919050565b60006020820190508181036000830152612c2b81612bef565b9050919050565b600081905092915050565b6000612c48826122ad565b612c528185612c32565b9350612c628185602086016122c9565b80840191505092915050565b6000612c7a8285612c3d565b9150612c868284612c3d565b91508190509392505050565b7f4552433732313a207472616e736665722063616c6c6572206973206e6f74206f60008201527f776e6572206e6f7220617070726f766564000000000000000000000000000000602082015250565b6000612cee6031836122b8565b9150612cf982612c92565b604082019050919050565b60006020820190508181036000830152612d1d81612ce1565b9050919050565b612d2d8161284b565b82525050565b6000602082019050612d486000830184612d24565b92915050565b7f4552433732313a207472616e736665722066726f6d20696e636f72726563742060008201527f6f776e6572000000000000000000000000000000000000000000000000000000602082015250565b6000612daa6025836122b8565b9150612db582612d4e565b604082019050919050565b60006020820190508181036000830152612dd981612d9d565b9050919050565b7f4552433732313a207472616e7366657220746f20746865207a65726f2061646460008201527f7265737300000000000000000000000000000000000000000000000000000000602082015250565b6000612e3c6024836122b8565b9150612e4782612de0565b604082019050919050565b60006020820190508181036000830152612e6b81612e2f565b9050919050565b7f4552433732313a20617070726f766520746f2063616c6c657200000000000000600082015250565b6000612ea86019836122b8565b9150612eb382612e72565b602082019050919050565b60006020820190508181036000830152612ed781612e9b565b9050919050565b7f4552433732313a207472616e7366657220746f206e6f6e20455243373231526560008201527f63656976657220696d706c656d656e7465720000000000000000000000000000602082015250565b6000612f3a6032836122b8565b9150612f4582612ede565b604082019050919050565b60006020820190508181036000830152612f6981612f2d565b9050919050565b7f45524337323155524953746f726167653a2055524920736574206f66206e6f6e60008201527f6578697374656e7420746f6b656e000000000000000000000000000000000000602082015250565b6000612fcc602e836122b8565b9150612fd782612f70565b604082019050919050565b60006020820190508181036000830152612ffb81612fbf565b9050919050565b60008190508160005260206000209050919050565b60006020601f8301049050919050565b600082821b905092915050565b6000600883026130647fffffffffffffffffffffffffffffffffffffffffffffffffffffffffffffffff82613027565b61306e8683613027565b95508019841693508086168417925050509392505050565b6000819050919050565b60006130ab6130a66130a184612368565b613086565b612368565b9050919050565b6000819050919050565b6130c583613090565b6130d96130d1826130b2565b848454613034565b825550505050565b600090565b6130ee6130e1565b6130f98184846130bc565b505050565b5b8181101561311d576131126000826130e6565b6001810190506130ff565b5050565b601f8211156131625761313381613002565b61313c84613017565b8101602085101561314b578190505b61315f61315785613017565b8301826130fe565b50505b505050565b600082821c905092915050565b600061318560001984600802613167565b1980831691505092915050565b600061319e8383613174565b9150826002028217905092915050565b6131b7826122ad565b67ffffffffffffffff8111156131d0576131cf6125b3565b5b6131da825461294d565b6131e5828285613121565b600060209050601f8311600181146132185760008415613206578287015190505b6132108582613192565b865550613278565b601f19841661322686613002565b60005b8281101561324e57848901518255600182019150602085019450602081019050613229565b8683101561326b5784890151613267601f891682613174565b8355505b6001600288020188555050505b505050505050565b6000819050919050565b60006132a56132a061329b84613280565b613086565b61284b565b9050919050565b6132b58161328a565b82525050565b60006020820190506132d060008301846132ac565b92915050565b600081519050919050565b600082825260208201905092915050565b60006132fd826132d6565b61330781856132e1565b93506133178185602086016122c9565b613320816122fc565b840191505092915050565b600060808201905061334060008301876123fd565b61334d60208301866123fd565b61335a6040830185612513565b818103606083015261336c81846132f2565b905095945050505050565b6000815190506133868161221e565b92915050565b6000602082840312156133a2576133a16121e8565b5b60006133b084828501613377565b91505092915050565b7f4e487b7100000000000000000000000000000000000000000000000000000000600052601260045260246000fd5b7f4e487b7100000000000000000000000000000000000000000000000000000000600052601160045260246000fd5b600061342282612368565b915061342d83612368565b9250828210156134405761343f6133e8565b5b828203905092915050565b600061345682612368565b915061346183612368565b9250827fffffffffffffffffffffffffffffffffffffffffffffffffffffffffffffffff03821115613496576134956133e8565b5b828201905092915050565b7f4552433732313a206d696e7420746f20746865207a65726f2061646472657373600082015250565b60006134d76020836122b8565b91506134e2826134a1565b602082019050919050565b60006020820190508181036000830152613506816134ca565b9050919050565b7f4552433732313a20746f6b656e20616c7265616479206d696e74656400000000600082015250565b6000613543601c836122b8565b915061354e8261350d565b602082019050919050565b6000602082019050818103600083015261357281613536565b905091905056fea26469706673582212208d3a6678f10c981791ccf865adc30526bbb0e23ba5f628dc03110034637ac0b664736f6c634300080f0033",
  "immutableReferences": {
    "127": [
      {
        "length": 32,
        "start": 1771
      }
    ]
  },
  "source": "// SPDX-License-Identifier: MIT\npragma solidity >=0.4.22 <0.9.0;\n\nimport \"@openzeppelin/contracts/metatx/ERC2771Context.sol\";\nimport \"@openzeppelin/contracts/metatx/MinimalForwarder.sol\";\nimport \"@openzeppelin/contracts/utils/Counters.sol\";\nimport \"./ERC4907.sol\";\n\n\ncontract RentableNft is ERC4907, ERC2771Context {\n  using Counters for Counters.Counter;\n  address private _marketplaceContract;\n  Counters.Counter private _tokenIds;\n\n  constructor(MinimalForwarder forwarder, address marketplaceContract) ERC4907(\"RentableNft\", \"RNFT\") ERC2771Context(address(forwarder)) {\n    _marketplaceContract = marketplaceContract;\n  }\n\n  function mint(string memory _tokenURI) public {\n    _tokenIds.increment();\n    uint256 newTokenId = _tokenIds.current();\n    _safeMint(_msgSender(), newTokenId);\n    setApprovalForAll(_marketplaceContract, true);\n    _setTokenURI(newTokenId, _tokenURI);\n  }\n\n  function burn(uint256 tokenId) public {\n    _burn(tokenId);\n  }\n\n  function _msgSender() internal view override(Context, ERC2771Context) returns(address) {\n    return ERC2771Context._msgSender();\n  } \n\n  function _msgData() internal view override(Context, ERC2771Context) returns(bytes calldata) {\n    return ERC2771Context._msgData();\n  }\n}",
  "sourcePath": "/Users/stephan.gerbeth/dev/rentable-nft-marketplace/contracts/RentableNFT.sol",
  "compiler": {
    "name": "solc",
    "version": "0.8.15+commit.e14f2714.Emscripten.clang"
  },
  "schemaVersion": "3.4.13",
  "updatedAt": "2023-05-14T09:20:46.422Z",
  "networkType": "ethereum",
  "devdoc": {
    "kind": "dev",
    "methods": {
      "approve(address,uint256)": {
        "details": "See {IERC721-approve}."
      },
      "balanceOf(address)": {
        "details": "See {IERC721-balanceOf}."
      },
      "getApproved(uint256)": {
        "details": "See {IERC721-getApproved}."
      },
      "isApprovedForAll(address,address)": {
        "details": "See {IERC721-isApprovedForAll}."
      },
      "name()": {
        "details": "See {IERC721Metadata-name}."
      },
      "ownerOf(uint256)": {
        "details": "See {IERC721-ownerOf}."
      },
      "safeTransferFrom(address,address,uint256)": {
        "details": "See {IERC721-safeTransferFrom}."
      },
      "safeTransferFrom(address,address,uint256,bytes)": {
        "details": "See {IERC721-safeTransferFrom}."
      },
      "setApprovalForAll(address,bool)": {
        "details": "See {IERC721-setApprovalForAll}."
      },
      "setUser(uint256,address,uint64)": {
        "details": "The zero address indicates there is no user Throws if `tokenId` is not valid NFT",
        "params": {
          "expires": "UNIX timestamp, The new user could use the NFT before expires",
          "user": "The new user of the NFT"
        }
      },
      "supportsInterface(bytes4)": {
        "details": "See {IERC165-supportsInterface}."
      },
      "symbol()": {
        "details": "See {IERC721Metadata-symbol}."
      },
      "tokenURI(uint256)": {
        "details": "See {IERC721Metadata-tokenURI}."
      },
      "transferFrom(address,address,uint256)": {
        "details": "See {IERC721-transferFrom}."
      },
      "userExpires(uint256)": {
        "details": "The zero value indicates that there is no user",
        "params": {
          "tokenId": "The NFT to get the user expires for"
        },
        "returns": {
          "_0": "The user expires for this NFT"
        }
      },
      "userOf(uint256)": {
        "details": "The zero address indicates that there is no user or the user is expired",
        "params": {
          "tokenId": "The NFT to get the user address for"
        },
        "returns": {
          "_0": "The user address for this NFT"
        }
      }
    },
    "version": 1
  },
  "userdoc": {
    "events": {
      "UpdateUser(uint256,address,uint64)": {
        "notice": "Emitted when the `user` of an NFT or the `expires` of the `user` is changed The zero address for user indicates that there is no user address"
      }
    },
    "kind": "user",
    "methods": {
      "setUser(uint256,address,uint64)": {
        "notice": "set the user and expires of a NFT"
      },
      "userExpires(uint256)": {
        "notice": "Get the user expires of an NFT"
      },
      "userOf(uint256)": {
        "notice": "Get the user address of an NFT"
      }
    },
    "version": 1
  }
}