{
  "contractName": "RentableNft",
  "abi": [
    {
      "inputs": [
        {
          "internalType": "address",
          "name": "marketplaceContract",
          "type": "address"
        }
      ],
      "stateMutability": "nonpayable",
      "type": "constructor"
    },
    {
      "anonymous": false,
      "inputs": [
        {
          "indexed": true,
          "internalType": "address",
          "name": "owner",
          "type": "address"
        },
        {
          "indexed": true,
          "internalType": "address",
          "name": "approved",
          "type": "address"
        },
        {
          "indexed": true,
          "internalType": "uint256",
          "name": "tokenId",
          "type": "uint256"
        }
      ],
      "name": "Approval",
      "type": "event"
    },
    {
      "anonymous": false,
      "inputs": [
        {
          "indexed": true,
          "internalType": "address",
          "name": "owner",
          "type": "address"
        },
        {
          "indexed": true,
          "internalType": "address",
          "name": "operator",
          "type": "address"
        },
        {
          "indexed": false,
          "internalType": "bool",
          "name": "approved",
          "type": "bool"
        }
      ],
      "name": "ApprovalForAll",
      "type": "event"
    },
    {
      "anonymous": false,
      "inputs": [
        {
          "indexed": true,
          "internalType": "address",
          "name": "from",
          "type": "address"
        },
        {
          "indexed": true,
          "internalType": "address",
          "name": "to",
          "type": "address"
        },
        {
          "indexed": true,
          "internalType": "uint256",
          "name": "tokenId",
          "type": "uint256"
        }
      ],
      "name": "Transfer",
      "type": "event"
    },
    {
      "anonymous": false,
      "inputs": [
        {
          "indexed": true,
          "internalType": "uint256",
          "name": "tokenId",
          "type": "uint256"
        },
        {
          "indexed": true,
          "internalType": "address",
          "name": "user",
          "type": "address"
        },
        {
          "indexed": false,
          "internalType": "uint64",
          "name": "expires",
          "type": "uint64"
        }
      ],
      "name": "UpdateUser",
      "type": "event"
    },
    {
      "inputs": [
        {
          "internalType": "address",
          "name": "to",
          "type": "address"
        },
        {
          "internalType": "uint256",
          "name": "tokenId",
          "type": "uint256"
        }
      ],
      "name": "approve",
      "outputs": [],
      "stateMutability": "nonpayable",
      "type": "function"
    },
    {
      "inputs": [
        {
          "internalType": "address",
          "name": "owner",
          "type": "address"
        }
      ],
      "name": "balanceOf",
      "outputs": [
        {
          "internalType": "uint256",
          "name": "",
          "type": "uint256"
        }
      ],
      "stateMutability": "view",
      "type": "function",
      "constant": true
    },
    {
      "inputs": [
        {
          "internalType": "uint256",
          "name": "tokenId",
          "type": "uint256"
        }
      ],
      "name": "getApproved",
      "outputs": [
        {
          "internalType": "address",
          "name": "",
          "type": "address"
        }
      ],
      "stateMutability": "view",
      "type": "function",
      "constant": true
    },
    {
      "inputs": [
        {
          "internalType": "address",
          "name": "owner",
          "type": "address"
        },
        {
          "internalType": "address",
          "name": "operator",
          "type": "address"
        }
      ],
      "name": "isApprovedForAll",
      "outputs": [
        {
          "internalType": "bool",
          "name": "",
          "type": "bool"
        }
      ],
      "stateMutability": "view",
      "type": "function",
      "constant": true
    },
    {
      "inputs": [],
      "name": "name",
      "outputs": [
        {
          "internalType": "string",
          "name": "",
          "type": "string"
        }
      ],
      "stateMutability": "view",
      "type": "function",
      "constant": true
    },
    {
      "inputs": [
        {
          "internalType": "uint256",
          "name": "tokenId",
          "type": "uint256"
        }
      ],
      "name": "ownerOf",
      "outputs": [
        {
          "internalType": "address",
          "name": "",
          "type": "address"
        }
      ],
      "stateMutability": "view",
      "type": "function",
      "constant": true
    },
    {
      "inputs": [
        {
          "internalType": "address",
          "name": "from",
          "type": "address"
        },
        {
          "internalType": "address",
          "name": "to",
          "type": "address"
        },
        {
          "internalType": "uint256",
          "name": "tokenId",
          "type": "uint256"
        }
      ],
      "name": "safeTransferFrom",
      "outputs": [],
      "stateMutability": "nonpayable",
      "type": "function"
    },
    {
      "inputs": [
        {
          "internalType": "address",
          "name": "from",
          "type": "address"
        },
        {
          "internalType": "address",
          "name": "to",
          "type": "address"
        },
        {
          "internalType": "uint256",
          "name": "tokenId",
          "type": "uint256"
        },
        {
          "internalType": "bytes",
          "name": "data",
          "type": "bytes"
        }
      ],
      "name": "safeTransferFrom",
      "outputs": [],
      "stateMutability": "nonpayable",
      "type": "function"
    },
    {
      "inputs": [
        {
          "internalType": "address",
          "name": "operator",
          "type": "address"
        },
        {
          "internalType": "bool",
          "name": "approved",
          "type": "bool"
        }
      ],
      "name": "setApprovalForAll",
      "outputs": [],
      "stateMutability": "nonpayable",
      "type": "function"
    },
    {
      "inputs": [
        {
          "internalType": "uint256",
          "name": "tokenId",
          "type": "uint256"
        },
        {
          "internalType": "address",
          "name": "user",
          "type": "address"
        },
        {
          "internalType": "uint64",
          "name": "expires",
          "type": "uint64"
        }
      ],
      "name": "setUser",
      "outputs": [],
      "stateMutability": "nonpayable",
      "type": "function"
    },
    {
      "inputs": [
        {
          "internalType": "bytes4",
          "name": "interfaceId",
          "type": "bytes4"
        }
      ],
      "name": "supportsInterface",
      "outputs": [
        {
          "internalType": "bool",
          "name": "",
          "type": "bool"
        }
      ],
      "stateMutability": "view",
      "type": "function",
      "constant": true
    },
    {
      "inputs": [],
      "name": "symbol",
      "outputs": [
        {
          "internalType": "string",
          "name": "",
          "type": "string"
        }
      ],
      "stateMutability": "view",
      "type": "function",
      "constant": true
    },
    {
      "inputs": [
        {
          "internalType": "uint256",
          "name": "tokenId",
          "type": "uint256"
        }
      ],
      "name": "tokenURI",
      "outputs": [
        {
          "internalType": "string",
          "name": "",
          "type": "string"
        }
      ],
      "stateMutability": "view",
      "type": "function",
      "constant": true
    },
    {
      "inputs": [
        {
          "internalType": "address",
          "name": "from",
          "type": "address"
        },
        {
          "internalType": "address",
          "name": "to",
          "type": "address"
        },
        {
          "internalType": "uint256",
          "name": "tokenId",
          "type": "uint256"
        }
      ],
      "name": "transferFrom",
      "outputs": [],
      "stateMutability": "nonpayable",
      "type": "function"
    },
    {
      "inputs": [
        {
          "internalType": "uint256",
          "name": "tokenId",
          "type": "uint256"
        }
      ],
      "name": "userExpires",
      "outputs": [
        {
          "internalType": "uint256",
          "name": "",
          "type": "uint256"
        }
      ],
      "stateMutability": "view",
      "type": "function",
      "constant": true
    },
    {
      "inputs": [
        {
          "internalType": "uint256",
          "name": "tokenId",
          "type": "uint256"
        }
      ],
      "name": "userOf",
      "outputs": [
        {
          "internalType": "address",
          "name": "",
          "type": "address"
        }
      ],
      "stateMutability": "view",
      "type": "function",
      "constant": true
    },
    {
      "inputs": [
        {
          "internalType": "string",
          "name": "_tokenURI",
          "type": "string"
        }
      ],
      "name": "mint",
      "outputs": [],
      "stateMutability": "nonpayable",
      "type": "function"
    },
    {
      "inputs": [
        {
          "internalType": "uint256",
          "name": "tokenId",
          "type": "uint256"
        }
      ],
      "name": "burn",
      "outputs": [],
      "stateMutability": "nonpayable",
      "type": "function"
    }
  ],
  "bytecode": "0x60806040523480156200001157600080fd5b50604051620039f6380380620039f683398181016040528101906200003791906200017f565b6040518060400160405280600b81526020017f52656e7461626c654e66740000000000000000000000000000000000000000008152506040518060400160405280600481526020017f524e46540000000000000000000000000000000000000000000000000000000081525081818160009081620000b691906200042b565b508060019081620000c891906200042b565b505050505080600860006101000a81548173ffffffffffffffffffffffffffffffffffffffff021916908373ffffffffffffffffffffffffffffffffffffffff1602179055505062000512565b600080fd5b600073ffffffffffffffffffffffffffffffffffffffff82169050919050565b600062000147826200011a565b9050919050565b62000159816200013a565b81146200016557600080fd5b50565b60008151905062000179816200014e565b92915050565b60006020828403121562000198576200019762000115565b5b6000620001a88482850162000168565b91505092915050565b600081519050919050565b7f4e487b7100000000000000000000000000000000000000000000000000000000600052604160045260246000fd5b7f4e487b7100000000000000000000000000000000000000000000000000000000600052602260045260246000fd5b600060028204905060018216806200023357607f821691505b602082108103620002495762000248620001eb565b5b50919050565b60008190508160005260206000209050919050565b60006020601f8301049050919050565b600082821b905092915050565b600060088302620002b37fffffffffffffffffffffffffffffffffffffffffffffffffffffffffffffffff8262000274565b620002bf868362000274565b95508019841693508086168417925050509392505050565b6000819050919050565b6000819050919050565b60006200030c620003066200030084620002d7565b620002e1565b620002d7565b9050919050565b6000819050919050565b6200032883620002eb565b62000340620003378262000313565b84845462000281565b825550505050565b600090565b6200035762000348565b620003648184846200031d565b505050565b5b818110156200038c57620003806000826200034d565b6001810190506200036a565b5050565b601f821115620003db57620003a5816200024f565b620003b08462000264565b81016020851015620003c0578190505b620003d8620003cf8562000264565b83018262000369565b50505b505050565b600082821c905092915050565b60006200040060001984600802620003e0565b1980831691505092915050565b60006200041b8383620003ed565b9150826002028217905092915050565b6200043682620001b1565b67ffffffffffffffff811115620004525762000451620001bc565b5b6200045e82546200021a565b6200046b82828562000390565b600060209050601f831160018114620004a357600084156200048e578287015190505b6200049a85826200040d565b8655506200050a565b601f198416620004b3866200024f565b60005b82811015620004dd57848901518255600182019150602085019450602081019050620004b6565b86831015620004fd5784890151620004f9601f891682620003ed565b8355505b6001600288020188555050505b505050505050565b6134d480620005226000396000f3fe608060405234801561001057600080fd5b50600436106101165760003560e01c80638fc88c48116100a2578063c2f1f14a11610071578063c2f1f14a146102ef578063c87b56dd1461031f578063d85d3d271461034f578063e030565e1461036b578063e985e9c51461038757610116565b80638fc88c481461026957806395d89b4114610299578063a22cb465146102b7578063b88d4fde146102d357610116565b806323b872dd116100e957806323b872dd146101b557806342842e0e146101d157806342966c68146101ed5780636352211e1461020957806370a082311461023957610116565b806301ffc9a71461011b57806306fdde031461014b578063081812fc14610169578063095ea7b314610199575b600080fd5b6101356004803603810190610130919061216f565b6103b7565b60405161014291906121b7565b60405180910390f35b610153610431565b604051610160919061226b565b60405180910390f35b610183600480360381019061017e91906122c3565b6104c3565b6040516101909190612331565b60405180910390f35b6101b360048036038101906101ae9190612378565b610509565b005b6101cf60048036038101906101ca91906123b8565b610620565b005b6101eb60048036038101906101e691906123b8565b610680565b005b610207600480360381019061020291906122c3565b6106a0565b005b610223600480360381019061021e91906122c3565b6106ac565b6040516102309190612331565b60405180910390f35b610253600480360381019061024e919061240b565b610732565b6040516102609190612447565b60405180910390f35b610283600480360381019061027e91906122c3565b6107e9565b6040516102909190612447565b60405180910390f35b6102a1610827565b6040516102ae919061226b565b60405180910390f35b6102d160048036038101906102cc919061248e565b6108b9565b005b6102ed60048036038101906102e89190612603565b6108cf565b005b610309600480360381019061030491906122c3565b610931565b6040516103169190612331565b60405180910390f35b610339600480360381019061033491906122c3565b6109b6565b604051610346919061226b565b60405180910390f35b61036960048036038101906103649190612727565b610ac8565b005b610385600480360381019061038091906127b0565b610b25565b005b6103a1600480360381019061039c9190612803565b610c48565b6040516103ae91906121b7565b60405180910390f35b60007fad092b5c000000000000000000000000000000000000000000000000000000007bffffffffffffffffffffffffffffffffffffffffffffffffffffffff1916827bffffffffffffffffffffffffffffffffffffffffffffffffffffffff1916148061042a575061042982610cdc565b5b9050919050565b60606000805461044090612872565b80601f016020809104026020016040519081016040528092919081815260200182805461046c90612872565b80156104b95780601f1061048e576101008083540402835291602001916104b9565b820191906000526020600020905b81548152906001019060200180831161049c57829003601f168201915b5050505050905090565b60006104ce82610dbe565b6004600083815260200190815260200160002060009054906101000a900473ffffffffffffffffffffffffffffffffffffffff169050919050565b6000610514826106ac565b90508073ffffffffffffffffffffffffffffffffffffffff168373ffffffffffffffffffffffffffffffffffffffff1603610584576040517f08c379a000000000000000000000000000000000000000000000000000000000815260040161057b90612915565b60405180910390fd5b8073ffffffffffffffffffffffffffffffffffffffff166105a3610e09565b73ffffffffffffffffffffffffffffffffffffffff1614806105d257506105d1816105cc610e09565b610c48565b5b610611576040517f08c379a0000000000000000000000000000000000000000000000000000000008152600401610608906129a7565b60405180910390fd5b61061b8383610e11565b505050565b61063161062b610e09565b82610eca565b610670576040517f08c379a000000000000000000000000000000000000000000000000000000000815260040161066790612a39565b60405180910390fd5b61067b838383610f5f565b505050565b61069b838383604051806020016040528060008152506108cf565b505050565b6106a981611258565b50565b6000806106b8836112ab565b9050600073ffffffffffffffffffffffffffffffffffffffff168173ffffffffffffffffffffffffffffffffffffffff1603610729576040517f08c379a000000000000000000000000000000000000000000000000000000000815260040161072090612aa5565b60405180910390fd5b80915050919050565b60008073ffffffffffffffffffffffffffffffffffffffff168273ffffffffffffffffffffffffffffffffffffffff16036107a2576040517f08c379a000000000000000000000000000000000000000000000000000000000815260040161079990612b37565b60405180910390fd5b600360008373ffffffffffffffffffffffffffffffffffffffff1673ffffffffffffffffffffffffffffffffffffffff168152602001908152602001600020549050919050565b60006007600083815260200190815260200160002060000160149054906101000a900467ffffffffffffffff1667ffffffffffffffff169050919050565b60606001805461083690612872565b80601f016020809104026020016040519081016040528092919081815260200182805461086290612872565b80156108af5780601f10610884576101008083540402835291602001916108af565b820191906000526020600020905b81548152906001019060200180831161089257829003601f168201915b5050505050905090565b6108cb6108c4610e09565b83836112e8565b5050565b6108e06108da610e09565b83610eca565b61091f576040517f08c379a000000000000000000000000000000000000000000000000000000000815260040161091690612a39565b60405180910390fd5b61092b84848484611454565b50505050565b6000426007600084815260200190815260200160002060000160149054906101000a900467ffffffffffffffff1667ffffffffffffffff16106109ac576007600083815260200190815260200160002060000160009054906101000a900473ffffffffffffffffffffffffffffffffffffffff1690506109b1565b600090505b919050565b60606109c182610dbe565b60006006600084815260200190815260200160002080546109e190612872565b80601f0160208091040260200160405190810160405280929190818152602001828054610a0d90612872565b8015610a5a5780601f10610a2f57610100808354040283529160200191610a5a565b820191906000526020600020905b815481529060010190602001808311610a3d57829003601f168201915b505050505090506000610a6b6114b0565b90506000815103610a80578192505050610ac3565b600082511115610ab5578082604051602001610a9d929190612b93565b60405160208183030381529060405292505050610ac3565b610abe846114c7565b925050505b919050565b610ad2600961152f565b6000610ade6009611545565b9050610aea3382611553565b610b17600860009054906101000a900473ffffffffffffffffffffffffffffffffffffffff1660016108b9565b610b218183611571565b5050565b610b2f3384610eca565b610b6e576040517f08c379a0000000000000000000000000000000000000000000000000000000008152600401610b6590612c29565b60405180910390fd5b6000600760008581526020019081526020016000209050828160000160006101000a81548173ffffffffffffffffffffffffffffffffffffffff021916908373ffffffffffffffffffffffffffffffffffffffff160217905550818160000160146101000a81548167ffffffffffffffff021916908367ffffffffffffffff1602179055508273ffffffffffffffffffffffffffffffffffffffff16847f4e06b4e7000e659094299b3533b47b6aa8ad048e95e872d23d1f4ee55af89cfe84604051610c3a9190612c58565b60405180910390a350505050565b6000600560008473ffffffffffffffffffffffffffffffffffffffff1673ffffffffffffffffffffffffffffffffffffffff16815260200190815260200160002060008373ffffffffffffffffffffffffffffffffffffffff1673ffffffffffffffffffffffffffffffffffffffff16815260200190815260200160002060009054906101000a900460ff16905092915050565b60007f80ac58cd000000000000000000000000000000000000000000000000000000007bffffffffffffffffffffffffffffffffffffffffffffffffffffffff1916827bffffffffffffffffffffffffffffffffffffffffffffffffffffffff19161480610da757507f5b5e139f000000000000000000000000000000000000000000000000000000007bffffffffffffffffffffffffffffffffffffffffffffffffffffffff1916827bffffffffffffffffffffffffffffffffffffffffffffffffffffffff1916145b80610db75750610db6826115de565b5b9050919050565b610dc781611648565b610e06576040517f08c379a0000000000000000000000000000000000000000000000000000000008152600401610dfd90612aa5565b60405180910390fd5b50565b600033905090565b816004600083815260200190815260200160002060006101000a81548173ffffffffffffffffffffffffffffffffffffffff021916908373ffffffffffffffffffffffffffffffffffffffff160217905550808273ffffffffffffffffffffffffffffffffffffffff16610e84836106ac565b73ffffffffffffffffffffffffffffffffffffffff167f8c5be1e5ebec7d5bd14f71427d1e84f3dd0314c0f7b2291e5b200ac8c7c3b92560405160405180910390a45050565b600080610ed6836106ac565b90508073ffffffffffffffffffffffffffffffffffffffff168473ffffffffffffffffffffffffffffffffffffffff161480610f185750610f178185610c48565b5b80610f5657508373ffffffffffffffffffffffffffffffffffffffff16610f3e846104c3565b73ffffffffffffffffffffffffffffffffffffffff16145b91505092915050565b8273ffffffffffffffffffffffffffffffffffffffff16610f7f826106ac565b73ffffffffffffffffffffffffffffffffffffffff1614610fd5576040517f08c379a0000000000000000000000000000000000000000000000000000000008152600401610fcc90612ce5565b60405180910390fd5b600073ffffffffffffffffffffffffffffffffffffffff168273ffffffffffffffffffffffffffffffffffffffff1603611044576040517f08c379a000000000000000000000000000000000000000000000000000000000815260040161103b90612d77565b60405180910390fd5b6110518383836001611689565b8273ffffffffffffffffffffffffffffffffffffffff16611071826106ac565b73ffffffffffffffffffffffffffffffffffffffff16146110c7576040517f08c379a00000000000000000000000000000000000000000000000000000000081526004016110be90612ce5565b60405180910390fd5b6004600082815260200190815260200160002060006101000a81549073ffffffffffffffffffffffffffffffffffffffff02191690556001600360008573ffffffffffffffffffffffffffffffffffffffff1673ffffffffffffffffffffffffffffffffffffffff168152602001908152602001600020600082825403925050819055506001600360008473ffffffffffffffffffffffffffffffffffffffff1673ffffffffffffffffffffffffffffffffffffffff16815260200190815260200160002060008282540192505081905550816002600083815260200190815260200160002060006101000a81548173ffffffffffffffffffffffffffffffffffffffff021916908373ffffffffffffffffffffffffffffffffffffffff160217905550808273ffffffffffffffffffffffffffffffffffffffff168473ffffffffffffffffffffffffffffffffffffffff167fddf252ad1be2c89b69c2b068fc378daa952ba7f163c4a11628f55a4df523b3ef60405160405180910390a461125383838360016117e9565b505050565b611261816117ef565b600060066000838152602001908152602001600020805461128190612872565b9050146112a8576006600082815260200190815260200160002060006112a791906120a6565b5b50565b60006002600083815260200190815260200160002060009054906101000a900473ffffffffffffffffffffffffffffffffffffffff169050919050565b8173ffffffffffffffffffffffffffffffffffffffff168373ffffffffffffffffffffffffffffffffffffffff1603611356576040517f08c379a000000000000000000000000000000000000000000000000000000000815260040161134d90612de3565b60405180910390fd5b80600560008573ffffffffffffffffffffffffffffffffffffffff1673ffffffffffffffffffffffffffffffffffffffff16815260200190815260200160002060008473ffffffffffffffffffffffffffffffffffffffff1673ffffffffffffffffffffffffffffffffffffffff16815260200190815260200160002060006101000a81548160ff0219169083151502179055508173ffffffffffffffffffffffffffffffffffffffff168373ffffffffffffffffffffffffffffffffffffffff167f17307eab39ab6107e8899845ad3d59bd9653f200f220920489ca2b5937696c318360405161144791906121b7565b60405180910390a3505050565b61145f848484610f5f565b61146b8484848461193d565b6114aa576040517f08c379a00000000000000000000000000000000000000000000000000000000081526004016114a190612e75565b60405180910390fd5b50505050565b606060405180602001604052806000815250905090565b60606114d282610dbe565b60006114dc6114b0565b905060008151116114fc5760405180602001604052806000815250611527565b8061150684611ac4565b604051602001611517929190612b93565b6040516020818303038152906040525b915050919050565b6001816000016000828254019250508190555050565b600081600001549050919050565b61156d828260405180602001604052806000815250611b92565b5050565b61157a82611648565b6115b9576040517f08c379a00000000000000000000000000000000000000000000000000000000081526004016115b090612f07565b60405180910390fd5b806006600084815260200190815260200160002090816115d991906130d3565b505050565b60007f01ffc9a7000000000000000000000000000000000000000000000000000000007bffffffffffffffffffffffffffffffffffffffffffffffffffffffff1916827bffffffffffffffffffffffffffffffffffffffffffffffffffffffff1916149050919050565b60008073ffffffffffffffffffffffffffffffffffffffff1661166a836112ab565b73ffffffffffffffffffffffffffffffffffffffff1614159050919050565b61169584848484611bed565b8273ffffffffffffffffffffffffffffffffffffffff168473ffffffffffffffffffffffffffffffffffffffff16141580156117345750600073ffffffffffffffffffffffffffffffffffffffff166007600084815260200190815260200160002060000160009054906101000a900473ffffffffffffffffffffffffffffffffffffffff1673ffffffffffffffffffffffffffffffffffffffff1614155b156117e35760076000838152602001908152602001600020600080820160006101000a81549073ffffffffffffffffffffffffffffffffffffffff02191690556000820160146101000a81549067ffffffffffffffff02191690555050600073ffffffffffffffffffffffffffffffffffffffff16827f4e06b4e7000e659094299b3533b47b6aa8ad048e95e872d23d1f4ee55af89cfe60006040516117da91906131e0565b60405180910390a35b50505050565b50505050565b60006117fa826106ac565b905061180a816000846001611689565b611813826106ac565b90506004600083815260200190815260200160002060006101000a81549073ffffffffffffffffffffffffffffffffffffffff02191690556001600360008373ffffffffffffffffffffffffffffffffffffffff1673ffffffffffffffffffffffffffffffffffffffff168152602001908152602001600020600082825403925050819055506002600083815260200190815260200160002060006101000a81549073ffffffffffffffffffffffffffffffffffffffff021916905581600073ffffffffffffffffffffffffffffffffffffffff168273ffffffffffffffffffffffffffffffffffffffff167fddf252ad1be2c89b69c2b068fc378daa952ba7f163c4a11628f55a4df523b3ef60405160405180910390a46119398160008460016117e9565b5050565b600061195e8473ffffffffffffffffffffffffffffffffffffffff16611d13565b15611ab7578373ffffffffffffffffffffffffffffffffffffffff1663150b7a02611987610e09565b8786866040518563ffffffff1660e01b81526004016119a99493929190613250565b6020604051808303816000875af19250505080156119e557506040513d601f19601f820116820180604052508101906119e291906132b1565b60015b611a67573d8060008114611a15576040519150601f19603f3d011682016040523d82523d6000602084013e611a1a565b606091505b506000815103611a5f576040517f08c379a0000000000000000000000000000000000000000000000000000000008152600401611a5690612e75565b60405180910390fd5b805181602001fd5b63150b7a0260e01b7bffffffffffffffffffffffffffffffffffffffffffffffffffffffff1916817bffffffffffffffffffffffffffffffffffffffffffffffffffffffff191614915050611abc565b600190505b949350505050565b606060006001611ad384611d36565b01905060008167ffffffffffffffff811115611af257611af16124d8565b5b6040519080825280601f01601f191660200182016040528015611b245781602001600182028036833780820191505090505b509050600082602001820190505b600115611b87578080600190039150507f3031323334353637383961626364656600000000000000000000000000000000600a86061a8153600a8581611b7b57611b7a6132de565b5b04945060008503611b32575b819350505050919050565b611b9c8383611e89565b611ba9600084848461193d565b611be8576040517f08c379a0000000000000000000000000000000000000000000000000000000008152600401611bdf90612e75565b60405180910390fd5b505050565b6001811115611d0d57600073ffffffffffffffffffffffffffffffffffffffff168473ffffffffffffffffffffffffffffffffffffffff1614611c815780600360008673ffffffffffffffffffffffffffffffffffffffff1673ffffffffffffffffffffffffffffffffffffffff1681526020019081526020016000206000828254611c79919061333c565b925050819055505b600073ffffffffffffffffffffffffffffffffffffffff168373ffffffffffffffffffffffffffffffffffffffff1614611d0c5780600360008573ffffffffffffffffffffffffffffffffffffffff1673ffffffffffffffffffffffffffffffffffffffff1681526020019081526020016000206000828254611d049190613370565b925050819055505b5b50505050565b6000808273ffffffffffffffffffffffffffffffffffffffff163b119050919050565b600080600090507a184f03e93ff9f4daa797ed6e38ed64bf6a1f0100000000000000008310611d94577a184f03e93ff9f4daa797ed6e38ed64bf6a1f0100000000000000008381611d8a57611d896132de565b5b0492506040810190505b6d04ee2d6d415b85acef81000000008310611dd1576d04ee2d6d415b85acef81000000008381611dc757611dc66132de565b5b0492506020810190505b662386f26fc100008310611e0057662386f26fc100008381611df657611df56132de565b5b0492506010810190505b6305f5e1008310611e29576305f5e1008381611e1f57611e1e6132de565b5b0492506008810190505b6127108310611e4e576127108381611e4457611e436132de565b5b0492506004810190505b60648310611e715760648381611e6757611e666132de565b5b0492506002810190505b600a8310611e80576001810190505b80915050919050565b600073ffffffffffffffffffffffffffffffffffffffff168273ffffffffffffffffffffffffffffffffffffffff1603611ef8576040517f08c379a0000000000000000000000000000000000000000000000000000000008152600401611eef90613412565b60405180910390fd5b611f0181611648565b15611f41576040517f08c379a0000000000000000000000000000000000000000000000000000000008152600401611f389061347e565b60405180910390fd5b611f4f600083836001611689565b611f5881611648565b15611f98576040517f08c379a0000000000000000000000000000000000000000000000000000000008152600401611f8f9061347e565b60405180910390fd5b6001600360008473ffffffffffffffffffffffffffffffffffffffff1673ffffffffffffffffffffffffffffffffffffffff16815260200190815260200160002060008282540192505081905550816002600083815260200190815260200160002060006101000a81548173ffffffffffffffffffffffffffffffffffffffff021916908373ffffffffffffffffffffffffffffffffffffffff160217905550808273ffffffffffffffffffffffffffffffffffffffff16600073ffffffffffffffffffffffffffffffffffffffff167fddf252ad1be2c89b69c2b068fc378daa952ba7f163c4a11628f55a4df523b3ef60405160405180910390a46120a26000838360016117e9565b5050565b5080546120b290612872565b6000825580601f106120c457506120e3565b601f0160209004906000526020600020908101906120e291906120e6565b5b50565b5b808211156120ff5760008160009055506001016120e7565b5090565b6000604051905090565b600080fd5b600080fd5b60007fffffffff0000000000000000000000000000000000000000000000000000000082169050919050565b61214c81612117565b811461215757600080fd5b50565b60008135905061216981612143565b92915050565b6000602082840312156121855761218461210d565b5b60006121938482850161215a565b91505092915050565b60008115159050919050565b6121b18161219c565b82525050565b60006020820190506121cc60008301846121a8565b92915050565b600081519050919050565b600082825260208201905092915050565b60005b8381101561220c5780820151818401526020810190506121f1565b8381111561221b576000848401525b50505050565b6000601f19601f8301169050919050565b600061223d826121d2565b61224781856121dd565b93506122578185602086016121ee565b61226081612221565b840191505092915050565b600060208201905081810360008301526122858184612232565b905092915050565b6000819050919050565b6122a08161228d565b81146122ab57600080fd5b50565b6000813590506122bd81612297565b92915050565b6000602082840312156122d9576122d861210d565b5b60006122e7848285016122ae565b91505092915050565b600073ffffffffffffffffffffffffffffffffffffffff82169050919050565b600061231b826122f0565b9050919050565b61232b81612310565b82525050565b60006020820190506123466000830184612322565b92915050565b61235581612310565b811461236057600080fd5b50565b6000813590506123728161234c565b92915050565b6000806040838503121561238f5761238e61210d565b5b600061239d85828601612363565b92505060206123ae858286016122ae565b9150509250929050565b6000806000606084860312156123d1576123d061210d565b5b60006123df86828701612363565b93505060206123f086828701612363565b9250506040612401868287016122ae565b9150509250925092565b6000602082840312156124215761242061210d565b5b600061242f84828501612363565b91505092915050565b6124418161228d565b82525050565b600060208201905061245c6000830184612438565b92915050565b61246b8161219c565b811461247657600080fd5b50565b60008135905061248881612462565b92915050565b600080604083850312156124a5576124a461210d565b5b60006124b385828601612363565b92505060206124c485828601612479565b9150509250929050565b600080fd5b600080fd5b7f4e487b7100000000000000000000000000000000000000000000000000000000600052604160045260246000fd5b61251082612221565b810181811067ffffffffffffffff8211171561252f5761252e6124d8565b5b80604052505050565b6000612542612103565b905061254e8282612507565b919050565b600067ffffffffffffffff82111561256e5761256d6124d8565b5b61257782612221565b9050602081019050919050565b82818337600083830152505050565b60006125a66125a184612553565b612538565b9050828152602081018484840111156125c2576125c16124d3565b5b6125cd848285612584565b509392505050565b600082601f8301126125ea576125e96124ce565b5b81356125fa848260208601612593565b91505092915050565b6000806000806080858703121561261d5761261c61210d565b5b600061262b87828801612363565b945050602061263c87828801612363565b935050604061264d878288016122ae565b925050606085013567ffffffffffffffff81111561266e5761266d612112565b5b61267a878288016125d5565b91505092959194509250565b600067ffffffffffffffff8211156126a1576126a06124d8565b5b6126aa82612221565b9050602081019050919050565b60006126ca6126c584612686565b612538565b9050828152602081018484840111156126e6576126e56124d3565b5b6126f1848285612584565b509392505050565b600082601f83011261270e5761270d6124ce565b5b813561271e8482602086016126b7565b91505092915050565b60006020828403121561273d5761273c61210d565b5b600082013567ffffffffffffffff81111561275b5761275a612112565b5b612767848285016126f9565b91505092915050565b600067ffffffffffffffff82169050919050565b61278d81612770565b811461279857600080fd5b50565b6000813590506127aa81612784565b92915050565b6000806000606084860312156127c9576127c861210d565b5b60006127d7868287016122ae565b93505060206127e886828701612363565b92505060406127f98682870161279b565b9150509250925092565b6000806040838503121561281a5761281961210d565b5b600061282885828601612363565b925050602061283985828601612363565b9150509250929050565b7f4e487b7100000000000000000000000000000000000000000000000000000000600052602260045260246000fd5b6000600282049050600182168061288a57607f821691505b60208210810361289d5761289c612843565b5b50919050565b7f4552433732313a20617070726f76616c20746f2063757272656e74206f776e6560008201527f7200000000000000000000000000000000000000000000000000000000000000602082015250565b60006128ff6021836121dd565b915061290a826128a3565b604082019050919050565b6000602082019050818103600083015261292e816128f2565b9050919050565b7f4552433732313a20617070726f76652063616c6c6572206973206e6f7420746f60008201527f6b656e206f776e6572206f7220617070726f76656420666f7220616c6c000000602082015250565b6000612991603d836121dd565b915061299c82612935565b604082019050919050565b600060208201905081810360008301526129c081612984565b9050919050565b7f4552433732313a2063616c6c6572206973206e6f7420746f6b656e206f776e6560008201527f72206f7220617070726f76656400000000000000000000000000000000000000602082015250565b6000612a23602d836121dd565b9150612a2e826129c7565b604082019050919050565b60006020820190508181036000830152612a5281612a16565b9050919050565b7f4552433732313a20696e76616c696420746f6b656e2049440000000000000000600082015250565b6000612a8f6018836121dd565b9150612a9a82612a59565b602082019050919050565b60006020820190508181036000830152612abe81612a82565b9050919050565b7f4552433732313a2061646472657373207a65726f206973206e6f74206120766160008201527f6c6964206f776e65720000000000000000000000000000000000000000000000602082015250565b6000612b216029836121dd565b9150612b2c82612ac5565b604082019050919050565b60006020820190508181036000830152612b5081612b14565b9050919050565b600081905092915050565b6000612b6d826121d2565b612b778185612b57565b9350612b878185602086016121ee565b80840191505092915050565b6000612b9f8285612b62565b9150612bab8284612b62565b91508190509392505050565b7f4552433732313a207472616e736665722063616c6c6572206973206e6f74206f60008201527f776e6572206e6f7220617070726f766564000000000000000000000000000000602082015250565b6000612c136031836121dd565b9150612c1e82612bb7565b604082019050919050565b60006020820190508181036000830152612c4281612c06565b9050919050565b612c5281612770565b82525050565b6000602082019050612c6d6000830184612c49565b92915050565b7f4552433732313a207472616e736665722066726f6d20696e636f72726563742060008201527f6f776e6572000000000000000000000000000000000000000000000000000000602082015250565b6000612ccf6025836121dd565b9150612cda82612c73565b604082019050919050565b60006020820190508181036000830152612cfe81612cc2565b9050919050565b7f4552433732313a207472616e7366657220746f20746865207a65726f2061646460008201527f7265737300000000000000000000000000000000000000000000000000000000602082015250565b6000612d616024836121dd565b9150612d6c82612d05565b604082019050919050565b60006020820190508181036000830152612d9081612d54565b9050919050565b7f4552433732313a20617070726f766520746f2063616c6c657200000000000000600082015250565b6000612dcd6019836121dd565b9150612dd882612d97565b602082019050919050565b60006020820190508181036000830152612dfc81612dc0565b9050919050565b7f4552433732313a207472616e7366657220746f206e6f6e20455243373231526560008201527f63656976657220696d706c656d656e7465720000000000000000000000000000602082015250565b6000612e5f6032836121dd565b9150612e6a82612e03565b604082019050919050565b60006020820190508181036000830152612e8e81612e52565b9050919050565b7f45524337323155524953746f726167653a2055524920736574206f66206e6f6e60008201527f6578697374656e7420746f6b656e000000000000000000000000000000000000602082015250565b6000612ef1602e836121dd565b9150612efc82612e95565b604082019050919050565b60006020820190508181036000830152612f2081612ee4565b9050919050565b60008190508160005260206000209050919050565b60006020601f8301049050919050565b600082821b905092915050565b600060088302612f897fffffffffffffffffffffffffffffffffffffffffffffffffffffffffffffffff82612f4c565b612f938683612f4c565b95508019841693508086168417925050509392505050565b6000819050919050565b6000612fd0612fcb612fc68461228d565b612fab565b61228d565b9050919050565b6000819050919050565b612fea83612fb5565b612ffe612ff682612fd7565b848454612f59565b825550505050565b600090565b613013613006565b61301e818484612fe1565b505050565b5b818110156130425761303760008261300b565b600181019050613024565b5050565b601f8211156130875761305881612f27565b61306184612f3c565b81016020851015613070578190505b61308461307c85612f3c565b830182613023565b50505b505050565b600082821c905092915050565b60006130aa6000198460080261308c565b1980831691505092915050565b60006130c38383613099565b9150826002028217905092915050565b6130dc826121d2565b67ffffffffffffffff8111156130f5576130f46124d8565b5b6130ff8254612872565b61310a828285613046565b600060209050601f83116001811461313d576000841561312b578287015190505b61313585826130b7565b86555061319d565b601f19841661314b86612f27565b60005b828110156131735784890151825560018201915060208501945060208101905061314e565b86831015613190578489015161318c601f891682613099565b8355505b6001600288020188555050505b505050505050565b6000819050919050565b60006131ca6131c56131c0846131a5565b612fab565b612770565b9050919050565b6131da816131af565b82525050565b60006020820190506131f560008301846131d1565b92915050565b600081519050919050565b600082825260208201905092915050565b6000613222826131fb565b61322c8185613206565b935061323c8185602086016121ee565b61324581612221565b840191505092915050565b60006080820190506132656000830187612322565b6132726020830186612322565b61327f6040830185612438565b81810360608301526132918184613217565b905095945050505050565b6000815190506132ab81612143565b92915050565b6000602082840312156132c7576132c661210d565b5b60006132d58482850161329c565b91505092915050565b7f4e487b7100000000000000000000000000000000000000000000000000000000600052601260045260246000fd5b7f4e487b7100000000000000000000000000000000000000000000000000000000600052601160045260246000fd5b60006133478261228d565b91506133528361228d565b9250828210156133655761336461330d565b5b828203905092915050565b600061337b8261228d565b91506133868361228d565b9250827fffffffffffffffffffffffffffffffffffffffffffffffffffffffffffffffff038211156133bb576133ba61330d565b5b828201905092915050565b7f4552433732313a206d696e7420746f20746865207a65726f2061646472657373600082015250565b60006133fc6020836121dd565b9150613407826133c6565b602082019050919050565b6000602082019050818103600083015261342b816133ef565b9050919050565b7f4552433732313a20746f6b656e20616c7265616479206d696e74656400000000600082015250565b6000613468601c836121dd565b915061347382613432565b602082019050919050565b600060208201905081810360008301526134978161345b565b905091905056fea2646970667358221220b4ea15c58eccc332f97783d59643a0f1f170894db2bfda0c5e3db4168cc2064064736f6c634300080f0033",
  "immutableReferences": {},
  "source": "// SPDX-License-Identifier: MIT\npragma solidity >=0.4.22 <0.9.0;\n\nimport \"../ERC4907.sol\";\nimport \"@openzeppelin/contracts/utils/Counters.sol\";\n\ncontract RentableNft is ERC4907 {\n  using Counters for Counters.Counter;\n  address private _marketplaceContract;\n  Counters.Counter private _tokenIds;\n\n  constructor(address marketplaceContract) ERC4907(\"RentableNft\", \"RNFT\") {\n    _marketplaceContract = marketplaceContract;\n  }\n\n  function mint(string memory _tokenURI) public {\n    _tokenIds.increment();\n    uint256 newTokenId = _tokenIds.current();\n    _safeMint(msg.sender, newTokenId);\n    setApprovalForAll(_marketplaceContract, true);\n    _setTokenURI(newTokenId, _tokenURI);\n  }\n\n  function burn(uint256 tokenId) public {\n    _burn(tokenId);\n  }\n}",
  "sourcePath": "/Users/stephan.gerbeth/dev/rentable-nft-marketplace/contracts/ERC4907/RentableNFT.sol",
  "compiler": {
    "name": "solc",
    "version": "0.8.15+commit.e14f2714.Emscripten.clang"
  },
  "schemaVersion": "3.4.13",
  "updatedAt": "2023-04-23T10:48:00.132Z",
  "networkType": "ethereum",
  "devdoc": {
    "kind": "dev",
    "methods": {
      "approve(address,uint256)": {
        "details": "See {IERC721-approve}."
      },
      "balanceOf(address)": {
        "details": "See {IERC721-balanceOf}."
      },
      "getApproved(uint256)": {
        "details": "See {IERC721-getApproved}."
      },
      "isApprovedForAll(address,address)": {
        "details": "See {IERC721-isApprovedForAll}."
      },
      "name()": {
        "details": "See {IERC721Metadata-name}."
      },
      "ownerOf(uint256)": {
        "details": "See {IERC721-ownerOf}."
      },
      "safeTransferFrom(address,address,uint256)": {
        "details": "See {IERC721-safeTransferFrom}."
      },
      "safeTransferFrom(address,address,uint256,bytes)": {
        "details": "See {IERC721-safeTransferFrom}."
      },
      "setApprovalForAll(address,bool)": {
        "details": "See {IERC721-setApprovalForAll}."
      },
      "setUser(uint256,address,uint64)": {
        "details": "The zero address indicates there is no user Throws if `tokenId` is not valid NFT",
        "params": {
          "expires": "UNIX timestamp, The new user could use the NFT before expires",
          "user": "The new user of the NFT"
        }
      },
      "supportsInterface(bytes4)": {
        "details": "See {IERC165-supportsInterface}."
      },
      "symbol()": {
        "details": "See {IERC721Metadata-symbol}."
      },
      "tokenURI(uint256)": {
        "details": "See {IERC721Metadata-tokenURI}."
      },
      "transferFrom(address,address,uint256)": {
        "details": "See {IERC721-transferFrom}."
      },
      "userExpires(uint256)": {
        "details": "The zero value indicates that there is no user",
        "params": {
          "tokenId": "The NFT to get the user expires for"
        },
        "returns": {
          "_0": "The user expires for this NFT"
        }
      },
      "userOf(uint256)": {
        "details": "The zero address indicates that there is no user or the user is expired",
        "params": {
          "tokenId": "The NFT to get the user address for"
        },
        "returns": {
          "_0": "The user address for this NFT"
        }
      }
    },
    "version": 1
  },
  "userdoc": {
    "events": {
      "UpdateUser(uint256,address,uint64)": {
        "notice": "Emitted when the `user` of an NFT or the `expires` of the `user` is changed The zero address for user indicates that there is no user address"
      }
    },
    "kind": "user",
    "methods": {
      "setUser(uint256,address,uint64)": {
        "notice": "set the user and expires of a NFT"
      },
      "userExpires(uint256)": {
        "notice": "Get the user expires of an NFT"
      },
      "userOf(uint256)": {
        "notice": "Get the user address of an NFT"
      }
    },
    "version": 1
  }
}